:020000040800F2
:10000000A806002079020008DF200008D5040008B7
:10001000DD200008A7030008792200080000000086
:10002000000000000000000000000000A521000802
:10003000A903000800000000E1200008A721000833
:10004000930200089302000893020008930200083C
:10005000930200089302000893020008930200082C
:10006000930200089302000893020008930200081C
:10007000930200089302000893020008930200080C
:1000800093020008930200089302000893020008FC
:1000900093020008930200089302000893020008EC
:1000A00093020008930200089302000893020008DC
:1000B00093020008930200089302000893020008CC
:1000C00093020008930200089302000893020008BC
:1000D00093020008930200089302000893020008AC
:1000E000930200089302000893020008930200089C
:1000F000930200089302000893020008930200088C
:10010000930200089302000893020008930200087B
:10011000930200089302000893020008930200086B
:10012000930200089302000893020008930200085B
:10013000930200089302000893020008930200084B
:10014000930200089302000893020008930200083B
:10015000930200089302000893020008930200082B
:100160009302000893020008890400089302000823
:10017000930200089302000893020008930200080B
:1001800093020008930200089302000893020008FB
:100190009302000800000000930200089302000888
:1001A00093020008930200089302000893020008DB
:1001B00093020008930200089302000893020008CB
:1001C00093020008930200089302000893020008BB
:1001D000930200089302000800F002F800F03CF8D7
:1001E0000AA090E8000C82448344AAF10107DA4592
:1001F00001D100F031F8AFF2090EBAE80F0013F0A8
:10020000010F18BFFB1A43F001031847D025000067
:10021000F0250000103A24BF78C878C1FAD85207F8
:1002200024BF30C830C144BF04680C607047000070
:100230000023002400250026103A28BF78C1FBD8EF
:10024000520728BF30C148BF0B6070471FB502F08E
:10025000D1F91FBD10B510BD00F06BF81146FFF7C6
:10026000F5FF02F067F800F089F803B4FFF7F2FF3A
:1002700003BC00F091F80000094880470948004796
:10028000FEE7FEE7FEE7FEE7FEE7FEE7FEE7FEE746
:10029000FEE7FEE704480549054A064B70470000A3
:1002A00069220008D9010008A8000020A806002043
:1002B000A8020020A8020020B2F120030AD5C2F152
:1002C000200301FA02F120FA03F300FA02F041EAF6
:1002D0000301704700FA03F14FF0000070474FF040
:1002E000000200B5134694469646203922BFA0E886
:1002F0000C50A0E80C50B1F12001BFF4F7AF090792
:1003000028BFA0E80C5048BF0CC05DF804EB890082
:1003100028BF40F8042B08BF704748BF20F8022BC5
:1003200011F0804F18BF00F8012B704770477047DD
:100330007047754600F02CF8AE46050069465346F6
:1003400020F00700854618B020B5FFF7A3FFBDE8F1
:1003500020404FF000064FF000074FF000084FF02C
:10036000000B21F00701AC46ACE8C009ACE8C009BD
:10037000ACE8C009ACE8C0098D46704710B504462A
:10038000AFF300802046BDE81040FFF76EBF0000CD
:10039000004870474800002001491820ABBEFEE726
:1003A000260002007047FEE77047000070B52C4839
:1003B000DFED2C0A9FED2C1A0188408800EE101A00
:1003C0002A4D0126B8EE400A294C60EE200A00EEC4
:1003D000100A10EE900AB8EE400AB0F1834F20EEFA
:1003E000010A04DA10EE100A2249884207DCD5F827
:1003F000980340F00300C5F89803667009E010EE1A
:10040000900A1D49884204DC607810B100206070B9
:100410002070B2EE080A194801F02FFFDFED180A2C
:1004200020EE200ABCEEC00A10EE100A60602178AF
:1004300089B9D5F8941341F00301C5F89413618884
:10044000814204D8891C88B26080606003E0267015
:100450004FF4FA6060800B496068086070BD00006E
:100460000000002026E4033C7F6ABC3C0068014099
:100470000800002000001C42000020411000002065
:1004800000C82F47AC6A01404FF4800090FAA0F1F9
:10049000B1FA81F11039CAB20C490D4B31F8122072
:1004A000D258C2F30012002A0FD090FAA0F0B0FA8E
:1004B00080F01038C0B231F81000191D08440168EE
:1004C00041F010010160FFF771BF704784270008F9
:1004D00004680140FEE7000030B5174A00234C686D
:1004E000904206D14FF0A0429268144D02F00102F2
:1004F00009E0134A9268134D02F00102AD6805F05D
:1005000001052A43104DAD6805F001052A4302D0CC
:100510000123184630BD0D4D44B10A682243D1E98C
:1005200002410C4381682243294002E08268096845
:100530002A400A438260ECE70003005000010050AB
:10054000000400500005005000060050E030C0FFDD
:1005500030B58368002213F0010F02D0012210464B
:1005600030BDD1E9003423438968C4684CF21805D2
:10057000AC4321430B43C360F1E7000070B54C6806
:100580008368002213F0010F02D00122104670BDD3
:10059000002C0E4B0C6807D08D682C43D1E9035614
:1005A00035432C434D6904E0CD682C43D1E9045612
:1005B00035432C43C5681D402C43C4604968036B18
:1005C00023F00F030B430363E0E700001CC0F0FFC0
:1005D0000C2303EA911310B51844036B01F01F01BB
:1005E0001F248C40C2F38462A3438A4013430363F5
:1005F00010BD042303EAD15310B518444369C1F375
:10060000045107248C40A3438A401343436110BD27
:1006100010B550F8B03FC1F31204A34302F0180420
:10062000024AE2400A401343036010BDFFFF070087
:10063000044908B58A6C02438A64896C01400091C0
:1006400008BD000000100240044908B5CA6C02430E
:10065000CA64C96C0140009108BD0000001002404E
:10066000044908B5CA6C0243CA64C96C01400091D0
:1006700008BD000000100240044908B5CA6C0243DE
:10068000CA64C96C0140009108BD0000001002401E
:10069000044908B5CA6C0243CA64C96C01400091A0
:1006A00008BD000000100240044908B5CA6C0243AE
:1006B000CA64C96C0140009108BD000000100240EE
:1006C000044908B5CA6C0243CA64C96C0140009170
:1006D00008BD00000010024030B503680022DB0FA7
:1006E00002D00122104630BDD1E900342343D1E9C4
:1006F00002452C43096923430B430168024C214006
:100700000B430360EEE700000F7E00FF090F00EBD4
:10071000810081686FF30B01114381607047C26BE8
:1007200001F010034FF4807199408A43C26370470F
:10073000026801F01003022199400A4302607047E9
:10074000F0B5002501F010030126946807689E406B
:10075000BE430FD054B30668C02C0DD040F6FC71D8
:1007600099408E4311682143D468214399400E4338
:10077000066023E001252DE0C0249C40A6432643CB
:100780000660046E40F60F769E40B44316685768C4
:10079000B608BF0846EA07269E4034430466C1F304
:1007A000C01100EB8101D4688C6507E00168FC246E
:1007B0009C40A14314689C4021430160C46B072105
:1007C00099408C43D2E90416926931431143994010
:1007D0000C43C4632846F0BD10B5C36B01F0100193
:1007E0004FF400748C40A3438A401343C36310BD8D
:1007F000C1F3C01100EB8100816D6FF30B01114358
:1008000081657047C1F3C01100EB8100816D62F317
:100810001F4181657047F0B50A680F2692FAA2F26F
:10082000B2FA82F303248AE001259D402A407ED05B
:100830004D68012D01D0022D20D18D68876892FA74
:10084000A2FCBCFA8CFC4FEA4C0E04FA0EFC27EA20
:100850000C0792FAA2FCBCFA8CFC4FEA4C0C05FA8D
:100860000CF52F438760CF680D68D0F804C02CEAE0
:10087000050C7D434CEA050CC0F804C00F69D0F8A4
:100880000CC092FAA2F5B5FA85F54FEA450E04FAC6
:100890000EF52CEA050C92FAA2F5B5FA85F56D0075
:1008A000AF404CEA070CC0F80CC04D68022D2FD1A8
:1008B000FF2A15D8D1F814C0056A92FAA2F7B7FA40
:1008C00087F7BF0006FA07F7BD4392FAA2F7B7FA17
:1008D00087F7BF000CFA07FC45EA0C05056217E034
:1008E000D1F814E0476A150A95FAA5FCBCFA8CFC0D
:1008F0004FEA8C0C06FA0CFC95FAA5F5B5FA85F5CD
:10090000AD0027EA0C070EFA05FE47EA0E0747621C
:100910004D68076892FAA2FCBCFA8CFC4FEA4C0CBA
:1009200004FA0CFE27EA0E0792FAA2F200E005E0B4
:10093000B2FA82F2520095402F4307605B1C0A68AE
:1009400032FA03F57FF470AF0020F0BD012391FA75
:10095000A1F193FAA3F3B1FA81F1B3FA83F310B5DD
:10096000C91ACBB2D0F8B813044CE35C0F249C40F6
:10097000A1439A401143C0F8B81310BD34270008B2
:10098000012391FAA1F193FAA3F3B1FA81F1B3FA39
:1009900083F3C91A084B10B5C9B200F56C705B5CE3
:1009A00018440368044C2A34615C04248C40A3433B
:1009B0008A401343036010BD0A270008012391FAFF
:1009C000A1F193FAA3F3B1FA81F1B3FA83F3C91A4F
:1009D000084B10B5C9B200F56C705B5C1844036835
:1009E000044C2A34615C18248C40A3438A4013438E
:1009F000036010BD0A270008012391FAA1F193FAC0
:100A0000A3F3B1FA81F1B3FA83F3C91A084B10B515
:100A1000C9B200F56C705B5C18440368044C2A345E
:100A2000615C03248C40A3438A401343036010BDE0
:100A30000A270008012391FAA1F193FAA3F3B1FA6E
:100A400081F1B3FA83F3C91A084B10B5C9B2E43087
:100A500033F8113018440368044C6A34615C402454
:100A60008C40A3438A401343036010BDF226000864
:100A7000012391FAA1F193FAA3F3B1FA81F1B3FA48
:100A800083F3C91A084B10B5C9B2E43033F81130FA
:100A900018440368044C6A34615C30248C40A343DE
:100AA0008A401343036010BDF2260008012391FA27
:100AB000A1F193FAA3F3B1FA81F1B3FA83F3C91A5E
:100AC000084B10B5C9B2E43033F81130184403684C
:100AD000044C6A34615C08248C40A3438A4013436D
:100AE000036010BDF2260008012391FAA1F193FAE8
:100AF000A3F3B1FA81F1B3FA83F3C91A084B10B525
:100B0000C9B2E43033F8113018440368044C6A3435
:100B1000615C04248C40A3438A401343036010BDEE
:100B2000F2260008012391FAA1F193FAA3F3B1FA96
:100B300081F1B3FA83F3C91A034BC9B2C03033F859
:100B400011100A5070470000DA260008012391FABC
:100B5000A1F193FAA3F3B1FA81F1B3FA83F3C91ABD
:100B6000034BC9B2BC3033F811100A507047000073
:100B7000DA260008012391FAA1F193FAA3F3B1FA5E
:100B800081F1B3FA83F3C91A084B10B5C9B2E43046
:100B900033F8113018440368044C6A34615C022451
:100BA0008C40A3438A401343036010BDF226000823
:100BB00091FAA1F1B1FA81F11139054AC9B2E430D3
:100BC00032F811100844016821F480710160704707
:100BD0004A26000891FAA1F1B1FA81F11039094AC7
:100BE000C9B232F811201044026822F020020260DB
:100BF0000268044B083B5B5CC02199408A43026059
:100C0000704700004A26000891FAA1F1B1FA81F17B
:100C10001139054AC9B2803032F811100844016810
:100C200021F04001016070474A26000891FAA1F1C5
:100C3000B1FA81F11039054AC9B232F811100844ED
:100C4000016821F480610160704700004A260008B5
:100C500091FAA1F1B1FA81F11139054AC9B2803096
:100C600032F811100844016821F4007101607047E6
:100C70004A26000891FAA1F1B1FA81F11039054A2A
:100C8000C9B232F811100844016821F40061016012
:100C9000704700004A26000891FAA1F1B1FA81F1EB
:100CA0001039054AC9B232F811100844016841F000
:100CB00000610160704700004A26000810B591FAF3
:100CC000A1F3B3FA83F3103BD0F8A04303F01F0362
:100CD0008C439A401443C0F8A04310BD10B591FA5C
:100CE000A1F1B1FA81F111390C4CC9B2803034F85C
:100CF00011104FF44054084492FAA2F194FAA4F26D
:100D0000B1FA81F1B2FA82F2891A026801F01F0188
:100D10008C40A2438B401A43026010BD4A26000853
:100D200091FAA1F1B1FA81F11039054BC9B233F84A
:100D300011100844016821F0180111430160704747
:100D40004A2600084FF4003391FAA1F193FAA3F375
:100D5000B1FA81F1B3FA83F3C91A064BC9B2EC3088
:100D600033F811100844016821F0100111430160AB
:100D7000704700004A26000891FAA1F1B1FA81F10A
:100D80001039054BC9B233F811100844016821F03D
:100D9000C0611143016070474A26000891FAA1F131
:100DA000B1FA81F130B510390A4BC9B233F81130BC
:100DB00018440368084C074D54F82140083DA343EC
:100DC000695C02F0C0048C4002F020010C43234314
:100DD000036030BD4A2600086827000891FAA1F197
:100DE000B1FA81F11039064BC9B2143033F8111041
:100DF000084401686FF30F01114301607047000060
:100E00004A26000891FAA1F1B1FA81F11039054B97
:100E1000C9B233F811100844016821F007011143E9
:100E2000016070474A26000891FAA1F1B1FA81F1F8
:100E30001039064BC9B2183033F811100844016854
:100E400021F0FF0111430160704700004A260008AD
:100E500091FAA1F1B1FA81F11139034BC9B2D43041
:100E600033F811100A5070474A26000891FAA1F190
:100E7000B1FA81F11039094B10B5C9B233F811300C
:100E800018440368054CF63454F82140A343034C3E
:100E90000F3C615C8A401343036010BD4A26000882
:100EA00091FAA1F1B1FA81F11039094B10B5C9B22B
:100EB00033F8113018440368054CCA3454F8214003
:100EC000A343034C163C615C8A401343036010BD8E
:100ED0004A26000810B5026822F001020260D1E93A
:100EE0000232046843EA022224F4F85414430460F2
:100EF0004A680261026842F001020260826822F4DC
:100F0000004282608B690A6984681A436FF30A049D
:100F1000144384600A691AB1826842F40042826014
:100F20000A68036823F44013134303604969426865
:100F300022F400420A434260002010BD4FF47A714F
:100F4000B0FBF1F14FF0E020491E416100218161C9
:100F5000052101617047000070B500241F49204D34
:100F60004FF40046C02803D0B0F5407F1CD019E0F4
:100F7000D1F8880000F0C00040F440004038B0F5DF
:100F8000400027D0402804D080281CD106E0044629
:100F900008E000F083F828B12C4603E000F086F862
:100FA00000B13446204670BDD1F888000D4900F4E8
:100FB000407040F0407040180CD0B0F5807FE8D011
:100FC000B0F5007FEAD001F0BDF801F08BF801F038
:100FD00099F8DCE701F0B6F8D9E70000001002400C
:100FE0000024F40000FFFFFC70B5002429492A4DBD
:100FF0004FF40046032804D00C281AD030282FD0F4
:1010000040E0D1F888006FF4403100F0030040F474
:10101000403040180AD0012836D002282ED001F0E6
:1010200091F801F05FF801F07DF817E001F08AF81F
:1010300014E0D1F8880000F00C0040F44020001FBC
:10104000B0F54020F2D004281ED0082816D000BFEA
:1010500001F078F801F046F801F054F8044611E088
:10106000D1F8880000F0300040F440101038B0F59E
:101070004010DBD0102807D02028E9D100F016F866
:1010800000B13446204670BD00F008F80028F9D0C1
:101090002C46F7E7001002400024F40002480068E4
:1010A000C0F3802070470000001002400248D0F8D2
:1010B0009000C0F3400070470010024003498A6866
:1010C00022F0F00202438A607047000000100240E4
:1010D0000149086070470000040000202DE9F0413C
:1010E000044600680D46012610F0010F52D129690F
:1010F000A868EA69084369691143084321682E4AD0
:10110000114008432060E868616821F440510143C0
:101110006160A869A16821F440710143A16027487A
:10112000844201D1032008E02548844201D10C20EB
:1011300003E02448844203D13020FFF755FF0BE041
:101140002148844201D1C02004E0204884421AD1C1
:101150004FF44070FFF700FFA8B1696899B12A68A1
:101160000026EB690B2A0ED8194FD2B2B3F5004F07
:1011700057F82220B0FBF2F00FD000EB5100B0FB8B
:10118000F1F080B2E0602888E16A80B221F00F01BE
:101190000143E1623046BDE8F081400000EB5100C0
:1011A000B0FBF1F081B24FF6F07201EA0200C1F338
:1011B00042010843E6E70000F369FFEF0038014011
:1011C0000044004000480040004C004000500040F7
:1011D0009427000808B54FF0E0210A690092421CEC
:1011E00000D0401C0A69D20300D5401E0028F9D166
:1011F00008BD00002DE9F04194B000241094119432
:10120000182106A81294FFF76AF80C940D940E9416
:10121000182168460F94FFF762F8644850F8881F59
:10122000032521F0405141F000514FF002080160C8
:101230004FF40050FFF714FA0120FFF711FA0126CE
:10124000CDE900654FF09047694638460494FFF7B2
:10125000E2FACDE90085694638460494FFF7DBFAE7
:101260005348D0F8001821F0FF0141F00501C0F803
:10127000001850490A78825844F210039A430B78B8
:10128000C2500A7882580B7822F44052C2500A7831
:1012900082580B7842F02002C2500A7882580B78AC
:1012A00022F04002C2500A7882580B7842F0800245
:1012B000C2500A7882580B7822F4407242F480724D
:1012C000C2500A788258097822F4406242F480625F
:1012D00042504FF0A0471094119410A93846129430
:1012E000FFF736F94FF4D4600690CDE90764CDE9F5
:1012F000094506A938460B94FFF740F9D7F8C00016
:101300006FF30D00C7F8C000386920F480303861F1
:10131000386940F20341884338612804CDE90C0460
:101320000CA92548FFF7D8F8F86820F4406040F48D
:101330008060F860B86821490840B860B868204902
:10134000084040F08050B8601E481F490068B0FB5C
:10135000F1F000EB800080000A21B0FBF1F000E02A
:10136000401E0028FCD1194C062122463846FFF7C2
:101370002FF9022221463846FFF73BF97F2221460A
:101380003846FFF745F9640022460C213846FFF73E
:101390001FF9022221463846FFF72BF97F2221460A
:1013A0003846FFF735F914B0BDE8F081001002406F
:1013B000000002402C26000800030050C0FFFF5F21
:1013C000C0FFFF7F04000020400D03000200300436
:1013D00010B58CB014216846FEF781FF182105A8CE
:1013E000FEF77DFF0120FFF747F908200590032055
:1013F0000024069005A909944FF09040FFF70BFADE
:101400004FF4807000904020CDE9010403946946B8
:101410000D480494FFF760F90C480D490068B0FBD3
:10142000F1F0C821484300E0401E0B900028FBD19A
:101430000848016821F480010160001F016821F45F
:10144000800101600CB010BD0402014004000020C6
:1014500080841E000404014010B58CB0142168463D
:10146000FEF73DFF182105A8FEF739FF0420FFF71E
:1014700003F90220059003200024069005A9099491
:101480001348FFF7C8F94FF4807000904020CDE971
:101490000104039469460F480494FFF71DF90E48B0
:1014A0000E490068B0FBF1F0C821484300E0401E3F
:1014B0000B900028FBD10A48016821F0005101601F
:1014C000001F016821F0005101600CB010BD000048
:1014D00000080048080201400400002080841E002B
:1014E00004040140054808B5816C41F0080181649D
:1014F000806C00F00800009008BD00000010024061
:1015000070B58EB01C216846FEF7E9FE182107A8C9
:10151000FEF7E5FE4FF48030FFF7BAF80120FFF741
:10152000B7F80024102003250B94CDE907054FF0F0
:10153000904607A93046FFF76EF920200B94CDE9BD
:10154000070507A93046FFF766F91B4D1B4E002221
:1015500029463046FFF740F92422C0200092CDE909
:1015600001204001CDE9030405946A46294630462E
:101570000694FFF7E5F829463046FFF7D9F82946E3
:101580003046FFF7CCF80E4C002221463046FFF7DC
:1015900023F94FF4006003906A4621463046FFF776
:1015A000CFF821463046FFF7C3F821463046FFF713
:1015B000B6F80EB070BD0000010011020008005026
:1015C000F200423570B58EB01C216846FEF787FEEA
:1015D000182107A8FEF783FE4FF40030FFF758F8F4
:1015E0000120FFF755F840200790032000240890C1
:1015F00007A90B944FF09040FFF70DF90D4E0E4DDB
:10160000002231462846FFF7E7F80094019402943F
:10161000049405946A46314628460694FFF790F8EC
:10162000286820F00200286031462846FFF777F846
:101630000EB070BD01001102000C005030B587B033
:101640001C216846FEF74BFE4FF48020FFF720F880
:101650001B4D1C4C002229462046FFF7BDF82422D2
:10166000C0200092CDE90120174803900220049089
:1016700001200590002006906A4629462046FFF783
:101680005FF829462046FFF753F829462046FFF722
:1016900046F80E4D002229462046FFF79DF80C48DB
:1016A00003906A4629462046FFF74AF82946204615
:1016B000FFF73EF829462046FFF731F807B030BD66
:1016C000010011020010005000180A00F20042351B
:1016D00000080A0010B50420FEF7AAFFBDE810407C
:1016E0000120FEF7A5BF00002DE9F04F87B01821BB
:1016F0006846FEF7F4FD2020FEF7A6FF0420FEF763
:10170000A3FF0120FEF7A0FF0220FEF79DFF484E39
:101710000120B0624FF090490420C9F82800202031
:10172000B062DFF810810420C8F828004020B062C1
:101730008020B0624000B0620701C9F82870B7622B
:10174000C8F818704FF4005AC8F818A001250024F2
:101750000095CDE901540394694630460494FFF79F
:101760005AF84FF0040BCDF800B0CDE901540394C2
:10177000694648460494FFF74EF820200090CDE9D2
:1017800001540394694630460494FFF744F8CDF8B9
:1017900000B0CDE901540394694640460494FFF734
:1017A0003AF80097CDE90154039469464046049401
:1017B000FFF731F8CDF800A0CDE901540394694654
:1017C00040460494FFF727F840200090CDE90154EB
:1017D0000394694630460494FFF71DF8802000907A
:1017E000CDE901540394694630460494FFF713F899
:1017F00028020090CDE901540394694630460494D0
:10180000FFF709F80097CDE901540394694648466B
:101810000494FFF700F80097CDE90154039469465A
:1018200030460494FEF7F7FF07B0BDE8F08F0000E4
:1018300000080048000400482DE9F04F87B0182147
:101840006846FEF74CFDFE48016E41F0806101667E
:10185000006E00F0806006900220FEF725FF082051
:10186000009002260024CDE901644FF00D09F54FE8
:10187000CDE904494D46694638460394FEF7CBFF4F
:1018800010200090CDE90164694638460394CDE903
:101890000445FEF7C0FFEC480068C0F30220C0F129
:1018A0000701042900D90421021D072A01D20020C2
:1018B00000E0C01E01228A40521E02F00101814058
:1018C0000801E24981F80004E0494FF480604239A0
:1018D000B346C1F80001DE4DD5F8CC0340F00E0050
:1018E000C5F8CC03D5F88803C0F300400028F9D030
:1018F000D5F8B80320F04040C5F8B80301222021F4
:101900002846FFF779F8002220212846FFF738F80B
:10191000082220212846FFF751F8012220212846DD
:10192000FFF714F8002240212846FFF765F800224F
:1019300040212846FFF724F8082240212846FFF7D7
:101940003DF8002240212846FFF700F802228021BE
:101950002846FFF751F8002280212846FFF710F8AB
:10196000102280212846FFF729F8012280212846ED
:10197000FEF7ECFF4FF48077002239462846FFF748
:101980003BF8002239462846FEF7FAFF1022394676
:101990002846FFF713F8002239462846FEF7D6FFFF
:1019A000AC4806213B040278AB481044A94A0A3AE5
:1019B0001478A94A3C3222440468A64E463636685A
:1019C000B443A44E14363678B1400C43046010681A
:1019D000A0491E31096888439E490A3109788B4025
:1019E00018431060DFF86C821F2008F16E08002198
:1019F00098F80020FEF760FC04460E46002098F898
:101A000000200146FEF758FCD5F80024A24302430B
:101A1000C5F80024D5F80404B0430843C5F804040D
:101A20004FF40038012241462846FFF7EBF908221F
:101A300091032846FFF774F945F2E47279022846CB
:101A4000FFF7CCF9002279022846FFF7EDF90022D2
:101A500079022846FFF70AFA002279022846FFF7A2
:101A600071F97802790290FAA0F091FAA1F1B0FA36
:101A700080F0B1FA81F1774C401AC0B2183C34F8CA
:101A800010107348EC3001440A6822F480120A6096
:101A900079027A0291FAA1F192FAA2F2B1FA81F1F5
:101AA000B2FA82F2891AC9B234F8111001440A68F4
:101AB00022F480320A6079027A0291FAA1F192FA54
:101AC000A2F2B1FA81F1B2FA82F2891AC9B234F8FB
:101AD000111001440A6822F004020A6079027A02B5
:101AE00091FAA1F192FAA2F2B1FA81F1B2FA82F27C
:101AF000891AC9B234F8111001440A6822F00202AE
:101B00000A6079027A0291FAA1F192FAA2F2B1FA8C
:101B100081F1B2FA82F2891AC9B234F8111008447C
:101B2000016841F001010160002279022846FFF7B7
:101B300023F979022846FFF74DF80022790228465A
:101B4000FFF72CF979022846FFF794F87902284626
:101B5000FFF76CF879022846FFF79EF87A021146E3
:101B60002846FFF79DF9BA0551132846FFF770F98B
:101B7000780290FAA0F0B0FA80F01138C0B234F8D0
:101B80001010334880300844016841F04001016082
:101B900079022846FFF70CF8002279022846FFF761
:101BA0008DF8D5F88403DA4640F00200C5F88403C6
:101BB00079022846FFF74CF8780290FAA0F0B0FAC4
:101BC00080F01038C0B234F8101021481C3008449E
:101BD00001686FF30F0141F46171016000234FF45C
:101BE000405279022846FFF779F8780290FAA0F07F
:101BF000B0FA80F01038C0B234F810101448243015
:101C0000084401686FF30F0141F4AA7101600022DA
:101C100001212846FEF7AEFF082201212846FEF7E3
:101C200095FF0E4E012132462846FEF77BFF00222B
:101C300001212846FEF758FF0022012128460FE027
:101C400000100240000400480CED00E04AE000E013
:101C50000068014062260008806B01400400080013
:101C6000FEF724FF002201212846FEF701FF002293
:101C700001212846FEF7DEFE002202212846FEF75B
:101C800079FF082202212846FEF760FF3246022132
:101C90002846FEF747FF002202212846FEF724FFD0
:101CA000002202212846FEF701FF002202212846D9
:101CB000FEF7DEFE002202212846FEF7BBFE00BF33
:101CC000D5F88803C0F300400028F9D0012256055A
:101CD00031462846FFF796F8082231462846FFF796
:101CE0001FF84BF2B03231462846FFF777F8002252
:101CF00031462846FFF798F8002231462846FFF77C
:101D0000B5F8002231462846FFF71CF8002231467C
:101D10002846FFF731F831462846FEF75BFF0022E0
:101D200031462846FFF73AF831462846FEF7A2FF2B
:101D300031462846FEF77AFF31462846FEF7ACFFCB
:101D4000424631462846FFF7ABF84FF4A032314601
:101D50002846FFF77DF831462846FEF755FF314605
:101D60002846FEF725FF002231462846FEF7A6FF4B
:101D7000D5F8840340F02000C5F884033146284696
:101D8000FEF766FF96FAA6F0B0FA80F01038C0B2FF
:101D900034F810105748084401686FF30F0141F4FC
:101DA0007A61016000234FF4404231462846FEF735
:101DB00095FF00BFD5F88803C0F300400028F9D094
:101DC0000122960531462846FFF71CF808223146C5
:101DD0002846FEF7A5FF4DF2804231462846FEF721
:101DE000FDFF002231462846FFF71EF8002231464B
:101DF0002846FFF73BF8002231462846FEF7A2FFAF
:101E0000002231462846FEF7B7FF31462846FEF746
:101E1000E1FE002231462846FEF7C0FF3146284643
:101E2000FEF728FF31462846FEF700FF31462846D8
:101E3000FEF732FF424631462846FFF731F80022CE
:101E400031462846FFF704F831462846FEF7DCFE07
:101E500031462846FEF7ACFE96FAA6F0B0FA80F0BE
:101E60001138C0B234F810102248B8300844016864
:101E700041F400710160002231462846FEF71EFF42
:101E8000D5F8840340F04000C5F884033146284665
:101E9000FEF7DEFE0420FEF707FC0120FEF704FC3F
:101EA000032500244FF40078CDE90445CDE9025420
:101EB000CDE9008A564669460F48FEF7ACFCCDE9ED
:101EC00000764F46CDE90254CDE904474FF09049E2
:101ED00069464846FEF79FFCCDE90447CDE9025428
:101EE000CDE9008669464846FEF795FC07B0BDE897
:101EF000F08F00002C68014000080048F0B58FB05A
:101F00001C2106A8FEF7EBF918216846FEF7E7F951
:101F10002A480168002421F4405101600120FEF7A5
:101F2000CFFB0220FEF7CCFB4FF4004000900225CF
:101F3000CDE90154042701260597CDE903646946DC
:101F40004FF09040FEF767FC80200090CDE90154EF
:101F50000597CDE9036469461948FEF75CFC17480C
:101F60008838816D41F400118165806D099400F419
:101F700000100D9013480894CDE906400A940B9484
:101F80000C94114C06A92046FEF7A4FF606840F0AF
:101F900000706060E06840F2FE718843E060E068D5
:101FA00020F40040E060206820F4002020602068D9
:101FB00020F4003020600FB0F0BD00008810024017
:101FC00000040048FBA7A03000540040F0B58FB0DB
:101FD000202106A8FEF783F918216846FEF77FF94D
:101FE0003B4850F8881F002421F0300140F83C198C
:101FF000C16841F48021C160C16801F480210E9163
:10200000016841F0040101600068022500F004004D
:102010000E904FF480600090CDE9015407262D4FBB
:10202000CDE90446694638460394FEF7F4FBA8025E
:102030000090CDE90154CDE9044669463846039441
:10204000FEF7E9FB4FF4E130CDE906400C20CDE985
:102050000A40089409940C940D941F4C06A920463C
:10206000FFF73CF8002204F1080000BF50E8001F11
:1020700062F35F7140E80013002BF7D1002104F1F7
:10208000080000BF50E8002F22F0606242EA41627F
:1020900040E80023002BF5D1206820F0005020609C
:1020A000606820F490406060A06820F02A00A06082
:1020B000206840F001002060E069C0F34050002833
:1020C000FAD0E069C0F380500028F5D00FB0F0BD21
:1020D000001002400008004800480040FEE7FEE70C
:1020E0007047000005498968054A01F0F0010909B7
:1020F000515C01F01F01C840704700000010024011
:10210000C427000805498968054A01F4E06102EB2B
:102110001121097801F01F01C840704700100240EA
:10212000D427000805498968054A01F4605102EB8B
:10213000D121097801F01F01C8407047001002400A
:10214000D42700081549886800F00C031448042BB4
:102150000DD04210082B09D00C2B08D1CB6803F00E
:102160000303022B05D0032B03D101E01046704777
:102170001046CA68C2F306224243C868C96800F024
:10218000F003012000EB1313B2FBF3F201F0C06186
:1021900000EB51604000B2FBF0F0704700100240CD
:1021A0000024F4007047704738B52A48016821F0D0
:1021B0000F0141F004010160016801F00F010429E1
:1021C000FAD1254850F8801F21F480710160234C1A
:1021D000206840F4803020602068C0F34040002830
:1021E000FAD0E16845F213501D4A11400843E060FF
:1021F000E06840F08070E060206840F0807020600F
:102200002068C0F340600028FAD0A06840F00300C6
:10221000A0608020FEF752FFA06800F00C000C28A0
:10222000FAD155200090401E0090FCD1FEF746FFE9
:10223000A06820F4E060A060A06820F46050A06076
:10224000084C2046FEF77AFE2046BDE83840FEF7EF
:102250003FBF00000020024000700040001002401C
:102260000C80FFF980FE210A0248016841F47001E8
:102270000160704788ED00E0FEE790ED011A30EE56
:10228000600A80ED021AD0ED001AC0ED011AD0EDFF
:102290000B0A20EE200A80ED000A90ED092AD0ED0D
:1022A000040AD0ED0A2A90ED053A22EE202A02EE29
:1022B000832AD0ED062A22EE800AD0ED072A02EE0C
:1022C000A10AD0ED081A01EE810A90ED0C1A32EE47
:1022D000000AB4EEC01AF1EE10FA06D990ED0D1A0C
:1022E000B4EEC01AF1EE10FA02DB80ED031A01E041
:1022F00080ED030AC0ED050A90ED030A80ED040AA3
:102300007047D1ED001AC0ED091AD1ED011AC0EDE8
:102310000A1AD2ED001AC0ED061AD2ED011AC0ED6C
:10232000071AD2ED021AC0ED081A2C3080EC030A0D
:1023300070470000984886B0016E41F001010166C7
:10234000016E01F001010591816D41F080518165BF
:10235000806D00F080500590904801684FF6FF02B4
:1023600011408F4A41F44071114301600068C0F38D
:102370000220C0F10702042A00D90422011D072906
:1023800001D2002000E0C01E01219140491E814081
:102390000801844981F8140D83488068824940F41B
:1023A00080408860FFF700FFFFF79EF9FFF792F982
:1023B000FEF720FFFFF740FAFFF70AF8FFF74CF8A7
:1023C000FFF79EF8FFF7FEF8FFF798FDFFF7FEFD19
:1023D000FFF734F9FFF786F874480068744908403D
:1023E000744908437149086073487449007840583B
:1023F0007149724A6FF30F00097840F0020088506B
:102400006D49121D6E48097888506B49121D6D4840
:1024100009788850684869490078091F0858664952
:10242000664A40F001000978121F50504FF0A0405A
:102430008068654908404FF0A04188608868634C17
:10244000204040F0805088600120FEF7C3FE4FF02E
:10245000A04080685E4908404FF0A04140F0004035
:1024600088600120FEF7B6FE4FF0A04080684FF074
:10247000A0412040401C88600120FEF7ABFE4FF0D9
:10248000A040C0684FF0A04140F00300C8608868D9
:102490002040001D8860504C4E4D206840F00100E7
:1024A00020604FF40066324629462046FEF72EF99A
:1024B0004A4F206840F4803020603246394620463A
:1024C000FEF724F9002229462046FEF79BF9002258
:1024D00039462046FEF796F9324629462046FEF751
:1024E00087F9324639462046FEF782F93C480168B2
:1024F00041F001010160001D016841F0010101602E
:102500006420FEF767FE3748016841F400710160FE
:10251000016841F4806101603349086840F4C400F7
:102520000860A00290FAA0F0B0FA80F0224A1038B9
:10253000C0B2103232F810202B480C301044026820
:1025400042F010020260D1F8940340F40070C1F828
:10255000940319489FED251AF6EE000AD0E90212FD
:10256000CDE903122030B7EE000A07C88DE8070056
:102570006A4603A91E48FFF7C4FE74004FF0904559
:102580004FF4FA76AC613046FEF724FEAC6230467A
:10259000FEF720FEF6E70000001002400CED00E020
:1025A0000000FA050FE000E000700040000C02405F
:1025B00000F887FF600008000026000804000240C1
:1025C0004000005000000020C0FFFF5FC0FFFF7F01
:1025D000C0FFFF3F0100110200100050F200423521
:1025E000040201400020024000680140CDCC4C3D77
:1025F000100000204FF04070E1EE100A704700001C
:10260000081C3044586C8094EF78313F210E9D3E79
:102610000000800000018001000280020003000031
:10262000B9A2A73D05FFE13BC88299BD081C304413
:10263000586C80940C0000000000000200000000B4
:102640000000000101010101010000008000000103
:1026500080010002800200030004080C3C3C3C3C6A
:102660003C3C000000007C7C7C7C7C7C000000000A
:1026700000050A10151A101316190004080C10147E
:10268000FFFFFFFFFFFFFFFFFFFFFFFFFFFFFFFF5A
:102690001F000000E0030000007C000000001F009D
:1026A0000000E0030000007C00000700000038008C
:1026B0000000C0010000000E0700000070000000D4
:1026C000000700000070000000000700000070001C
:1026D00000060C121820262C32380000080080005A
:1026E00088000001080180018801000208028002C0
:1026F00088020000000080008000000100018001CD
:10270000800100020002800280020000000000043C
:1027100004040404000000200000FF010000FF0189
:102720000000FF010000FF010000FF010000FF01A9
:102730000000FF0100060C121800060C1218000021
:10274000000000C0000000F0000000F0000000F0F9
:10275000000000F0000000F0000000F00010001089
:102760000010001000100010E0000000A0010000A8
:10277000A0010000A0010000A0010000A0010000D5
:10278000A001000000008000000180010002800222
:10279000000300000100000002000000040000002F
:1027A00006000000080000000A0000000C00000005
:1027B0001000000020000000400000008000000029
:1027C00000010000000000000000000001020304FE
:1027D000060708090000000001020304FC270008A6
:1027E0000000002010000000140200080C2800085F
:1027F00010000020980600003002000800000000D1
:0C2800000024F4000000D00700000000DD
:04000005080001D915
:00000001FF
