:020000040800F2
:1000000020080020D50000086535000815310008DB
:1000100000000000000000000000000000000000E0
:100020000000000000000000000000006B35000828
:10003000000000000000000069350008BD35000820
:10004000E700000800000000E7000008E7000008E3
:10005000E7000008E7000008E7000008E7000008E4
:1000600000000000E7000008E7000008E7000008C3
:10007000E7000008E7000008E700000800000000B3
:10008000E70000080000000000000000E700000892
:1000900000000000E7000008E7000008E700000893
:1000A000E7000008E7000008E7000008E700000894
:1000B000E700000800000000000000000000000051
:1000C0000348854600F052FC00480047D53F000831
:1000D000200800200448804704480047FEE7FEE768
:1000E000FEE7FEE7FEE7FEE747360008C10000082E
:1000F000D2B201E00270401C491EFBD270470022C0
:10010000F6E710B513460A4604461946FFF7F0FF16
:10011000204610BDF8B502464A40D40F42004B00BD
:1001200052085B089A4202D20246084611464A002B
:1001300023D0C30D4A00DDB2120EAD1A202D35DAE0
:1001400049020126490AF6058A19002C00D05242BC
:1001500020214F1B1146B9402A411018C20D9A4266
:1001600021D0002C17D0012D08DCDA05801AD20F1F
:100170008019D207DBB200F0B4FAF8BDDA05801AB4
:10018000012340001B06C01880185A428018CA0F6D
:100190001043490007E04908C2071143DA05801AF5
:1001A00080194008801800F094FAF8BD610001221F
:1001B000511A001BF7E70122D2075140AAE701229A
:1001C000D2075040A6E7024670B54A40D30FDB077E
:1001D00040002DD04A002AD0010E140E0002120257
:1001E0000919400A520A8418E50104465443000ADA
:1001F000120A2E045043A4194219200CC543AA1810
:10020000120C0125AD03521C521912047F3924042B
:1002100000D0521C104301D44000491EC2B20C064B
:10022000C0092018401C4008802A02D003E00020AA
:1002300070BD40084000002900DA0020184370BD5E
:1002400070B502464A40D50F40004A00ED0740080D
:100250005208002814D0002A12D0C40DD30D410238
:100260000120C0055202490A520AE41A091812185C
:100270007D34914201D3641C00E04900002C01DA76
:10028000002070BD0023914201D3891A0343400826
:1002900049000028F7D100290AD0914202D101215A
:1002A000C90705E0914201D2012101E00121C943C2
:1002B000E005C018401900F00CFA70BDF0B5074613
:1002C0000846584087B0C00F049048000E465900B9
:1002D00040084908BC1A884105D2384631461E46B6
:1002E00017460B4602465800400810434CD0300DCC
:1002F000039040055900400D490D0590401A0290A9
:10030000402872DA18030121000B09050843019007
:1003100004980092002805D001995242002088419B
:1003200000920190029840210A1A0199009800F069
:10033000ADF905460C466B4607CB00F0B7F9C0197E
:100340007141039A0E0D0023D71756401A467A4082
:10035000164344D0049A002A2DD0029A012A039A07
:1003600015DC1205C01A914101263605001C7141A9
:10037000D20F059ED2070093019202962A46234689
:1003800000F0F5F907B0F0BD38463146FAE716053A
:10039000224A0F46B218C01AB74101210905001CB4
:1003A0004F4100187F41114618187941E20F104360
:1003B0006D19644113E0E2076D0815436408C20734
:1003C0001443039A01261205C01A91413605001CF8
:1003D0007141CE07400830434908C01851412A46B0
:1003E000234600F0B7F9CDE7FFE70498012240006B
:1003F000C117121A00238B4104983146C417381ACA
:10040000A141EEE730B40124E407634030BC55E776
:1004100030B40124E407614030BC4FE70000E0FF46
:10042000F0B51FB488B00B99099800244840099989
:10043000C00F490049080991C0070B990090490075
:1004400049080B9109990898A64608431CD00B99B6
:100450000A98084318D0099801244000420D48002A
:10046000410D099824050003000B204309900B98C7
:100470000003000B20430B9050181C494018002229
:1004800001901446104605E0002001460DB0F0BD75
:10049000032801DA034600E003239C46C11A0AAE92
:1004A0000AE05F0008ADED5B4F00F75B7D4300277E
:1004B000AA187C41491C5B1E6145F2DD410004AB7A
:1004C0005A522104120C0A43240C401C0828DFDB7A
:1004D000019802900099704601910090059B049A42
:1004E0000799069800F043F9D0E700000DFCFFFFE4
:1004F0000122D207002800DB101A002900DB511A64
:10050000814201D801207047002070470122D207A4
:10051000002800DB101A002900DB511A814201D3A8
:100520000120704700207047C217C10F504010B51E
:100530004018CA079623002100F0D3F810BDC20F5F
:10054000D207400040080BD0C10D0723DB01C918BA
:1005500040020905400A1143C20840071143704791
:10056000002001467047CB0FDB07490010B5490852
:1005700002460A4307D00A0D07240903E401090BC8
:10058000121B002A01DC002010BDC900440F0C43DF
:10059000C100E018D205801800F09BF810BD70B5BE
:1005A0000446002903D000202022012310E0002867
:1005B00001D00020C043C046C0460DE02546D540CE
:1005C0008D4205D30D469540641B1D46954040194C
:1005D0001546521E002DF1DC214670BD70B5002578
:1005E00004462E46002911D0002C01DA0125444290
:1005F000002901DA012649422046FFF7D0FFB54223
:1006000000D04042002D00D0494270BD002C02DADB
:100610000121C90702E0002C00DD03490846C0465D
:10062000C046214670BD0000FFFFFF7FF0B51FB43C
:100630000646002082B005464024019100901BE050
:10064000019922460F46304600F0A8F9049A059B0E
:10065000801A994110D310461946224600F016F828
:10066000361A8F410197224601200021009F00F099
:100670000DF838184D4100902046641E0028DFDC3C
:10068000019B00982946324607B0F0BD10B5202ADC
:1006900004DB0146203A9140002010BD9140202308
:1006A0009C1A0346E3401943904010BD10B5202A20
:1006B00006DBCB170846203A1041C1170B4306E072
:1006C0000B461341D0402024A21A914008431946FA
:1006D00010BD002904DA401C490001D14008400047
:1006E000704770B40024050C05D11024000402D119
:1006F000002921D01124050E01D100020834050F74
:1007000001D10001241D850F01D18000A41C002807
:1007100001DB4000641C002908D020252E1B0D465B
:10072000F540A14000D001212943084301061B1BCD
:10073000000ADB1D02D5002070BC7047DB051818CD
:1007400080180029F8DA401C4900F5D170BC400837
:100750004000704710B5002B08DA0024401C6141AE
:1007600092185B411A4301D14008400010BDF0B51A
:100770001FB482B005460C0003D0084603F006FE05
:1007800002E003F003FE2030024600902146284696
:10079000FFF77CFF049B059A04460F46184311435C
:1007A000084314D0184610431BD0009840210A1A61
:1007B0001846059900F0F2F805460E46009A05998C
:1007C0000498FFF763FF084305D0012004E02046AA
:1007D000394607B0F0BD0020C11705430E432C4336
:1007E000374300990E986305401A7905E40A002200
:1007F0000C43FD0A0A3002D500200146E9E7010555
:10080000101969410C9C0D9D00196941FFF7A2FF69
:10081000DFE70000F0B50C465C4085B0E40FE4076C
:1008200003944C0000266408590094464908024687
:100830000296224321D062460A431ED06200570D21
:100840004A000E032303550D012402462C492405BA
:10085000781B1B0B360B4018234326436146009040
:100860001C46501AB44103D30098401C009002E08B
:10087000921800985B41002803DA0020014605B079
:10088000F0BD0020012109050746864611E06446B7
:100890001D46141BB54106D36546521BB341744631
:1008A00007430C43A646CD07400849082843921841
:1008B0005B4105460D43EAD11046184313D060460C
:1008C000194650407140084306D06046101AB341A3
:1008D00006D20122002306E000220123DB0702E00A
:1008E0000122D2435310009874460105381C61411F
:1008F000029C039D00196941FFF72CFFBFE7000030
:10090000FD0300004A0009030123090B1B051943DD
:100910000A4B10B5520D9A4202DA0020014610BD72
:10092000064B34339A4203DC9A1A00F037F810BDB4
:10093000034BD218FFF7AAFE10BD0000FF03000012
:10094000CDFBFFFF10B5002904DB0124E407404282
:100950008C412146002B04DB1C460123DB0752425D
:10096000A341994200D1904210BD00001CB5094836
:1009700000900948019005460126009C05E0E368C7
:1009800007CC33430C3C98471034AC42F7D3FFF705
:100990009BFB00001C4D00083C4D000810B5202AB0
:1009A00004DB0846203AD040002110BD0B46D3405E
:1009B000D0402024A21A91400843194610BD80B5AA
:1009C00082B001900198806A00900098806D50215B
:1009D000084240D1FFE70099886D0122520210437E
:1009E00088650098006802F03AFC00282FD0FFE7E5
:1009F0000098807E00282AD1FFE7009800680068F0
:100A00000007002822D5FFE70098006802F01EFCCE
:100A100000280FD1FFE70098016848680C22904336
:100A200048600098806D01210843090288430099BD
:100A300088650AE00099886D202210438865009936
:100A4000C86D01221043C865FFE7FFE7FFE7009884
:100A500000F0DAFC10E00098806DC006002804D594
:100A6000FFE7009800F0D8FC05E00098006D416BAE
:100A700001988847FFE7FFE702B080BD80B582B0EC
:100A800001900198806A00900099886D402210437F
:100A900088650099C86D04221043C865009800F06D
:100AA000BBFC02B080BD80B582B001900198806A25
:100AB0000090009800F0ACFC02B080BD80B584B01E
:100AC00002900298006802F09EFB00900298006875
:100AD00002F0A2FB00284BD0FFE70098002847D186
:100AE000FFE702980068806805210840012809D1C5
:100AF000FFE70298006802F00FFB029801680320EC
:100B000008600CE00299886D102210438865029AF3
:100B1000D16D01200143D16503A908702CE001F0DB
:100B2000B5F90190FFE7029800688068C0070028C7
:100B30001DD0FFE701F0AAF90199401A032815D347
:100B4000FFE7029800688068C00700280DD0FFE723
:100B50000299886D102210438865029AD16D012098
:100B60000143D16503A9087006E0FFE7DBE7FFE773
:100B700003A900200870FFE703A8007804B080BD37
:100B800080B584B00290002000900298006802F0C6
:100B900043FB00286BD1FFE7029800688068384962
:100BA00008420DD0FFE70299886D10221043886536
:100BB000029AD16D01200143D16503A908705AE062
:100BC0000298006802F0C0FAEE4802F0FEFA000255
:100BD000002811D5FFE72B4800682B49FFF7DFFC01
:100BE000401C0090FFE70098002804D0FFE7009821
:100BF000401E0090F7E7FFE70298407E012835D0BD
:100C0000FFE701F043F90190FFE7029800680068F0
:100C1000C007002829D1FFE70298006802F0FCFA1B
:100C2000002805D1FFE70298006802F08DFAFFE77F
:100C300001F02CF90199401A032815D3FFE7029817
:100C400000680068C00700280DD1FFE70299886D91
:100C5000102210438865029AD16D01200143D165AD
:100C600003A9087007E0FFE7CFE7FFE7FFE703A965
:100C700000200870FFE703A8007804B080BDC046DC
:100C80001700008004000020400D030080B582B0F2
:100C900001900199086C032290430B4A8018486424
:100CA0000198007808381421FFF779FC0090019929
:100CB0000648886400991F2001400120884001995E
:100CC000C86402B080BDC0460008024080080240EF
:100CD00082B00190019840683F2108400090009840
:100CE000800008494018019908650199064848653F
:100CF0000098411E03200140012088400199886529
:100D000002B07047FC0802404009024084B00390E2
:100D10000291019200930399C86C896C4860039812
:100D2000006D002805D0FFE70399886D496D486084
:100D3000FFE70398006C1C21084001228240104903
:100D40000868104308600098039909684860039890
:100D50008068102809D1FFE7019803990968886025
:100D6000029803990968C86008E002980399096825
:100D70008860019803990968C860FFE704B070476C
:100D80000400024081B0EFF3108072B60090FFE7DC
:100D9000FEE7000080B58AB008900020069003901E
:100DA000FFE708985421405C012804D1FFE709A916
:100DB00002200870DEE00899542201208854FFE7E1
:100DC000FFE70898FFF77AFE07A9087008980068FF
:100DD00002F02AFA002800D0BCE00898806D0221B9
:100DE000084301210902884308998865089800682A
:100DF000C06862490840059008980168C868604A60
:100E00001040C86000200490FFE70498072834D8F9
:100E1000FFE70898006802F0B4FAFFE70898006856
:100E200002F0EAF900281BD0FFE70698401C069064
:100E300006985549884212D3FFE70898806D102123
:100E400008430221884308998865FFE708995422DE
:100E500000208854FFE709A9012008708AE0DDE737
:100E60000898006802F096F901460398401803902C
:100E7000FFE70498401C0490C7E704990398FFF724
:100E80008EFB03900898006802F06AF908980068E1
:100E900002F089F900281DD1FFE73A4802F08CF9E9
:100EA00001900198800C072813D3FFE70198800C6C
:100EB000C11E012088400090009840080090FFE784
:100EC0000098002804D0FFE70098401E0090F7E744
:100ED000FFE7FFE708980068039902F00FFA089807
:100EE000006802F025F900F0D1FF0290FFE70898B2
:100EF000006802F099F900281DD0FFE700F0C6FF56
:100F00000299401A032815D3FFE70898006802F0F9
:100F10008BF900280DD0FFE70899886D1022104347
:100F20008865089AD16D01200143D16509A908702F
:100F300020E0FFE7DBE7059A08980168C8681043DE
:100F4000C8600898806D01210843022188430899F0
:100F5000886505E00899886D102210438865FFE7D1
:100F6000FFE70899542200208854FFE7079809A951
:100F70000870FFE709A800780AB080BD0380000070
:100F8000FC7FFFFF0827014000F2020080B59CB003
:100F90001A90199118A90020087016901A980069E3
:100FA0000121C907884206D0FFE71A980069FB496A
:100FB000884201D1FFE700E0FFE7FFE71A985421DC
:100FC000405C012804D1FFE71BA90220087008E259
:100FD0001A99542201208854FFE7FFE71A98006805
:100FE00002F034F9002800D0E8E11998406802289E
:100FF00000D193E11A9800690121C907884206D0FF
:10100000FFE71A980069F949884207D1FFE71A9863
:1010100000681999096802F02DF91AE11A98016E11
:10102000199843681F2213400F229A40914315914B
:1010300000684003002808D1FFE7199800681F21C5
:1010400089060840800E1490E7E019980078C007E0
:10105000002803D0FFE700201390DBE01998007808
:101060008007002803D5FFE701201290CFE01998F0
:1010700000784007002803D5FFE702201190C3E065
:10108000199800780007002803D5FFE70320109087
:10109000B7E019980078C006002803D5FFE70420C0
:1010A0000F90ABE0199800788006002803D5FFE781
:1010B00005200E909FE0199800784006002803D57F
:1010C000FFE706200D9093E01998007800060028AD
:1010D00003D5FFE707200C9087E019984078C007F8
:1010E000002803D0FFE708200B907BE01998407898
:1010F0008007002803D5FFE709200A906FE01998C0
:1011000040784007002803D5FFE70A20099063E0F4
:10111000199840780007002803D5FFE70B200890B6
:1011200057E019984078C006002803D5FFE70C2047
:1011300007904BE0199840788006002803D5FFE718
:101140000D2006903FE0199840784006002803D50E
:10115000FFE70E20059033E019984078000600283C
:1011600003D5FFE70F20049027E019988078C00787
:10117000002803D0FFE7102003901BE01998807827
:101180008007002803D5FFE7112002900FE019988F
:101190000168012082041140122000230093914233
:1011A000019001D00098019001980290FFE7029809
:1011B0000390FFE703980490FFE704980590FFE78A
:1011C00005980690FFE706980790FFE707980890B4
:1011D000FFE708980990FFE709980A90FFE70A9847
:1011E0000B90FFE70B980C90FFE70C980D90FFE732
:1011F0000D980E90FFE70E980F90FFE70F98109054
:10120000FFE710981190FFE711981290FFE71298EE
:101210001390FFE713981490FFE715981499199A03
:1012200052681F231A40914008431A99086619987A
:1012300040688008401C1A99C969884208D8FFE7AD
:101240001A980068199A5168126802F031F8FFE79D
:10125000FFE71A980068199A1168926802F05CF822
:101260001998C0780006002857D5FFE7604801F0BC
:10127000ACFF1790199800685E49884221D1FFE7BA
:1012800017A88078000600281BD4FFE717990120D3
:10129000C0050143564802F053F8594800685949BF
:1012A000FFF77DF901460C2048430C301690FFE70C
:1012B0001698002804D0FFE71698401E1690F7E70E
:1012C0002AE0199800684C4988420ED1FFE717A818
:1012D000C078C007002808D1FFE717990120000651
:1012E0000143434802F02CF815E01998006843497F
:1012F00088420ED1FFE717A880784006002808D45E
:10130000FFE71799012080050143394802F018F8DA
:1013100000E0FFE7FFE7FFE7FFE74EE01A9800690C
:101320000121C907884206D0FFE71A9800692F49B2
:10133000884207D1FFE71A9800681999096801F0F7
:10134000A7FFFFE71998C0780006002834D5FFE70B
:10135000274801F03AFF17901998006825498842FC
:1013600008D1FFE717990120C0058143204801F00B
:10137000E7FF20E0199800681F49884208D1FFE77D
:101380001799012000068143FA4801F0D9FF11E0C6
:1013900019980068194988420AD101E004000080C8
:1013A0001799012080058143F24801F0C9FF00E050
:1013B000FFE7FFE7FFE7FFE7FFE708E01A99886D1F
:1013C00020221043886518A901200870FFE7FFE775
:1013D0001A99542200208854FFE718981BA9087016
:1013E000FFE71BA800781CB080BDC0460400008049
:1013F00008270140001000B0004000B8002000B4F1
:1014000004000020400D030081B0009001B070473F
:1014100081B0009001B0704781B0009001B070477A
:1014200080B58AB0089007A9002008700690059042
:1014300003900898002804D1FFE709A9012008704B
:101440008BE108983C21405C012801D1FFE7FFE7D0
:1014500008980069002809D0FFE708980069012171
:101460004905884201D1FFE7FFE7FFE70898806D53
:1014700000280AD1FFE7089800F080F908990020B9
:10148000C865089954228854FFE70898006801F05D
:10149000D3FE002816D1FFE70898006801F06CFE23
:1014A000B0480068B049FFF77AF84000801C03900C
:1014B000FFE70398002804D0FFE70398401E03903D
:1014C000F7E7FFE70898006801F0B6FE00280DD1A5
:1014D000FFE70899886D102210438865089AD16D3E
:1014E00001200143D16507A90870FFE7089800684B
:1014F00001F0ACFE04900898806DC006002800D56D
:101500001EE10498002800D01AE10898806D02219D
:1015100008430121090288430899886508980068F2
:1015200001F07AFE002800D0B0E008988168027EC1
:1015300092031143427ED2031143827E5203114330
:10154000026B531E9A4112031143C2681143029168
:10155000C07C0006002807D5FFE708980069012134
:10156000C9078843019003E0012040050190FFE78F
:1015700002990198014308982C22805C40000143A5
:1015800006980843069008982021405C012817D14E
:10159000FFE70898807E002806D1FFE70698012122
:1015A0000904084306900AE00899886D2022104338
:1015B00088650899C86D01221043C865FFE7FFE7F9
:1015C0000898406A00280BD0FFE70898416A072274
:1015D00092011140806A0143069808430690FFE794
:1015E00008980068C068614908400699084308994E
:1015F0000968C86008984168032292071140C06CCE
:10160000014305980843059008983C21405C012857
:1016100011D1FFE7089948680322920710400A6C2D
:1016200010434A6C1043896C084305990843012113
:1016300008430590FFE70898006800694C49084096
:1016400005990843089909680861089840680321CA
:101650008907884219D0FFE7089840680121890767
:10166000884212D0FFE7089840680121C9078842E4
:101670000BD0FFE73F4908680F2293049843089A6C
:1016800052681A4080180860FFE7FFE70899086869
:101690004A6B002101F062FE089908688A6B36499E
:1016A00001F05CFE08980069002808D1FFE708985F
:1016B0000168886A0F22D2431043886219E00898B3
:1016C000006901214905884211D1FFE708980068A7
:1016D000806A0899C8698000021F1C2002400F2000
:1016E000C04390400A6E10430968886200E0FFE73B
:1016F000FFE708980068002101F070FD0899496B28
:1017000088420CD1FFE708990020C8650898806DD1
:101710000121084302218843089988650FE0089851
:10172000806D102108430221884308998865089A32
:10173000D16D01200143D16507A90870FFE708E0DA
:101740000899886D10221043886507A90120087048
:10175000FFE7079809A90870FFE709A800780AB011
:1017600080BDC04604000020400D03000102DEFFE2
:1017700002FCFF1F0827014004FFFF0780B592B05D
:1017800011900020039010900F900E900D900C90EF
:101790000B900A90099008900790069011980068A5
:1017A0002C49884254D1FFE7012080030690002095
:1017B0000A9006A800F03EFC002803D0FFE7FFF7E0
:1017C000E1FAFFE7FFE724480268012109050A431F
:1017D00002600068084005900598FFE7FFE71F4892
:1017E000026801210A4302600068084004900498DE
:1017F000FFE703200C900D90002001900E90052033
:10180000009000070CA900F0C3F9009A0199144850
:101810000290144B036042608160C16080220261CB
:10182000012213024361920282612022C26101629D
:1018300000F0A8F8002803D0FFE7FFF7A3FAFFE7BE
:10184000FFE711980649016511988862FFE7FFE7F5
:1018500012B080BD0024014040100240341002400C
:10186000E00100200800024080B586B0049003919A
:1018700002920498006801F0E9FC00286DD1FFE7AE
:10188000FFE704985421405C012804D1FFE705A933
:101890000220087069E00499542201208854FFE76F
:1018A000FFE704980068C068C007002813D1FFE76D
:1018B0000498006801F0B0FC002805D0FFE7049808
:1018C000006801F029FCFFE704980168C86801225C
:1018D0001043C860FFE70498FFF752F9014601A8DA
:1018E00001700078002837D1FFE70498806D01214E
:1018F000090208431F49084004998865049900209B
:10190000C8650498016D1C48C8620498016D1B48A5
:1019100008630498016D1A484863049801681C2004
:101920000860FFE70499542200208854FFE70498D8
:10193000016848681022104348600499086D0968DE
:101940004031039A029B00F09FF801A908700498A7
:10195000006801F0C5FCFFE703E001A90220087060
:10196000FFE7019805A90870FFE705A8007806B011
:1019700080BDC046FEF1FFFFBF090008A70A0008AE
:101980007D0A000880B584B002900298002804D136
:10199000FFE703A9012008706EE00298009000683C
:1019A000374940181421FEF7FAFD009980000864B9
:1019B0000299252202208854029801680868314A59
:1019C00010400860029801908268C1680A4301696A
:1019D0000A4341690A4381690A43C1690A43016AAA
:1019E0000A4301680868104308600298FFF74EF93F
:1019F0000298806801218903884204D1FFE7029997
:101A000000204860FFE7029948683F221040496C77
:101A100008600299C86C896C486002984068002888
:101A200011D0FFE70298406804280CD8FFE702981D
:101A3000FFF74EF90298016D002008600299886D49
:101A4000496D486007E002990020086502994865E1
:101A500002998865FFE702990020C8630299252250
:101A600001208854FFE70299242200208854FFE7D0
:101A700003A900200870FFE703A8007804B080BD28
:101A8000F8FFFDBF0F80FFFF80B586B00490039183
:101A900002920193694600200870FFE70498242110
:101AA000405C012804D1FFE705A9022008706BE023
:101AB0000499242201208854FFE7FFE70498252198
:101AC000405C01284FD1FFE7049925220220885469
:101AD00004990020C86304980168086801229043B3
:101AE000086004980399029A019BFFF70FF9049884
:101AF000006B002807D0FFE70498016808680E22F1
:101B0000104308600CE004980168086804229043C0
:101B100008600498016808680A2210430860FFE71B
:101B20000498406C0068C003002808D5FFE70498BB
:101B3000416C08680122120210430860FFE7049814
:101B4000006D002808D0FFE70498016D08680122A5
:101B5000120210430860FFE7049801680868012238
:101B6000104308600CE004998020C863FFE70499E3
:101B7000242200208854FFE7694601200870FFE70F
:101B8000009805A90870FFE705A8007806B080BD99
:101B90008AB00990089100200790FFE70898006834
:101BA0000799C840002800D147E108980068079AC3
:101BB00001219140084006900698002800D138E1A4
:101BC0000898406803210840012807D0FFE70898DB
:101BD00040680321084002282CD1FFE7099880685B
:101BE000059007984000032181400598884305909F
:101BF0000898C168079840008140059808430590FF
:101C0000059809998860099840680590079801210E
:101C10008140059888430590089840681021084045
:101C2000010907988140059808430590059809998E
:101C30004860FFE70898406803210840032816D051
:101C4000FFE70998C068059007984000032181408C
:101C5000059888430590089881680798400081405E
:101C600005980843059005980999C860FFE708980A
:101C7000406803210840022820D1FFE7099807990E
:101C8000C90889004018006A059007984007C00EEF
:101C90000F218140059888430590089801690798AD
:101CA0004007C00E814005980843059005980999A2
:101CB000079AD208920089180862FFE7099800681D
:101CC000059007984100032002468A4005999143F8
:101CD000059108994968014007984000814005989E
:101CE000084305900598099908600898807980074D
:101CF000002800D19CE007980321884350494058B0
:101D0000059007988007C00E0F21814005988843F1
:101D10000590099805210907884203D1FFE70020B3
:101D2000049022E009984749884203D1FFE7012047
:101D3000039017E009984449884203D1FFE7022045
:101D400002900CE00999414A032005230093914237
:101D5000019001D00098019001980290FFE702984D
:101D60000390FFE703980490FFE704990798800722
:101D7000C00E8140059808430590059807990322F5
:101D800091432F4A8850324800680590069905987B
:101D90008843059008988079C006002805D5FFE79C
:101DA0000699059808430590FFE7059828490860BB
:101DB000284800680590069905988843059008987A
:101DC00080798006002805D5FFE706990598084325
:101DD0000590FFE705981F4908601F4800680590B7
:101DE000069905988843059008988079800700280F
:101DF00005D5FFE70699059808430590FFE7059884
:101E000015490860154800680590069905988843AB
:101E1000059008988079C007002805D0FFE706994B
:101E2000059808430590FFE705980C490860FFE70F
:101E3000FFE70798401C0790B0E60AB07047C0461D
:101E4000601802400004005000080050000C0050D0
:101E50000018024004180240841802408018024012
:101E600083B0029001A801806846027000780028C3
:101E700005D0FFE701A800880299886104E001A865
:101E8000008802998862FFE703B070470548006840
:101E90007047C046314802780249086880180860D7
:101EA0007047C046D002002080B582B001A9002052
:101EB00008700B49086801221202104308600320D1
:101EC00000F010F8002804D0FFE701A901200870F5
:101ED00002E000F047F8FFE701A8007802B080BDFB
:101EE0000020024080B584B0039002A90020087051
:101EF0001A480078002829D0FFE74B480068019075
:101F0000164801787D20C000FEF749FB0146019884
:101F1000FEF745FB00F0C4FE002812D1FFE703984E
:101F2000032809D8FFE703990022D04300F036F8D0
:101F300003980B49086003E002A901200870FFE73D
:101F400003E002A901200870FFE703E002A90120D5
:101F50000870FFE702A8007804B080BD08000020E8
:101F60000C00002082B0FFE70B48026801210A4301
:101F700002600068084001900198FFE7FFE7B3485E
:101F80000268012109070A430260006808400090C6
:101F90000098FFE702B070474010024080B584B05F
:101FA000034603A803700291019200214056029952
:101FB00001F068FF04B080BD80B584B00290A449F0
:101FC0000868032252029043029A10430860029864
:101FD0000121490288421ED1FFE71348016806200B
:101FE00048431249FEF7DBFA401C0190FFE7104816
:101FF0000068400500280DD5FFE70198002804D0AF
:10200000FFE70198401E019003E003A90320087038
:1020100005E0ECE7FFE703A900200870FFE703A84D
:10202000007804B080BDC0460400002040420F008C
:102030001470004080B588B0079004A90020087093
:1020400003A90870079880788007002800D49DE0D5
:1020500002A9002008707D480068C000002810D444
:10206000FFE7FFE779480268012109070A43026098
:102070000068084001900198FFE702A9012008705C
:10208000FFE7734908680122120210430860FFF756
:10209000FDFE0590FFE76E480068C00500280CD4DF
:1020A000FFE7FFF7F3FE0599401A032804D3FFE783
:1020B00004A90320087000E0EDE704A800780028D8
:1020C00053D1FFE7F5480068032109020840069054
:1020D0000698002817D0FFE70698079949698842B3
:1020E00011D0FFE7ED4908680322120290430690E1
:1020F00008680122120410430860086890430860D1
:1021000006980860FFE706A80078C007002818D0E6
:10211000FFE7FFF7BBFE0590FFE7E0480068800798
:1021200000280DD4FFE7FFF7B1FE0599401ADF49FB
:10213000884204D3FFE704A90320087000E0ECE71D
:10214000FFE704A8007800280AD1FFE7D349086810
:10215000032212029043079A52691043086003E079
:10216000049803A90870FFE703E0049803A9087026
:10217000FFE702A80078012807D1FFE73349086884
:102180000122120790430860FFE7FFE707980078F5
:10219000C007002809D0FFE72E49086803229043B2
:1021A000079A526810430860FFE707980078800696
:1021B00000280AD5FFE72749086803221203904345
:1021C000079A926810430860FFE707984078400636
:1021D000002818D5FFE71F4908680322920790439B
:1021E000079A12691043086007980069012189075E
:1021F000884207D1FFE718490868012212041043FA
:102200000860FFE7FFE7079840780007002818D527
:10221000FFE710490868032292039043079AD268A7
:10222000104308600798C06801218903884207D1DC
:10223000FFE7F04908680122120410430860FFE735
:10224000FFE703A8007808B080BDC0463C100240FC
:1022500000700040541002400C10024080B584B061
:10226000029001910298002804D1FFE703A9012000
:1022700008700CE1019888490968072211408842DA
:1022800021D9FFE78449086807229043019A104347
:102290000860FFF7FBFD0090FFE77F48006807211B
:1022A0000840019988420DD0FFE7FFF7EFFD009944
:1022B000401A7E49884204D3FFE703A9032008702F
:1022C000E5E0EAE7FFE7029800788007002817D5E5
:1022D000FFE7029800784007002807D5FFE7C449C8
:1022E00008680722120310430860FFE7C049086826
:1022F0000F2212029043029A926810430860FFE78F
:1023000002980078C007002872D0FFE70298406862
:1023100001280BD1FFE7BA4800688003002804D4E5
:10232000FFE703A901200870B1E03DE00298406892
:1023300002280BD1FFE7B24800688001002804D4CE
:10234000FFE703A901200870A1E02CE00298406893
:1023500000280BD1FFE7AA4800684005002804D4F4
:10236000FFE703A90120087091E01BE00298406894
:1023700003280BD1FFE74A4800688007002804D4EF
:10238000FFE703A90120087081E00AE043480068E4
:102390008007002804D4FFE703A90120087076E035
:1023A000FFE7FFE7FFE7FFE791490868072290434F
:1023B000029A526810430860FFF768FD0090FFE73B
:1023C0008B4800683821084002994968C900884252
:1023D0000DD0FFE7FFF75AFD0099401A33498842B4
:1023E00004D3FFE703A90320087050E0E8E7FFE704
:1023F00001982949096807221140884221D2FFE744
:102400002549086807229043019A10430860FFF7A6
:102410003DFD0090FFE72048006807210840019932
:1024200088420DD0FFE7FFF731FD0099401A1F49A0
:10243000884204D3FFE703A90320087027E0EAE7F6
:10244000FFE702980078400700280AD5FFE76849AF
:102450000868072212039043029AD268104308606A
:10246000FFE700F03FF8624909680F2212021140AD
:102470008A090C4989581F221140C8400E4908603A
:1024800009480068FFF72EFD03A90870FFE703A8BD
:10249000007804B080BDC046002002405C100240BD
:1024A00060100240844C00080C00002089130000DA
:1024B000014800687047C0460400002080B582B023
:1024C000FFF7F6FF019000F069FF01460198090B44
:1024D0008A00034989581F221140C84002B080BDBC
:1024E000C44C000880B588B0414800688006400FA1
:1024F00000280FD1FFE7424800680721C9020840C1
:10250000C10A01208840039003993C48FEF747F830
:10251000029069E03648006838210840082803D155
:10252000FFE7354802905EE03148006838210840F6
:1025300010283CD1FFE72F48016803221140069183
:102540000068702108400009401C04900698019022
:10255000022812D0FFE7019803280FD1FFE7049962
:102560002548FEF71CF80146224800687F22120227
:102570001040000A484307900EE0FFE704991F4807
:10258000FEF70DF801461B4800687F22120210403A
:10259000000A48430790FFE716480068400F401CB8
:1025A000059007980599FDF7FAFF02901AE0104888
:1025B000006838210840202804D1FFE70120C0032B
:1025C00002900EE00A48006838210840182804D11B
:1025D000FFE77D200002029002E000200290FFE76A
:1025E000FFE7FFE7FFE7FFE7029808B080BDC046BE
:1025F000081002400C10024000127A000024F4007F
:102600000010024010B588B006900698002804D14A
:10261000FFE707A9012008702AE306980078C007A1
:10262000002800D188E0FC48006838210840049068
:10263000FA4800680321084003900498102804D148
:10264000FFE70398032804D0FFE70498082810D177
:10265000FFE7F84800688003002809D5FFE70698DF
:102660004068002804D1FFE707A901200870FFE2B5
:1026700061E0FFE70698406801210904884207D11C
:10268000FFE7EC49086801221204104308601DE0CE
:10269000069840680521090488420BD1FFE7E54907
:1026A0000868012293041843086008681204104364
:1026B00008600AE0DF4908680122130498430860B3
:1026C0000868920490430860FFE7FFE7FFE7069879
:1026D0004068002817D0FFE7FFF7D8FB0590FFE719
:1026E000D4480068800300280CD4FFE7FFF7CEFB36
:1026F0000599401A652804D3FFE707A9032008704D
:10270000B6E2EDE716E0FFF7C1FB0590FFE7C94829
:102710000068800300280CD5FFE7FFF7B7FB059999
:10272000401A652804D3FFE707A9032008709FE239
:10273000EDE7FFE7FFE7FFE706980078800700284E
:1027400000D4A3E0B4480068382108400490B3489E
:1027500000680321084003900498102804D1FFE783
:102760000398022804D0FFE7049800283BD1FFE734
:10277000B04800684005002809D5FFE70698C06802
:10278000002804D1FFE707A90120087070E2AA49D8
:1027900008687F2212029043069A5269120210437F
:1027A00008600498002811D1FFE7A24802680721B9
:1027B000C9028A43069B1B691A43026000680840ED
:1027C000C10A9E48C8409E490860FFE79D480068CE
:1027D000FFF788FB002804D0FFE707A90120087055
:1027E00046E2FFE751E00698C06800282FD0FFE7D7
:1027F000904908680722D2029043069A1269104352
:10280000086008680122120210430860FFF73EFBCF
:102810000590FFE787480068400500280CD4FFE7D3
:10282000FFF734FB0599401A032804D3FFE707A9F3
:10283000032008701CE2EDE77F4908687F2212023E
:102840009043069A52691202104308601CE07949CD
:1028500008680122120290430860FFF717FB0590F9
:10286000FFE774480068400500280CD5FFE7FFF734
:102870000DFB0599401A032804D3FFE707A903209D
:102880000870F5E1EDE7FFE7FFE7FFE7069800785E
:102890000007002856D5FFE7F748006838210840B0
:1028A000182810D1FFE7F74800688007002809D5ED
:1028B000FFE706988069002804D1FFE707A90120F7
:1028C0000870D5E13DE00698806900281CD0FFE73C
:1028D000EC490868012210430860FFF7D7FA059019
:1028E000FFE7E8480068800700280CD4FFE7FFF7FF
:1028F000CDFA0599401A032804D3FFE707A903205E
:102900000870B5E1EDE71BE0DE490868012290435D
:102910000860FFF7BBFA0590FFE7DA480068800718
:1029200000280CD5FFE7FFF7B1FA0599401A0328F4
:1029300004D3FFE707A90320087099E1EDE7FFE75B
:10294000FFE7FFE7069800784007002800D4CAE0B8
:1029500002A900200870C8480068382108402028D3
:1029600010D1FFE7CA4800688007002809D5FFE7B3
:1029700006988068002804D1FFE707A901200870A5
:1029800076E1AFE0C0480068C000002810D4FFE73F
:10299000FFE7BD480268012109070A430260006899
:1029A000084001900198FFE702A901200870FFE7A5
:1029B000B6480068C00500281DD4FFE7B349086881
:1029C0000122120210430860FFF760FA0590FFE74A
:1029D000AE480068C00500280CD4FFE7FFF756FAA0
:1029E0000599401A032804D3FFE707A903200870BC
:1029F0003EE1EDE7FFE7FFE706988068012806D192
:102A0000FFE7A349086801221043086027E0069801
:102A10008068052818D103E0081002400C1002401D
:102A20009B4908680422104308600868012210438B
:102A3000086013E000100240041002400024F4007B
:102A4000040000200C0000209149086801229043F6
:102A500008600868042290430860FFE7FFE7FFE78B
:102A600006988068002818D0FFE7FFF70FFA059056
:102A7000FFE787480068800700280DD4FFE7FFF7CD
:102A800005FA0599401A8349884204D3FFE707A94C
:102A900003200870ECE0ECE717E0FFF7F7F905908A
:102AA000FFE77B480068800700280DD5FFE7FFF7A8
:102AB000EDF90599401A7749884204D3FFE707A941
:102AC00003200870D4E0ECE7FFE702A800780128B3
:102AD00007D1FFE76C49086801221207904308609C
:102AE000FFE7FFE7FFE70698C069002800D1BBE0D9
:102AF0006148006838210840102876D0FFE7069822
:102B0000C06902284ED1FFE75D490868012212061C
:102B100090430860FFF7BAF90590FFE7584800684E
:102B2000800100280CD5FFE7FFF7B0F90599401A9E
:102B3000032804D3FFE707A90320087098E0EDE716
:102B40004E490868554A1040069B1A6A5C6A22433F
:102B50009C6A24022243DC6A22431B6B1A43104303
:102B60000860474B18680122140620431860086863
:102B7000120710430860FFF789F90590FFE7404806
:102B80000068800100280CD4FFE7FFF77FF9059962
:102B9000401A032804D3FFE707A90320087067E061
:102BA000EDE721E0364908680122120690430860EB
:102BB000FFF76CF90590FFE73148006880010028B5
:102BC0000CD5FFE7FFF762F90599401A032804D3F3
:102BD000FFE707A9032008704AE0EDE727490868E6
:102BE0002D4A10400860FFE73DE00698C0690128C3
:102BF00004D1FFE707A90120087039E01F480068E9
:102C000003900398032108400699096A884224D159
:102C1000FFE70398702108400699496A88421CD151
:102C2000FFE703987F21090208400699896A090293
:102C3000884212D1FFE703981F21490408400699F2
:102C4000C96A884209D1FFE703980721490708406C
:102C50000699096B884204D0FFE707A90120087094
:102C600006E0FFE7FFE7FFE707A900200870FFE79E
:102C700007A8007808B010BD081002400C100240F0
:102C800000100240601002403C1002400070004002
:102C90005C10024089130000FCFFFEEF8C80C11F16
:102CA00080B582B00190019800F060FC02B080BD58
:102CB00083B00190FFE701988421405C012804D192
:102CC000FFE702A9022008702BE00199842201206D
:102CD0008854FFE7FFE70199882224208850019853
:102CE0000068006800900198036818680121884313
:102CF00018600098490788430090019900204866B1
:102D00000098019909680860019920208850FFE720
:102D10000199842200208854FFE702A9002008704E
:102D2000FFE702A8007803B0704780B586B0049032
:102D30000391FFE704988421405C012804D1FFE758
:102D400005A90220087034E00499842201208854E7
:102D5000FFE7FFE704998822019224208850049815
:102D60000068006802900498016808680122904396
:102D70000860049800688068072149068843039921
:102D80000843049909688860049800F05DFC019A82
:102D90000298049909680860049920208850FFE788
:102DA0000499842200208854FFE705A900200870B8
:102DB000FFE705A8007806B080BD80B586B0049016
:102DC0000391FFE704988421405C012804D1FFE7C8
:102DD00005A90220087034E0049984220120885457
:102DE000FFE7FFE704998822019224208850049885
:102DF0000068006802900498016808680122904306
:102E0000086004980068806807214907884303998F
:102E10000843049909688860049800F015FC019A39
:102E20000298049909680860049920208850FFE7F7
:102E30000499842200208854FFE705A90020087027
:102E4000FFE705A8007806B080BD80B582B000908D
:102E50000098002804D1FFE701A9012008704AE08A
:102E600000988069002801D0FFE700E0FFE70098A4
:102E700088214058002808D1FFE7009984220020CB
:102E80008854009800F03CF8FFE70099882224203D
:102E900088500098016808680122904308600098F3
:102EA000806A002804D0FFE7009800F017FCFFE7D5
:102EB000009800F0CDFD012804D1FFE701A9012011
:102EC000087018E00098016848680922D20290430F
:102ED00048600098016888682A22904388600098BA
:102EE00001680868012210430860009800F0A4FC03
:102EF00001A90870FFE701A8007802B080BD0000BA
:102F000080B590B00F90002001900E900D900C9025
:102F10000B900A90099008900790069005900490F5
:102F20000F9800681C49884234D1FFE701200490C3
:102F30000020059004A8FFF77DF8002803D0FFE7E4
:102F4000FDF720FFFFE7FFE714480268012189032E
:102F50000A4302600068084003900398FFE7FFE718
:102F60000F48026801210A4302600068084002908D
:102F70000298FFE7032040020A9002200B900020F5
:102F80000C900D9001200E90052000070AA9FEF775
:102F9000FFFDFFE710B080BD003801404010024047
:102FA0003410024010B58AB00890079106A802803C
:102FB0000593089888214058202800D09FE0079862
:102FC000002805D0FFE706A80088002804D1FFE705
:102FD00009A90120087096E008988068012109037A
:102FE000884210D1FFE70898006900280BD1FFE75D
:102FF00007A80078C007002804D0FFE709A901202E
:10300000087080E0FFE70899902200208850089916
:10301000882221208850FEF739FF029006980899EF
:103020005422885206980899562288520898806837
:103030000121090388420AD1FFE7089800690028A6
:1030400005D1FFE7002004900798039004E007985B
:10305000049000200390FFE7FFE708985621405AAC
:10306000002831D0FFE70898029B05990091802144
:10307000002200F053FE002808D0FFE708998822BC
:103080002020885009A9032008703CE004980028FB
:103090000BD1FFE7039800881D490840089909688B
:1030A00088620398801C039008E0049800780899CF
:1030B000096888620498401C0490FFE7089956222A
:1030C000885A401E8852C8E70898029B05990091CB
:1030D0004021002200F022FE002808D0FFE70899D6
:1030E00088222020885009A9032008700BE0089945
:1030F00088222020885009A90020087003E009A92F
:1031000002200870FFE709A800780AB010BDC04689
:10311000FF010000FFE7FEE781B0009000988068A3
:1031200075490840801C0099886001B07047C0460E
:1031300081B00090009880686F490840801C009919
:10314000886001B07047C04681B0009000988068E8
:1031500069490840401C0099886001B07047C0462A
:1031600081B000900098806863490840401C009935
:10317000886001B07047C04681B0009000988068B8
:103180000121090708435C4908400099886001B0A3
:103190007047C04681B000900098B42140587F210C
:1031A000084001B0704781B0009000980069032189
:1031B0008907084001B0704781B00090009800680E
:1031C0000F218904084001B0704781B00090009839
:1031D000006807218905084001B0704782B001905E
:1031E00000910198406900990422114007228A4009
:1031F0001040C84002B0704781B0009000988068CD
:10320000C00F01B0704781B0009000988068022123
:103210000840400801B0704781B000900098806875
:103220000121084001B0704781B00090009880688B
:103230000121084001B0704781B00090009880687B
:10324000012109070840000F01B0704781B00090CC
:103250000098806804210840800801B0704781B060
:1032600000900098C068032189020840414248410B
:1032700001B0704782B001900091009A034802406B
:103280000199886A1043886202B07047FFFF070007
:1032900082B0019000910098C24304480243019912
:1032A000886A1040886202B07047C0460000F8FF8C
:1032B00083B00290019100920298806A019A1F21C6
:1032C0000A400F2319469140884300999B061940F4
:1032D000890E914008430299886203B0704700004C
:1032E00081B000900098806803490840001D009953
:1032F000886001B07047C046E8FFFF7F82B0019050
:1033000000910198B42280587F2188430099084396
:103310000199885002B0704783B0029001910092E9
:103320000298406901990A02904300991140034AAA
:10333000114008430299486103B0704700FFFF073E
:1033400082B00190009101980068072189058843A7
:10335000009908430199086002B0704783B0029059
:103360000191009202984069019A04210A400721C4
:10337000914088430099914008430299486103B005
:10338000704781B00090009880680121C907084308
:10339000172188430099886001B07047024800688F
:1033A00007210903084070470810024080B586B025
:1033B0000021019105910491039124480290244A2F
:1033C000026041608160C1600122530503610423F2
:1033D00043610176417682760223C3614162816254
:1033E0002C23C25401630723436383633C23C254E9
:1033F0000C220264802242648164C164FEF710F8EA
:10340000002803D0FFE7FDF7BDFCFFE70120039094
:103410000020049005900D4803A9FDF7B7FD002892
:1034200003D0FFE7FDF7AEFCFFE70A480390042056
:103430000490064803A9FDF7A9FD002803D0FFE783
:10344000FDF7A0FCFFE706B080BDC0467C01002070
:10345000002401400200000481B0FFE70548026833
:1034600001210A4302600068084000900098FFE7CD
:1034700001B070473810024080B58AB00020099032
:103480000890079006900590FFE715480268042110
:103490000A4302600068084004900498FFE7FFE7D1
:1034A0000F48026801210A43026000680840039047
:1034B0000398FFE7052000070290042100910022F5
:1034C0000192FEF7CDFC009A019902980592012223
:1034D00006920791089105A9FEF75AFB0AB080BD34
:1034E0003410024080B582B01C4800901C49016035
:1034F000E12149024160002101918160C1600161C7
:103500000C2242618161C161016241628162FFF707
:103510009CFC002803D0FFE7FDF734FCFFE70F48D1
:103520000021FFF74AFC002803D0FFE7FDF72AFC43
:10353000FFE70A480021FFF7F8FB002803D0FFE768
:10354000FDF720FCFFE70548FFF7B2FB002803D09A
:10355000FFE7FDF717FCFFE702B080BD3C0200204B
:1035600000380140FFE7FEE77047704780B584B040
:1035700002900298401E000E002803D0FFE70120B1
:10358000039011E00298401E094908600020019054
:10359000C043032100F076FC019806490860064A02
:1035A000072111600390FFE7039804B080BDC04677
:1035B00014E000E018E000E010E000E080B5FEF765
:1035C00069FC80BD10B594B007A802903421FCF7C7
:1035D00096FD002000900690059004900390012035
:1035E00001904002FEF7E8FC009B0199029802223C
:1035F00007920C020A940B9340230C930E920F92A5
:10360000102210920C22119289041291052149076F
:103610001391FEF7F7FF002803D0FFE7FDF7B2FB99
:10362000FFE70720039002200490002105910691F6
:1036300003A8FEF713FE002803D0FFE7FDF7A2FB67
:10364000FFE714B010BD704770B58AB009900998B3
:10365000406E002808D1FFE709996A2201208852AC
:1036600009996822885233E008A90191082008705E
:1036700007A9087009980068806807225206104060
:10368000400E06AA02921070099800688068420FE6
:1036900005A80270097802780E480490805C4843BF
:1036A0000D490391895CFCF77AFF019B029A03990B
:1036B00004460498099D6A26AC531B781278805CF6
:1036C0005843895CFCF76BFF099968228852FFE731
:1036D0000AB070BDEC4C0008E44C000881B00090CA
:1036E00000982821405C000700280CD5FFE70098CF
:1036F000006840680121C903884300998A6B104320
:1037000009684860FFE700982821405CC00700284E
:103710000CD0FFE700980068406801214904884305
:103720000099CA6A104309684860FFE70098282199
:10373000405C800700280CD5FFE7009800684068CF
:1037400001210904884300990A6B10430968486005
:10375000FFE700982821405C400700280CD5FFE7D0
:1037600000980068406801218904884300994A6BE9
:10377000104309684860FFE700982821405CC006B4
:1037800000280CD5FFE70098006880680121090334
:1037900088430099CA6B104309688860FFE7009866
:1037A0002821405C800600280CD5FFE700980068BF
:1037B000806801214903884300990A6C1043096815
:1037C0008860FFE700982821405C400600281DD54E
:1037D000FFE7009800684068012109058843009AC6
:1037E000536C1843126850600098406C88420CD1AA
:1037F000FFE7009800684068032149058843009965
:103800008A6C104309684860FFE7FFE700982821A9
:10381000405C000600280CD5FFE70098006840686F
:103820000121C90488430099CA6C104309684860A3
:10383000FFE701B07047000080B590B00590059992
:10384000902200208850FEF721FB04900598006824
:1038500000680007002832D5FFE70598049B4D4912
:10386000009101214905002200F058FA002825D0D6
:10387000FFE7FFE7EFF3108009900998039001201C
:103880000F900F9880F310880598016808688022CF
:103890009043086003980E900E9880F31088FFE71D
:1038A0000599882220208850FFE70599842200206E
:1038B0008854FFE706A90320087066E0FFE7059833
:1038C000006800684007002849D5FFE70598049B79
:1038D0003049009101218905002200F01FFA0028DB
:1038E0003CD0FFE7FFE7EFF31080089008980290C4
:1038F00001200D900D9880F31088059801680868E4
:10390000092252019043086002980C900C9880F3B1
:103910001088FFE7FFE7EFF310800790079801900A
:1039200001220B920B9880F3108805980168886833
:103930009043886001980A900A9880F31088FFE706
:1039400005998C2220208850FFE7059984220020C9
:103950008854FFE706A90320087016E0FFE70599E1
:1039600088222020885005998C22885005990020B3
:10397000C86605990867FFE70599842200208854E6
:10398000FFE706A900200870FFE706A8007810B03E
:1039900080BDC046FFFFFF018DB00390FFE7EFF34E
:1039A000108006900698029001200C900C9880F3ED
:1039B0001088039801680868092252019043086042
:1039C00002980B900B9880F31088FFE7FFE7EFF366
:1039D000108005900598019001200A900A9880F3C4
:1039E0001088039801688868184A10408860019818
:1039F0000990099880F31088FFE70398C06E0128AA
:103A000018D1FFE7FFE7EFF31080049004980090CF
:103A100001200890089880F31088039801680868CE
:103A200010229043086000980790079880F3108850
:103A3000FFE7FFE703998C2220208850039900209C
:103A4000C866039948670DB07047C046FEFFFFEF98
:103A500080B58EB00D9008A9002008700D99886877
:103A60000A6910434A691043C96908430C900D98CC
:103A700000680068A24908400C9908430D9909683C
:103A800008600D98006840680321090388430D9978
:103A9000CA681043096848600D9880690C900D98B9
:103AA000016A0C9808430C900D980068806895494D
:103AB00008400C9908430D99096888600D980068C2
:103AC000C06A0F2188430D994A6A10430968C86289
:103AD000FFE70D9800688C4988422AD1FFE78C489F
:103AE000006803210840059003281DD8059881002F
:103AF00001A040588746C046093B0008193B000812
:103B0000113B0008213B00080AA9002008700FE0C3
:103B10000AA9022008700BE00AA90420087007E037
:103B20000AA90820087003E00AA910200870FFE71E
:103B30000EE00D9800687549884204D1FFE70AA994
:103B40000020087003E00AA910200870FFE7FFE7D3
:103B5000FFE70D98C0690121C903884266D1FFE7DC
:103B60000AA800780490082825D80498810001A0AC
:103B700040588746993B0008B73B0008A13B000826
:103B8000B73B0008A73B0008B73B0008B73B00085D
:103B9000B73B0008AF3B0008FEF790FC069010E032
:103BA0005C4806900DE0FEF79DFC069009E00120C0
:103BB000C003069005E00020069008A901200870C7
:103BC000FFE70698002830D0FFE706980D9903918B
:103BD000496A4A005049895AFCF7E1FC03994000C0
:103BE00049684A088018FCF7DAFC099009981028FF
:103BF00016D3FFE709A84088002811D1FFE70999EB
:103C00000F2081430BA8018009990E2211404A0818
:103C10000B991143018000880D990968C86003E081
:103C200008A901200870FFE7FFE759E00AA800781B
:103C30000290082825D80298810001A040588746A4
:103C4000653C0008833C00086D3C0008833C00088C
:103C5000733C0008833C0008833C0008833C000858
:103C60007B3C0008FEF72AFC069010E029480690ED
:103C70000DE0FEF737FC069009E00120C003069036
:103C800005E00020069008A901200870FFE70698CB
:103C9000002824D0FFE706980D990191496A4A004F
:103CA0001D49895AFCF77BFC019949684A0880182C
:103CB000FCF775FC0990099810280BD3FFE709A8B9
:103CC0004088002806D1FFE709A800880D990968F7
:103CD000C86003E008A901200870FFE7FFE7FFE7DD
:103CE0000D996A22012088520D99682288520D99F7
:103CF000002048670D99886708A800780EB080BD3D
:103D0000F369FFCFFFF4FF11003801400044004089
:103D1000541002400024F400F44C000810B586B0A2
:103D2000089C0490039102A802700193FFE7049895
:103D30000068C06903990840401A4142484102A9FD
:103D40000978884266D1FFE70898401C002860D0B7
:103D5000FFE7FEF79BF80199401A0899884204D8BA
:103D6000FFE70898002804D1FFE705A903200870A1
:103D700054E00498006800684007002848D5FFE731
:103D80000398802844D0FFE70398402840D0FFE7FD
:103D900004980068C06908210840C008012816D1AD
:103DA000FFE7049801680820009008620498FFF774
:103DB000F3FD0098049990228850FFE7049984222B
:103DC00000208854FFE705A90120087026E0049828
:103DD0000068C0690121C9020840C00A012816D143
:103DE000FFE7049801680120C00208620498FFF709
:103DF000D3FD0499902220208850FFE70499842263
:103E000000208854FFE705A90320087006E0FFE7BB
:103E1000FFE78CE705A900200870FFE705A80078F8
:103E200006B010BD80B584B003900399134800908C
:103E300002689300124AD1500068401C2821FCF708
:103E4000CDFB00980160002002900190FFE70198EF
:103E500027280DDCFFE701988100094841580298A6
:103E6000FCF758F90290FFE70198401C0190EEE73B
:103E70000298E149FCF7E4F904B080BD7403002026
:103E8000D402002070B582B0024601A802700091F1
:103E900000214056002816D4FFE7002401A9085746
:103EA0000322D3431840174A805809578C07E50E60
:103EB000FF24AC40A043009CA401E4B2AC402043EA
:103EC000194088501AE001A908780F2420400838CA
:103ED0000322D34318400A4A8058002549578D07CA
:103EE000EE0EFF25B540A843009DAD01EDB2B540F3
:103EF00028432140083919408850FFE702B070BDBF
:103F00001CED00E000E400E080B5B0B02E902E98EB
:103F100002902548019000682821FCF75FFB01987A
:103F20000A4602999300214AD1500168491C016058
:103F30000068272803DCFFE72E982F9031E000204F
:103F40000590FFE7059827280BDCFFE7059882001E
:103F50001648805806A98850FFE70598401C059030
:103F6000F0E706A8282100F067F900200490072058
:103F70000390FFE703981F280DDCFFE703988100FB
:103F800006A841580498FCF7C5F80490FFE7039889
:103F9000401C0390EEE704980549FCF751F92F9077
:103FA000FFE72F9830B080BD78010020D8000020B6
:103FB0000000C84180B582B001900091044801A979
:103FC00001223223FEF7EEFF019802B080BDC04609
:103FD0003C020020B0B5A2B000202190FDF764FFA4
:103FE000FFF7F0FAFFF748FAFFF736FAFFF7DEF9C6
:103FF000FFF778FA7A481990FCF7CCFE19987949BE
:104000000222FDF731FCFFE7774816900168491C52
:10401000016000681E21FCF7E1FA012000221792DE
:104020000F29189001DB17981890189A052000079F
:104030000421FDF715FF169800681E2804DBFFE732
:10404000694900200860FFE7684900201590086072
:1040500067490860634813900088FCF765FA654972
:104060001491FCF7B0F80146139820914088FCF7B2
:104070005BFA1499FCF7A7F8014615981F911E905A
:10408000FFE71E984F284DDCFFE71E98410064486B
:104090000C90405AFCF748FA56490D91FCF793F8FA
:1040A0001D901D985F49FCF735F850490B91096840
:1040B0000A915D49FCF787F80A99FCF72BF80B9AEF
:1040C0000C9910601E98400040184088FCF72CFAAC
:1040D0000D99FCF778F81C901C98FCF730FA534ABD
:1040E000534BFCF7EBF80E900F914148129000688B
:1040F000FCF725FA02460E9810920A460F99119283
:10410000072252074B4BFCF78BF9109A119BFCF7D7
:10411000D5F8FCF728FA12990860FFE71E98801C72
:104120001E90AEE73148006833490891FCF788F8E3
:1041300008991B902E480068FCF782F81A901B988B
:1041400000F0BEF82D49099108601A98FFF7DCFECF
:10415000014609982A4A116000682A49FCF7C8F903
:1041600000280FD1FFE7254800682749FCF7CEF962
:10417000002807D1FFE721480068FFF753FE2349D5
:104180000860FFE71D48006820490968FCF713F83C
:1041900001461F4801601A490A681E490A60006802
:1041A0000968FCF710F81C4908600E48018807915F
:1041B000408805902098FCF7C2F9069004911F985A
:1041C000FCF7BDF9049B059A044606980D4607992D
:1041D0000395029401930090104800F0C7F813E78C
:1041E0007C010020C00000201000002014000020EE
:1041F000180000206740533A00002042CC00002005
:104200001C0000200AD723BD0AD7233DD000002080
:10421000C8000020C4000020D40000200C4D00087D
:104220002000002098FA1BC0A470A341B0726891CE
:10423000ED7C03C0899DD83F80B586B00590049180
:1042400000200390FFE703980499491E884235DA5D
:10425000FFE7039802900398401C0190FFE7019844
:104260000499884214DAFFE70599019880000858FC
:10427000029A92008958FCF749F9002803D1FFE718
:1042800001980290FFE7FFE70198401C0190E6E7E4
:10429000059803998900405800900599029880007C
:1042A0000858039A9200885000980599029A920043
:1042B0008850FFE70398401C0390C4E706B080BD18
:1042C00080B5B0B02E902E980290254801900068DD
:1042D0002821FCF783F901980A4602999300214AA4
:1042E000D1500168491C01600068272803DCFFE702
:1042F0002E982F9031E000200590FFE705982728A1
:104300000BDCFFE7059882001648805806A9885004
:10431000FFE70598401C0590F0E706A82821FFF765
:104320008BFF002004900A200390FFE703981D28CC
:104330000DDCFFE70398810006A841580498FBF7BD
:10434000E9FE0490FFE70398401C0390EEE7049811
:104350000549FBF775FF2F90FFE72F9830B080BD20
:1043600018040020780300200000A0410FB410B50D
:1043700003A9044B044A029800F0E8F810BC08BCFA
:1043800004B01847B53F0008000000202021020CAF
:1043900001D010211046020A01D010460839020946
:1043A00001D01046091F820801D01046891E42081C
:1043B00001D0881E7047081A704702E008C8121F13
:1043C00008C1002AFAD170477047002001E001C1FE
:1043D000121F002AFBD17047F0B51FB486B00998B0
:1043E000089A030D0021024314D05148514A18186D
:1043F000504305141198012810981AD0281A401C0F
:1044000000264D4F4D49009601910490002812DA84
:10441000444211E01198012449A3012801D11098C8
:10442000C1430698119A84600360C26041600BB07A
:10443000F0BD4042E4E70446210500203F4A001C4D
:1044400051410391029012E0E00707D032463B460B
:1044500001990098FBF7E4FF0191009032463B463A
:1044600010461946FBF7DCFF06460F466410002C89
:10447000EAD10498039B0028029A0999089806DA61
:10448000FBF7CEFF019B009AFBF7CAFF05E0FCF7A4
:10449000C1F9019B009AFCF7BDF904460E460022C3
:1044A000284BFCF74FFA03D80020C043014607E031
:1044B0000022254B20463146FBF700FFFCF722FA8D
:1044C000102409E0002C0ADB0A220023FCF7AEF8D6
:1044D000079B30321A55641E02460A43F2D111225C
:1044E000641C079B121B1C19119B012B03D0012379
:1044F00008430ED10AE0084304D011201090002098
:10450000119077E71098151A6D1E0BE010988242F3
:1045100002DD00236D1C03E0824201DA00236D1EE0
:10452000002BEED0069811998260C16030C07EE702
:1045300001FCFFFF104D0000000014400000F03FA0
:10454000300000000000F0430000E03FFFB597B0EE
:104550000646002518E2252877D100242746FD4984
:10456000049400E00443761C32780120203A904005
:104570000842F7D130782A280ED00222307801463E
:104580003039092916D804990A235943303940187B
:104590001443761C0490F1E7189802C8049118900F
:1045A000002904DA01204003044348420490022019
:1045B0000443761C30782E2814D1042004437078EC
:1045C000761C2A2809D11898761C80C8189009E012
:1045D0000A214F43303FC719761C307801463039E5
:1045E0000929F5D930786C2810D006DC4C281AD06F
:1045F00068280ED06A2817D104E0742813D07A28CE
:1046000012D110E00120400504430CE0012109050E
:1046100001E0032109050C437178814203D1012097
:1046200000052418761C761C3078119066280BD073
:1046300013DC58287DD009DC00287BD04528F6D033
:104640004628F4D047281AD1A5E118E0632835D0D0
:10465000642870D0652812D19DE170286CD008DCE8
:104660006728F1D069287BD06E280DD06F2806D13D
:10467000BAE073282ED0752871D0782859D01A9AAC
:10468000199990476D1C7EE16002400F022809D005
:1046900003280DD00428189801680DD00D60001D66
:1046A000189070E11898EA1701680D604A60F6E703
:1046B000189801680D80F2E70D70F0E718986A46C7
:1046C00001781172001D18900020507202A800900D
:1046D000012005E0189802C8189000200091C043FE
:1046E00061070DD5002101E00199491C0191B942F2
:1046F00012DA8142F8DB009A515C0029F4D10BE018
:10470000002101E00199491C01918142FADB019AE3
:104710000099895C0029F5D1019904981A9B471AE0
:1047200021463846199A00F097FA01994019451820
:104730000BE04FE02CE113E04EE000980099007888
:10474000491C00911A9A199990470198401E0190AE
:10475000401CF2D1214638461A9B199A10E137E0E5
:104760000A200021009001916002410F022907D028
:10477000189A01CA1892C2179446032908D00AE071
:104780001898C01DC108C90005C91891944607E0D2
:1047900000B2C2179446042902D140B2C1178C4618
:1047A00000226146944506DA0A46002140429141C2
:1047B0008C462D2102E0210504D52B216A46117378
:1047C000012103E0E10701D02021F7E7029155E044
:1047D0000A200AE0102008E01020009000210420A8
:1047E00004430191082703E0082000210191009073
:1047F0006002410F022907D0189A01CA18920022BC
:104800009446032908D008E01898C01DC108C900C3
:1048100005C91891944603E080B2042900D1C0B2C2
:1048200000210291210729D51199702906D0009AFB
:104830001021019B4A401A4305D00EE040216A46F0
:104840001173012108E06146014306D030216A4618
:1048500011731199517302210291009A0821019B51
:104860004A401A430AD16146014301D1610705D587
:1048700030216A46117301217F1E02911199582936
:1048800004D035A10E910DA90D910DE037A1F9E7E6
:104890006146019B009AFBF7C9FE0E9B8C469B5C10
:1048A0000D9A521E0D92137061460143F0D10D987E
:1048B00005A9081A20300190600703D501200004E3
:1048C000844300E001270198874201DD381A00E0A7
:1048D0000020019900904118029809180498401A84
:1048E0000490E00306D421461A9B199A049800F01C
:1048F000B3F94519002706E003A81A9AC05D199973
:1049000090476D1C7F1C02988742F5DBE0030CD5B5
:1049100021461A9B199A049800F09EF9451904E063
:104920001A9A3020199990476D1C0099481E0090E2
:104930000029F5DC08E00D980D990078491C0D91CF
:104940001A9A199990476D1C0199481E01900029E7
:10495000F1DC63E109280100303132333435363778
:1049600038396162636465660000000030313233BB
:10497000343536373839414243444546000000005B
:1049800000F05AF94519761C3078002800D0E2E58D
:1049900028461BB0F0BD600700D406271898C01D3C
:1049A000C108C90048680A680831C30FDB071891BD
:1049B000190001D09CA108E0210501D59BA104E0CC
:1049C000E10701D09AA100E09AA1430011985B0889
:1049D000109165280CD006DC452809D046281DD04A
:1049E000472841D141E0662818D067283CD13CE0F7
:1049F0000021112F01DB112000E0781C01910090B3
:104A000008A911A8FFF7E8FC139905910021119A54
:104A100015927F1C12980197009150E00120C00769
:104A200003900120019008A9009711A8FFF7D4FC7A
:104A3000139A149905920022119B009212981593D3
:104A4000059A0192002901D0104602E0791C401815
:104A50000190381A01D5019804E04042401E0090B0
:104A6000781C0190C01B029043E0012F00DA01275F
:104A70000021112F01DD112000E038460191009046
:104A800008A911A8FFF7A8FC13990591119A002114
:104A9000129815920091019721070CD40599B942FB
:104AA00001DB019900E00191012904DD159A491EFD
:104AB000515C302906D0B84201DA011D05DA012126
:104AC000029115E00199491EEDE7002805DC0099E7
:104AD000411800910199091A03E0019A411C914281
:104AE00000DD01910099401A401C02900120C0078E
:104AF0000390200706D402990198814202DB00202E
:104B0000C043029000206946C87707AF012103988F
:104B10000337C907884224D0022011902B2012901D
:104B2000039800280CDA404203902D20129007E0F1
:104B30000A210398FBF733FD30317F1E0390397053
:104B40001199481E11900029F2DC03980028EFD13A
:104B5000791E129808703078202108404530BF1E19
:104B6000387006A8C01BC01D03901098007800285C
:104B700000D00120019941180298C0170918039824
:104B800009180498401A401E0490E00306D42146F8
:104B90001A9B199A049800F05FF84519109800784C
:104BA000002803D01A9A199990476D1CE00324D568
:104BB00021461A9B199A049800F04EF845191CE0FA
:104BC0000098002807DB00990598884203DD1598B6
:104BD000405C199901E0199930201A9A9047009881
:104BE0006D1C401C00900298401E0290002804D1C9
:104BF0001A9A2E20199990476D1C0199481E019010
:104C00000029DDDC05E038781A9A7F1C1999904755
:104C10006D1C0399481E03900029F4DC21461A9B61
:104C2000199A0498ACE600002D0000002B0000004B
:104C30002000000000000000F8B5044600251E46D4
:104C40001746880404D405E039462020B0476D1C7F
:104C5000641EF9D52846F8BDFFB50446002581B08D
:104C60001E46C80301D5302700E02027880404D55C
:104C700005E038460399B0476D1C641EF9D52846F7
:104C800005B0F0BD000000000000000000000000C2
:104C90000000000000000000000000000000000014
:104CA00000000000010000000200000003000000FE
:104CB00004000000060000000700000008000000DB
:104CC00009000000000000000000000000000000DB
:104CD00000000000010000000200000003000000CE
:104CE000040000000804020408010101010101039D
:104CF00007010000010002000400060008000A008D
:104D00000C001000200040008000000125642C25CC
:104D1000642C25662C25660A0D000000404D000815
:104D20000000002010000000BA430008504D0008A9
:104D30001000002010080000CA4300080000000016
:104D4000000000000024F400010000000400000046
:04000005080000C12E
:00000001FF
