:020000040800F2
:10000000400D0020ED01000895410008A93C0008C2
:1000100091410008C90C0008E949000800000000EF
:100020000000000000000000000000002542000861
:10003000E90C00080000000099410008294200086E
:10004000070200080702000807020008070200086C
:10005000070200080702000807020008070200085C
:10006000070200080702000807020008DD0C00086C
:10007000070200080702000807020008070200083C
:10008000070200080702000807020008070200082C
:10009000070200080702000807020008070200081C
:1000A000070200080702000807020008070200080C
:1000B00007020008E54200080702000807020008DE
:1000C00007020008070200080702000807020008EC
:1000D00007020008070200080702000807020008DC
:1000E00007020008070200080702000807020008CC
:1000F00007020008070200080702000807020008BC
:1001000007020008070200080702000807020008AB
:10011000070200080702000807020008070200089B
:10012000070200080702000807020008070200088B
:10013000070200080702000807020008070200087B
:10014000070200080702000807020008070200086B
:10015000070200080702000807020008070200085B
:10016000070200080702000807020008070200084B
:10017000070200080702000807020008070200083B
:10018000070200080702000807020008070200082B
:10019000070200080000000007020008070200082C
:1001A000070200080702000807020008070200080B
:1001B00007020008070200080702000807020008FB
:1001C00007020008070200080702000807020008EB
:1001D0000702000807020008DFF80CD000F05CFA04
:1001E000004800470D4A0008400D0020064880479F
:1001F00006480047FEE7FEE7FEE7FEE7FEE7FEE70C
:10020000FEE7FEE7FEE7FEE7D1420008D90100085D
:100210002DE9F05F0546002092469B46884606463B
:10022000814640241BE0284641464746224600F0CE
:100230006AF853465A46C01A914110D311461846DF
:10024000224600F051F82D1A67EB01084F4622466E
:100250000120002100F048F817EB00094E41201E54
:10026000A4F10104DFDC484631462A464346BDE896
:10027000F09FD2B201E000F8012B491EFBD270477B
:100280000022F6E710B513460A4604461946FFF762
:10029000F0FF204610BD00F0004230F000400AD0D0
:1002A000C10D01F56071C0F3160042EA0151C208A8
:1002B00040071143704700200146704730B50B4698
:1002C000014600202022012409E021FA02F59D4286
:1002D00005D303FA02F5491B04FA02F52844151E5A
:1002E000A2F10102F1DC30BD202A04DB203A00FA41
:1002F00002F1002070479140C2F1200320FA03F37D
:10030000194390407047202A04DB203A21FA02F07A
:100310000021704721FA02F3D040C2F1200291403F
:100320000843194670472DE9FE4F804681EA0300D5
:10033000C00F0C46009021F0004123F00045B8EBBF
:100340000200A94105D24046214690461C460B4674
:10035000024623F00040104347D0270DC7F30A00A0
:10036000C3F30A510290401A019040286BDAC3F39C
:10037000130040F4801B0098924620B10023D2EB7A
:10038000030A63EB0B0B01985946C0F1400250463B
:10039000FFF7AAFF06460D4650465946019A00F05F
:1003A00093F910EB08006141002487EA115284EAB6
:1003B000E7731A4340D0009A62B3019A012A4FEAC8
:1003C000075215DC001B61EB02014FF0004202EA0C
:1003D0000752CDE90042001C41F5801132462B4600
:1003E00000F093F903B0BDE8F08F40462146F9E7ED
:1003F000001B61EB0201001C41F5801300185B41FA
:100400002018A2F5001747EB030140EAD570B61992
:100410006D4111E06D084FEA360645EAC0754FEAB6
:100420000752001B61EB0201001C41F580114908D5
:100430004FEA30000019514132462B4603B0BDE867
:10044000F04F00F053B90098012240000023D0EB98
:10045000020263EBE073009821464FEAE074B8EBC8
:10046000000061EB0401E9E783F000435BE781F002
:10047000004158E72DE9FE4F81EA030404F00044EF
:1004800021F0004100944FF0000B23F0004350EAAC
:1004900001045ED052EA03045BD0C3F30A54C1F3F3
:1004A0000A552C44A4F2F3340194A0FB0254C1F386
:1004B000130141F48011C3F3130343F4801301FBD0
:1004C000024400FB034E840A970A44EA815447EA37
:1004D0008357A4FB076802958D0A05FB07854FEA41
:1004E000932C04FB0C542705029D4FEA065847EA5B
:1004F0001637B5EB08056EEB070C870E920E47EA30
:10050000811742EA8312A7FB0201B6EB0B0164EBF1
:1005100000042B0D43EA0C335E1844EB1C50DA4602
:100520005146E7FB0201C5F313044FEA0B3343EADC
:1005300014534FEA0432019C43EA0603A4F10C046D
:100540000294009CCDE900B400F0DFF803B0BDE8F0
:10055000F08F00200146F9E72DE9F04D81EA030410
:1005600004F0004B21F0004514464FF0000A23F040
:10057000004150EA050220D054EA01021DD0C5F323
:100580000A570246C5F31303C1F31300C1F30A5619
:1005900040F4801543F48013A7EB0608101BD646E1
:1005A00008F2FD3873EB050002D308F1010801E001
:1005B00092185B41B8F1000F03DA00200146BDE854
:1005C000F08D00204FF48011064684460EE0171B84
:1005D00073EB050705D3121B63EB050306434CEAD7
:1005E000010C49084FEA300092185B4150EA0107BC
:1005F000EDD152EA030012D082EA040083EA050139
:10060000084305D0101BAB4106D20122002306E0AF
:1006100000224FF0004302E06FF0010253101AEB8A
:1006200006004CEB085110EB0A0041EB0B01BDE852
:10063000F04D00F05BB8C1F30A52C1F3130140F270
:10064000FF3341F480119A4202DA002001467047DC
:1006500040F233439A42A2F2334202DC5242FFF7A5
:1006600052BEFFF741BE000030B5041E71F1000418
:1006700004DB4FF00044404264EB0101141E73F1AF
:10068000000405DB1C464FF00043524263EB0403B9
:10069000994208BF904230BD1CB5094800900948F6
:1006A00001900546009C06E0E06840F0010394E8F4
:1006B000070098471034AC42F6D3FFF791FD0000D5
:1006C0000456000824560008202A06DBCB17203ADF
:1006D00041FA02F043EAE07306E041FA02F3D04047
:1006E000C2F12002914008431946704710B5141E0C
:1006F00073F1000408DA401C41F1000192185B41DB
:100700001A4301D120F0010010BD2DE9F04D9246B1
:100710009B4611B1B1FA81F202E0B0FA80F22032C8
:100720009046FFF7E1FD04460F4640EA0A0041EA21
:100730000B0153465A46084313D0114653EA0100B1
:1007400019D0C8F140025046FFF7DDFD05460E46C0
:10075000504659464246FFF7C7FD084305D00120E1
:1007600004E020463946BDE8F08D0020054346EA06
:10077000E0762C4337430A986305E40AA0EB0800AF
:100780000022FD0A44EA47540A3002D500200146FF
:10079000E9E7010510196941DDE9084500196941DA
:1007A000BDE8F04DA2E700009FED101A9FED102A62
:1007B00020EE010A80EE020A40F23400C2F200008C
:1007C0009FED0C1A9FED0C2A80ED000A90ED000AB7
:1007D00040F2B00030EE010A80EE020AC2F20000E0
:1007E00080ED000A90ED000A704700BF333353409C
:1007F00000F07F45B81ED5BF4A0C823E0146806A94
:10080000C36DC26D13F0500F07D0D20648BF00F081
:10081000A3BD406D426B0846104742F40071C165AC
:1008200001680B68CA681B0703D4910707D500F05D
:1008300009BD12F4406FFAD1C9688904F7D4C16DBB
:1008400021F48071C165C16DC90448BF00F0FABCD4
:10085000C16D41F00101C16500F0F4BC806AC16D59
:1008600041F04001C165016E41F00401016600F0F4
:1008700073BD0000806A00F06DBD0000B0B5016876
:1008800004468A688868C0074FF0000032D012F032
:10089000020218BFB0BD886800F00D00012820D109
:1008A00088684FF6C072C7F6FF7210400230886049
:1008B0000320086001F0B6F921688968C90704BF00
:1008C0000020B0BD054603E020688068C00712D054
:1008D00001F0A8F9401B0328F6D320688068C00700
:1008E000F2D0E06D40F01000E065206E40F00100B5
:1008F00020660120B0BD0020B0BD000070B582B000
:1009000004460020019021688A68D20711D14FF671
:10091000C076C7F6FF76886806F17F0210420AD0DB
:10092000E06D40F01000E065206E40F001002066B0
:10093000012002B070BD88684FF4C162304040F0C1
:100940000100886040F20010C5F20000814208BF3B
:100950004FF40272B1F1A04F08BF4FF40272105869
:10096000000220D401F05EF921680A68D20717D18D
:10097000054603E021680868C00711D18868C007F0
:1009800004D18868304040F00100886001F04AF9E5
:10099000401B0328EED320680068C007EAD1BFE7F8
:1009A000002002B070BD40F20C00C2F200000068EE
:1009B00042F663518009C0F23E51A0FB0101880953
:1009C00000EB40000C2101EB800000BF019001987A
:1009D0000028C7D001980138F8E7000040F2B801BC
:1009E0006FF00300C2F20001002200BF0B180430B8
:1009F000B0F5C67F5A60F9D140F29001C2F2000111
:100A00000020088040F29801C2F20001088040F204
:100A1000B001C2F20001086040F2E031C2F2000110
:100A2000086040F23401C2F2000140F2482208603E
:100A30006FF00301C2F2000253180431B1F5C67F12
:100A40005860F9D140F29201C2F200010020088002
:100A500040F29A01C2F20001088040F2B401C2F2F1
:100A60000001086040F2E431C2F20001086040F287
:100A70003801C2F2000140F2206208606FF0030109
:100A8000C2F2000253180431B1F5C67F5860F9D1A3
:100A900040F29401C2F200010020088040F29C0163
:100AA000C2F20001088040F2D831C2F200010860B1
:100AB00040F2E831C2F20001086040F23C01C2F2AB
:100AC000000140F2B07208606FF00301C2F2000250
:100AD00053180431B1F5C67F5860F9D140F2960041
:100AE000C2F200000021018040F29E00C2F200002C
:100AF000018040F2DC30C2F20000016040F2EC30D4
:100B0000C2F20000016040F24000C2F20000016049
:100B1000704700009FED602A002800F0B28040F28C
:100B20000801C2F2000191ED003AB4EE430AF1EE81
:100B300010FA80F2A98090ED023A9FED584A90EDAC
:100B4000035A9FED576A23EE043A20EE844A40F29E
:100B5000040134EE033A25EE064AC2F2000134EEF7
:100B6000033A91ED004A90ED000A80ED033A34EE2D
:100B7000433A9FED4C4A9FED4C5A90ED012A20EEEE
:100B8000040A23EE054A34EE000A32EE000AB7EEFC
:100B9000002AB4EE420AC0ED020AF1EE10FAC8BF14
:100BA000B0EE420AB5EE400A9FED3B2AF1EE10FA94
:100BB000B8BFB0EE420A80ED003A9FED3C3A9FED9F
:100BC0003C4AB4EE430A80ED010AF1EE10FAC8BFC8
:100BD000B0EE430AB4EE440AF1EE10FAB8BFB0EE3C
:100BE000440A90ED045A9FED336A9FED337A25EE67
:100BF000065A20EE076A90ED057ADFED300A36EEF0
:100C0000055A27EE206A80ED040A91ED000A90ED66
:100C1000087A36EE055A30EE416A30EE470A9FED0B
:100C2000287AD0ED070A36EE000A20EE070A9FED7B
:100C3000256A30EE200AB4EE460A80ED055AF1EE40
:100C400010FAC8BFB0EE460AB5EE400AF1EE10FA4F
:100C5000B8BFB0EE420A35EE002AB4EE432AF1EEF8
:100C600010FAC8BFB0EE432AB4EE442AF1EE10FAEF
:100C7000B8BFB0EE442A80ED062A80ED070A80ED69
:100C8000081AB0EE420A70470021B0EE420AC0E9ED
:100C900006110162704700BF000000004B6BF83E78
:100CA000A596F23C7CCC4CBD1ECD4C3D6666663FA5
:100CB000CDCCCC3D0DCEC7BC8ADA953D2083733FA9
:100CC000F0EAB9B99A99993EFEE70000002808BFFA
:100CD000704780B54C21FFF7D3FA80BD40F25C40ED
:100CE000C2F2000000F05CBD70470000EFF310801E
:100CF00072B600BF4FF090400421012200F08CFF3B
:100D0000F8E70000B0B582B004460020019094F8E6
:100D10005800012802D1022002B0B0BD012084F8A1
:100D2000580020460D46FFF7A9FDE16D10B141F0D6
:100D300010012AE041F2021291430231E16521687B
:100D40004FF6C0738A68C3F6FF731A4005F08043FC
:100D50001A4402F100428A604DF60262C0F20402B7
:100D60008B68B3F1FF3F0CDC019B01330193019BC6
:100D70009342F5D3E06D40F0100020F00201012015
:100D800003E0E16D012262F30101E165002184F8D5
:100D9000581002B0B0BD000090F85820012A04BFDE
:100DA0000220704770B582B00122002380F85820DD
:100DB00001930093026840F2080CC5F2000CB2F1F6
:100DC000A04F0CF1F8050AD040F20043C5F2000331
:100DD0009A4207D10CF59F64002333B136E02C46CC
:100DE0001BB133E00024012383BBA3689468234331
:100DF0005B072BD44FF4E063D1F800E0AA4208BFB0
:100E00004FF44073B2F1A04F08BF4FF440735CF849
:100E10000340BEF1000F24F4604424D04D6890F8E4
:100E2000386042F4807245EA46352C4340F20015A2
:100E3000C5F20005AA424CF8034026D1DCF8002098
:100E4000DCF800412243D20746D128E0C16D41F0D1
:100E50002001C1650121002280F8582002B0BDE8C0
:100E600070400846704742F4807140F20012C5F2AB
:100E7000000291424CF803401BD1DCF80010DCF872
:100E800000211143C90727D11DE0DCF80024DCF85C
:100E90000045DCF8005622432A43D2071CD15CF8F7
:100EA000032040F61F748968A243114341EA0E01F2
:100EB0000EE0DCF80014DCF80025DCF800661143D5
:100EC0003143C90708D15CF8031040F61F72914303
:100ED0004CF803100021BEE70021BCE7F0B581B05B
:100EE0000022009290F85820012A01D1022181E1CC
:100EF0000123076880F85830BB685B0734D4D1E918
:100F000000361F22C6F3012507EB85052C6B06F082
:100F10001F06B240C3F3846324EA0202B3401A43BB
:100F20002A63BA68BB6802F0040203F00803D2180F
:100F300040F0AC800A68042607F1140306EAD25C8C
:100F4000C2F340668D6853F82660C2F3045407224A
:100F5000A240B5F1004F26EA02060BD143F80C601F
:100F60001A6842F000430DE0C16D41F02001C165F7
:100F700001213CE105FA04F2324343F80C201A68DF
:100F800022F000437B61D1E90436FD68042B50D187
:100F90003A6E3A6E0B68C2F3846293FAA3F6B6FA1D
:100FA00086F65D0308BFC3F384664FF6FF73B24253
:100FB000C0F2070303D13A6E22F000423A667A6E1D
:100FC0007A6E0E68C2F3846296FAA6F5B5FA85F5D4
:100FD0001E4208BFC6F38465AA4203D17A6E22F08E
:100FE00000427A66BA6EBA6E0E68C2F3846296FAEE
:100FF000A6F5B5FA85F51E4208BFC6F38465AA4278
:1010000003D1BA6E22F00042BA66FA6EFA6E0E682A
:10101000C2F3846296FAA6F5B5FA85F51E4208BFBA
:10102000C6F38465AA4231D1FA6E22F00042FA6614
:101030002CE0062202EA950206FA02FC0E6807F18D
:10104000600555F823404FF20002C0F2FF3206F06F
:10105000F846224046EA0C06324342F0004245F888
:1010600023200A698B6955F8226026F08076334385
:1010700045F822300A690B7F55F82260012B26F0D3
:10108000007608BF06F1007645F82260BA68D207FC
:1010900043D10E68CA68D7F8B05033466FF3DF43C8
:1010A00025EA030C4FF6FF7502F01804C0F207059D
:1010B000E54000243540C4F27F0445EA0C05A24215
:1010C000C7F8B05029D196FAA6F2B2FA82F2002BF4
:1010D00008BFB20E013202F01E0302F01F02012609
:1010E0000025964002EB4202CFF6206505EB025543
:1010F000354345F000750A2B38BF46EA0255C5F363
:10110000406307EB83038A685E69C5F304550724CF
:10111000AC40A643AA4032435A610D680021C8F290
:1011200008010D4262D040F2083EC5F2000E0EF5F5
:101130008063AEF502741946A74204BF40F208313D
:10114000C5F20001B7F1A04F04BF40F20831C5F26B
:1011500000010E680022CCF22132954206F0E07CBC
:1011600004D01022C9F2C00295422ED132022CD4F2
:1011700040F20062C5F20002974202D0B7F1A04FE0
:1011800034D10A6822F0E07242EA0C0242F4000212
:101190000A6040F20C01C2F20001096842F6635293
:1011A0008909C0F23E52A1FB0212910901EB4101F3
:1011B0000C2202EB810100910099B9B1009901392B
:1011C000009100990029F9D110E00022CCF252726E
:1011D000954212D10022B2EB1C6F0ED10A6822F0A8
:1011E000E07242EA0C0242F080720A6000210022A2
:1011F00080F85820084601B0F0BD0021CCF68431BB
:101200008D424FF0000108BF16F48002EFD1B7F114
:10121000A04F0AD040F20011C5F200018F42E5D084
:10122000391BB1FA81F1490900E00121002918BFF9
:101230007346196821F0E07141EA0C0141F4800124
:101240001960D3E70068B0F1A04F18BF704780B5B0
:1012500040F22200C2F20000018840F2A00CC2F26B
:10126000000CACF80010018940F2A203C2F20003A6
:101270001980418840F2A402C2F200021180418923
:1012800040F2A602C2F200021180818840F2A80258
:10129000C2F200021180818940F2AA02C2F2000269
:1012A0001180C18840F2AC02C2F200021180C089F4
:1012B00040F2AE01C2F200010880BCF800001988BB
:1012C000B6EE001A084400EE100AB8EE400A20EE0E
:1012D000010AFFF769FA40F2B000C2F2000090ED97
:1012E000000A03F0ADFC40F2E030C2F2000080EDF5
:1012F000000A9FED170AD0ED000A40F24400C2F246
:101300000000B0EE401AFFF705FC40F21000C2F2F8
:10131000000080ED000A40F2E440C2F20000C16823
:10132000012313FA81F301EE103AB8EE411A20EED0
:10133000010ABDEEC00A00688AB210EE103A9A4265
:1013400038BF0B4699B2C163BDE88040704700BF0B
:1013500000000000704700007047000070B582B0C8
:1013600000210028019142D0C16D39B9044600F036
:1013700009F920460021216684F858100268916816
:1013800089004FF6C071C5F6FF7102D593680B4016
:1013900093609368DB001DD4936801F1805119407C
:1013A00041F08051916040F20C01C2F200010968E5
:1013B00042F663538909C0F23E53A1FB0313990916
:1013C000022303EB410100BF0191019911B1019981
:1013D0000139F9E79168C9000BD4C16D012641F0CC
:1013E0001001C165016E41F00101016602E00126B4
:1013F000B7E000269368C46D03F0040304F0100402
:101400001B19C36D77D123F481730233C3659368CD
:10141000DB072AD140F2001442F48073C5F20004C5
:1014200040F2080CA342C5F2000C40F09D80DCF8AD
:101430000040DCF800311C43E30716D10CF1F8033F
:101440004FF4E064D0F804E09A4208BF4FF44074CF
:10145000B2F1A04F08BF4FF440745CF8043023F49D
:101460007C1343EA0E034CF80430437FC46BD0E98D
:10147000021544EA43332B4390F824501943012DBD
:1014800041EA054306D1816A0025CFF6FE7505EBDA
:1014900041410B43C46A24B1016B04F478752943BC
:1014A0000B43D16844F20705CFF6F0752940194384
:1014B000D1601169436B21F040611943116191685A
:1014C00009073FD490F83810037F490041EA83317F
:1014D000D36844F20205AB431943D1600369146930
:1014E0006BB144F480311161D2F8C01043F6FF753E
:1014F000A9430B430CE043F01002012630E024F432
:1015000080311161D2F8C01043F6FF7321EA030362
:10151000C2F8C03090F84010136901290FD140F291
:10152000FD7123EA010CD0E91135D0E9134143EAFA
:101530000C032B432343194341F0010301E023F043
:10154000010313614169136B012923F00F0302D1D9
:10155000016A01390B431363C26D012161F301027A
:10156000C265304602B070BDDCF800E4DCF800452E
:10157000DCF8003644EA0E041C43E3073FF45EAF98
:1015800073E70000F0B59BB0044600201A90CDE947
:101590001800CDE9160001A85421FEF771FE20685D
:1015A000B0F1A04F01D01BB0F0BD4FF4004001904E
:1015B0004FF00050129001A800F0ACFC002818BFBA
:1015C000FFF794FB41F24C00C4F20200016816AD33
:1015D00041F4005101600168032701F400510091BA
:1015E00000990168002641F004010160016801F0E2
:1015F000040100910099016841F001010160006857
:10160000294600F00100009000980120169040F655
:101610000000C4F600001797189600F027FA0B2078
:10162000CDE916074FF090402946189600F01EFAB3
:1016300040F25C450820C2F20005C4F20200052118
:101640004FF4807385E8430005F1140080224FF4C5
:1016500080674FF0200C80E888102846C5E90362B7
:101660002E6200F0EBF8002818BFFFF73FFB65651E
:10167000AC621BB0F0BD00002DE9F04140F2001655
:101680000368C5F200064FF4C167B34208BF4FF4C8
:101690000277B3F1A04F08BF4FF40277BF599D689E
:1016A0006D0703D490F85850012D02D10220BDE8F7
:1016B000F08106F5A06407F01F070125A34280F81A
:1016C000585018BF002F09D0052F07D0092F1FBF72
:1016D000002180F858100120BDE8F0810D469046A9
:1016E0000446FFF70BF920B1002184F85810BDE83B
:1016F000F0812168E06D40F601739843224600F5C1
:101700008070B142E06509D040F20050C5F200009F
:101710008142084608BF06F5407001E04FF0A04046
:10172000884218BF002F03D1D06D20F48010D065FF
:10173000D06D40F2FD77C0044FF0000044BF106E42
:1017400020F006001066506D40F67506C0F60007E2
:10175000C0F6000640F65D040023C0F60004C0E9B0
:101760000B761C2744630F6082F858304B68144690
:1017700043F010034B60CB682A4643F00103CB6073
:101780004031434600F0ECF821684FF6C0738A6898
:10179000C7F6FF731A4004328A60BDE8F08100008A
:1017A000B0B5D0E910C30268DCF8001003F01F03E5
:1017B0000424D2F800E09C400C4218BF1EF004053F
:1017C0001BD102249C400C4218BF1EF0020520D100
:1017D000D94009071CD51EF0080108BFB0BD11682B
:1017E00021F00E011160012101FA03F2CCF804206E
:1017F000C16380F82510416B18E01168890603D495
:10180000116821F004011160CCF80440016B91B91A
:10181000B0BD1168890606D4116821F00A01116073
:10182000012180F82510CCF80440C16A002200296B
:1018300080F82420ECD0BDE8B040084700284FF0E5
:10184000010C00F08A802DE9F04F0021C4F2020162
:1018500003684FF6F83201F5816ECBF6FD727345E1
:1018600038BF02F580624CF6CD441A44CCF6CC4425
:10187000A2FB042903F0FC02A2F10802A2FB042847
:1018800000F1080B01F580646FF003069BE8040C7F
:101890003CBF0024C4F2020401F5026506EA990681
:1018A000734538BF01F50065C0E91046022480F891
:1018B00025401C6847F6F07724EA0707D0E9054180
:1018C00047EA0A0747EA0B07D0E907E93C43214307
:1018D00041EA0E0141EA0901114319600021C4F2F5
:1018E000020101F50861C164C8F3041173190CFA0F
:1018F00001F58364B2F5804F056504BF00214160A6
:10190000476840F68401FAB21A607B1EC4F20201F5
:10191000032B0D6012D8013A01EB8203002702F07D
:101920001F02012643F87C7F01F1BC0706FA02F290
:10193000C0E91537C265C1F8C02003E00021C0E945
:101940001511C1654FF0000C0121C0F83CC080F8B2
:10195000251080F824C0BDE8F04F604670470000B5
:1019600090F824C0BCF1010F43D04FF0010C80F877
:1019700024C090F825C0BCF1010F37D12DE9F0410A
:101980004FF0020C80F825C04FF0000CC0F83CC0AE
:10199000D0F800C000F14C0E9EE83040DCF800604A
:1019A000BEF1000F26F00106CCF8006065601CBF98
:1019B000D0E916456560D0E91056846806F01F0628
:1019C0000127D0F8308007FA06F66E60CCF80430B4
:1019D000102C0B4604BF13460A46B8F1000FCCF892
:1019E0000830CCF80C2006D00E210BE0002180F846
:1019F000241002207047DCF8001021F00401CCF81C
:101A000000100A21DCF800201143CCF80010806C93
:101A10000168C90303D5016841F480710160BEF11A
:101A2000000F05D0DEF8000040F48070CEF8000012
:101A3000DCF8000040F00100CCF800000020BDE818
:101A4000F0810000B0B5044600F0ECF8054640F225
:101A50001400C2F200000068611C18BF044400BFFB
:101A600000F0E0F8401BA042FAD3B0BD2DE9F04FE2
:101A700083B00E68002E00F0C68000F1200241F213
:101A8000004C009200F13847C4F6000C06224FEAE1
:101A9000B725604508BF0522052D38BF4FEAB7229C
:101AA000002500274FF0000A01920AE00E680AF1B3
:101AB000010A36FA0AF207F1020705F1040500F0FF
:101AC000A280012202FA0AFC16EA0C09EED0D1F833
:101AD00004B003220BF00308A8F10106012E02FA5C
:101AE00007F610D8D0F808E0CC682EEA0602BC4011
:101AF000224382604268CBF3001422EA0C0204FA0B
:101B00000AF422434260B8F1030F1ED0C2688C6809
:101B1000B243BC402243B8F1020FC26015D16FF04E
:101B20000302009C02EA5A0B54F80BC005F01C0398
:101B30000F22D1F8108002FA03FE2CEA0E0C08FAEC
:101B400003F343EA0C0344F80B3002684B68B243DA
:101B500003F00306BE40324313F4403F0260A5D0B9
:101B600041F26003C4F202031A6840F2004E42F0F0
:101B700001021A601A68C4F2010E02F00102029218
:101B8000029A2AF003024FF6084C7244CFF6FF7C0B
:101B900052F80C3005F00C060F24B440A343019C0E
:101BA00004FA06F6334342F80C30DEF808204B689E
:101BB00042EA090640F20C4CDC0258BF22EA090650
:101BC000CEF80860C4F2010CDCF800209C0242EA66
:101BD000090658BF22EA0906CCF80060DEF80420A6
:101BE0009C0342EA090658BF22EA0906CEF80460BF
:101BF000DEF80020DB0342EA090658BF22EA0906A4
:101C0000CEF8006052E703B0BDE8F08F00690840ED
:101C100018BF0120704700001823002A08BF28239E
:101C2000C150704740F21C60C2F20000006870476B
:101C300040F2140040F21C61C2F20000C2F2000146
:101C400000680A68104408607047000080B542F2DE
:101C50000000C4F20200016841F4807101600320B9
:101C600000F0BAF80F2000F009F800281CBF01208E
:101C700080BD00F031F8002080BD000040F214016A
:101C8000C2F200010968002904BF0120704710B5A5
:101C9000044640F20C00C2F200004FF47A72006871
:101CA000B2FBF1F1B0FBF1F000F0A2FF01460F2C06
:101CB0004FF001000ED8002918BF10BD4FF0FF30C3
:101CC0002146002200F05CF840F218010020C2F228
:101CD00000010C6010BD000080B582B041F25800D8
:101CE000C4F202008168002241F001018160816834
:101CF00001F0010101910199016841F080510160F9
:101D00000068012100F08050009000986FF00B00F7
:101D100000F036F86FF00A000121002200F030F8E0
:101D20006FF009000121002200F02AF86FF0040092
:101D30000121002200F024F86FF0030001210022AD
:101D400000F01EF86FF001000121002200F018F8E9
:101D500002B0BDE8804000F0C9B80000002848BFCC
:101D6000704700F01F01012202FA01F11C2202EA71
:101D7000D0004EF20012CEF20002815070470000F7
:101D800010B54EF60C5CCEF2000CDCF80030C3F35C
:101D9000022E8EF00704042C28BF0424BEF1030396
:101DA0004FF0FF3E0EFA04F438BF0023A1439940E0
:101DB0000EFA03F39A43114300F1604200F00F035F
:101DC000090102F56442043B6344002848BF03F163
:101DD0000C02117010BD00004EF60C51CEF2000145
:101DE0000A684FF6FF031A4060F30A2242F080604F
:101DF00040F0FD700860704747F2000CC4F2000C20
:101E0000DCF80020B0F5007F35D0002866D1DCF882
:101E1000800002F4C06220F48070B2F5806FCCF8CC
:101E2000800026D1DCF80000012262F34A20CCF8C1
:101E3000000040F20C00C2F2000000683223584358
:101E40004DF68363C4F21B33A0FB030302EB934004
:101E5000002200BFDCF81410013842F100034905EC
:101E600001D5002BF6D1DCF81400400544BF032057
:101E7000704700207047DCF8800002F4C06140F435
:101E80008070B1F5806FCCF88000F2D1DCF80000F2
:101E9000012161F34A20CCF8000040F20C00C2F2AC
:101EA00000000068322250434DF68362C4F21B32B8
:101EB000A0FB020201EB9240002200BFDCF81410EC
:101EC000013842F10003490501D5002BF6D1DCF8B9
:101ED0001400400544BF03207047CAE7022060F3A6
:101EE0004A22CCF8002000207047000047F208008A
:101EF000C4F20000016841F48041016070470000B5
:101F000047F20000C4F20000016841F480710160F2
:101F1000704700002DE9F04381B08146807841F29E
:101F200088060007C4F2020601D400204AE056F8F1
:101F3000300C5FEAC0080BD456F8300C40F08050EB
:101F400046F8300C56F8300C00F0805000900098A5
:101F500047F20004C4F20004206840F4807020605E
:101F6000FFF760FE054600BF2068C70508D4FFF7ED
:101F700059FE401B0328F7D30320002F03D418E099
:101F80000020002F15D5B16811F4407100F02981AF
:101F9000D9F85020914240F02981C90740F035819D
:101FA00038B9B068D9F8501020F440700843B060D8
:101FB0000020B8F1000F05D456F8301C21F08051F4
:101FC00046F8301CD9F80010CA0716D18A071DD46C
:101FD0004A0724D40A072BD4CA0632D48A0639D435
:101FE0004A0640D40A0647D4CA054ED48A0355D4BB
:101FF0008A055CD44A0563D472E03268D9F80430AB
:1020000022F003021A4332608A07E1D53268D9F818
:10201000083022F00C021A4332604A07DAD53268DF
:10202000D9F80C3022F030021A4332600A07D3D5B7
:102030003268D9F8103022F0C0021A433260CA0662
:10204000CCD53268D9F8143022F440721A43326089
:102050008A06C5D53268D9F8183022F440621A438E
:1020600032604A06BED53268D9F81C3022F440529C
:102070001A4332600A06B7D53268D9F8203022F404
:1020800040421A433260CA05B0D53268D9F82430CC
:1020900022F440321A4332608A03A9D57269D9F812
:1020A000283022F003021A4372618A05A2D53268F1
:1020B000D9F82C3022F440221A4332604A050FD559
:1020C0003268D9F8303022F440121A43B3F5801F39
:1020D000326005D156F87C2C42F4801246F87C2CF4
:1020E0000A050FD53268D9F8343022F440021A4379
:1020F000B3F5800F326005D156F87C2C42F4801283
:1021000046F87C2CCA040FD53268D9F8383022F052
:1021100040721A43B3F1807F326005D156F87C2CAF
:1021200042F4801246F87C2C8A040FD53268D9F824
:102130003C3022F040621A43B3F1006F326005D1A7
:1021400056F87C2C42F4801246F87C2C4A040FD5B9
:102150003268D9F8403022F040621A43B3F1006F80
:10216000326005D156F87C2C42F4801246F87C2C63
:102170000A040FD53268D9F8443022F040521A438D
:10218000B3F1805F326005D156F87C2C42F4803286
:1021900046F87C2CCA030FD53268D9F8483022F0B3
:1021A00040421A43B3F1804F326005D156F87C2C7F
:1021B00042F4803246F87C2C49030FD57169D9F876
:1021C0004C2021F440111143B2F5001F716105D17B
:1021D00056F87C1C41F4801146F87C1C01B0BDE827
:1021E000F0830021C9073FF4DBAE0EE0B168B268AE
:1021F00021F4407142F48032B260B26822F480323D
:10220000B260B160C9073FF4CBAE0446FFF70AFDE8
:10221000054641F2893700BFB068800709D4FFF74F
:1022200001FD401BB842F7D3032000287FF4C1AE64
:10223000B7E6204600287FF4BCAEB2E62DE9F047B1
:10224000002800F0FE8042F2000AC4F2020A0446AE
:10225000DAF800000D4600F00F0081420DD9DAF8DF
:10226000000020F00F002843CAF80000DAF8000050
:1022700000F00F00A84240F0E480216841F2080815
:10228000C807C4F202080CD14FF00009206881078A
:102290004BD4B9F1000F61D0D8F8000020F0F00065
:1022A0005AE0606858F8082C022800F0C88003281B
:1022B00040F0CA80920140F1C480D8F80420D8F8D8
:1022C000043042F20046C3F3031302F00302D8F8CD
:1022D00004700133C0F2F406032A04BF41F2002661
:1022E000C0F27A06B6FBF3F2D8F80430C7F306273B
:1022F0007A43C3F34163022707EB4303B2FBF3F2D4
:102300004BF20043C0F2C4439A4240F2E480D8F852
:10231000002012F0F00F00F0D480890740F1DB803C
:10232000A168002940F0D780CBE0410705D5D8F857
:10233000001041F4E061C8F80010000706D5D8F895
:102340000000072161F30D20C8F80000D8F8000054
:10235000A16820F0F0000843C8F80000DAF8000097
:1023600000F00F00854219D2DAF8000020F00F00CB
:102370002843CAF80000FFF755FC064641F28837AB
:10238000DAF8000000F00F00A84207D0FFF74AFC7F
:10239000801BB842F4D90320BDE8F08720684107CC
:1023A00007D5D8F80010E26821F4E0611143C8F8BD
:1023B0000010000708D5D8F80000216920F460500B
:1023C00040EAC100C8F80000D8F8000042F200411D
:1023D000C0F2F40100F00C000428084600F09C80D4
:1023E000D8F8000000F00C00082841F20020C0F2EC
:1023F0007A0000F09180D8F8002002F00C020C2A3C
:1024000040F08980D8F80420D8F8043002F00302A4
:10241000C3F30313D8F804700133032A08BF01463D
:10242000B1FBF3F0D8F80410C7F30627C1F34161FC
:102430000222784302EB4101B0FBF1F06CE0910322
:1024400004D40120BDE8F0875105FAD5D8F8001072
:1024500001F00C0104293ED0D8F8001001F00C0165
:10246000082938D0D8F8001001F00C010C2932D11D
:10247000D8F80410D8F8042042F20047C2F303123F
:1024800001F00301D8F804300132C0F2F407032947
:1024900004BF41F20027C0F27A07B7FBF2F1D8F887
:1024A0000420C3F306235943C2F34162022303EB22
:1024B0004202B1FBF2F14BF20042C0F2C44291423F
:1024C00009D9D8F80010082262F307114FF001096A
:1024D000C8F8001001E04FF00009D8F8001021F012
:1024E00003010843C8F80000FFF79CFB064641F2D1
:1024F000883700BFD8F80000616800F00C00B0EB2E
:10250000810F3FF4C3AEFFF78DFB801BB842F1D9BA
:102510000320BDE8F0870020D8F8001045F2B25241
:10252000C1F30311C0F60002515C40F20C0201F04D
:102530001F0120FA01F140F21800C2F20000006809
:10254000C2F200021160BDE8F047FFF797BB000040
:1025500040F20C0041F20801C2F20000C4F2020194
:102560000068096845F2C252C1F30221C0F60002B8
:10257000515C01F01F01C8407047000040F20C00A0
:1025800041F20801C2F20000C4F2020100680968C9
:1025900045F2C252C1F3C221C0F60002515C01F003
:1025A0001F01C8407047000041F20C01C4F2020153
:1025B00051F8040C42F20042C0F2F40200F00C00A8
:1025C0000428104608BF704751F8040C00F00C00B6
:1025D000082841F20020C0F27A0025D051F8043CCE
:1025E00003F00C030C2B1CBF0020704780B5D1F802
:1025F00000C00B680CF0030CC3F3031E0B680EF154
:10260000010EBCF1030F08BF02460968B2FBFEF0E1
:10261000C3F30623C1F341610222584302EB410197
:10262000B0FBF1F0BDE8804070470000002804BF17
:10263000012070472DE9F04182B00446007841F254
:102640000006C007C4F202061DD12078800737D4E7
:10265000207800075AD42078400778D42078800664
:1026600000F1BF80E569002D00F01E82B06800F027
:102670000C000C2840F01E81012D40F098810120B3
:1026800002B0BDE8F081B06800F00C01F0680829E4
:1026900054D0032281F00C0122EA00000844B0FA71
:1026A00080F040094AD165683068B5F5A02F00F088
:1026B000C680B5F5803F40F0C98040F48030CBE063
:1026C000B068F16800F00C00042864D001F0030148
:1026D00080F00C0081F002010844B0FA80F040095B
:1026E00059D1E1683068002900F0D18040F4807051
:1026F0003060FFF797FA05463068400500F1FC802E
:10270000FFF790FA401B0228F6D936E16169D6F846
:102710009400002900F0818040F00100C6F8940088
:10272000FFF780FA054600BFD6F89400800792D4E0
:10273000FFF778FA401B0228F6D91EE130688003C3
:102740007FF583AF606800287FF47FAF39E0B06D1C
:102750005FEAC00808D4B06D40F08050B065B06D3D
:1027600000F080500190019847F20007C4F2000782
:102770003868C00529D4386840F480703860FFF7A5
:1027800051FA05463868C0051FD4FFF74BFA401BC5
:102790000228F7D9F1E03068400501D5E06880B142
:1027A0007068216920F0FE4040EA0160706040F2EC
:1027B0001800C2F200000068FFF760FA00283FF43A
:1027C00047AF012002B0BDE8F081A568D6F89000BF
:1027D000052D00F0AE80012D40F0B48040F00100E6
:1027E000B8E0A169D6F89800002900F08D8040F08B
:1027F0000100C6F89800FFF715FA0546D6F89800CC
:1028000080073FF52FAFFFF70DFA401B02284FF06E
:102810000300F3D902B0BDE8F08120F00100C6F852
:102820009400FFF7FFF90546D6F8940080077FF57E
:1028300012AFFFF7F7F9401B0228F5D99DE040F4ED
:1028400080203060306840F4803005E020F4803033
:102850003060306820F480203060FFF7E3F9002D0D
:10286000054610D0306880033FF5EFAEFFF7DAF988
:10287000401B6428F6D980E0FFF7D4F9401B642898
:102880004FF00300C6D830688003F5D4DDE620F4AD
:1028900080703060FFF7C6F9054600BF306840051C
:1028A0007FF5D6AEFFF7BEF9401B02284FF00300BC
:1028B000F4D9AFE7306820F080703060FFF7B2F9EC
:1028C000022D05460CD100BF3068800140F1A88080
:1028D000FFF7A8F9401B02284FF00300F4D999E74D
:1028E0003068800140F1D980FFF79CF9401B022835
:1028F0004FF00300F4D98DE77068216920F0FE40A5
:1029000040EA01607060A3E620F00100C6F898007C
:10291000FFF788F9054600BFD6F8980080077FF5D5
:10292000A1AEFFF77FF9401B02284FF00300F3D957
:1029300070E740F00400C6F89000D6F8900040F030
:10294000010007E020F00100C6F89000D6F89000E2
:1029500020F00400C6F89000FFF764F9002D05464A
:1029600041F2883716D000BFD6F89000800715D402
:10297000FFF758F9401BB842F6D9032002B0BDE872
:10298000F08100BFFFF74EF9401BB8424FF0030043
:102990003FF640AFD6F890008007F3D4B8F1000FAF
:1029A0003FF55CAEB06D20F08050B06556E6F06843
:1029B000216A00F003028A427FF403AF626A6FF07B
:1029C0000F0300F0F00103EB021291427FF4F9AE25
:1029D000A16A00F4FE42B2EB012F7FF4F2AEE16A8D
:1029E00000F07842B2EBC16F7FF4EBAE226B0023B4
:1029F000CFF6E07303EA025200F4C001A2F5001220
:102A000091427FF4DEAE616B4FF07E4202EA0161DB
:102A100000F0C06001F17E4188427FF4D2AE43E015
:102A2000F06848F20C01C0F29F1104F1200700EA9F
:102A3000010C8ECF6FF00F00D4E90C5400EB0210A4
:102A40000022CFF6E07241EA0C0102EA0552084387
:102A5000A2F500124FF07E4540EA032005EA046526
:102A6000104305F17E4540EAC7602843F0603068B6
:102A700040F080703060F06840F08070F060FFF7E8
:102A8000D1F80446306880010ED4FFF7CBF8001B64
:102A900002284FF00300F5D9BCE6F0684FF6FC7150
:102AA000CFF6EE610840F060002002B0BDE8F08192
:102AB00070B598B3044690F8250028B9002084F832
:102AC0002400204600F064F8022084F825002068E5
:102AD000C168C90625D4CA21416253214162C16837
:102AE000490620D4C16841F08001C160FFF79AF81F
:102AF0002168C968490623D406460025FFF792F8E5
:102B0000801BB0F57A7F84BF032584F825502068A8
:102B1000C068400608D4032DF0D105E00125E8B2D5
:102B200070BD002505E000256DB12DB32068FF21A3
:102B30004162002D04BF012084F82500E8B270BD79
:102B40000025002DF1D194E80F004FF6BF7586697E
:102B5000CFF68F352E40866126693143A669856997
:102B600031432943816143EA02410161204601F07A
:102B700015FB0546002DD9D120686169D4E90723EA
:102B8000866926F0604633431A4311438161CDE7DD
:102B900010B596B0044601A85421FDF771FB2068DA
:102BA00042F60001C4F20001884201D016B010BD07
:102BB0004FF4002001904FF48070159001A8FFF7AA
:102BC000A9F9002818BFFEF791F841F25800C4F2A5
:102BD0000200816B41F400418163016841F480612E
:102BE0000160006800F480600090009816B010BD8D
:102BF000411E0020B0EB116F1CBF012070474EF248
:102C00001002CEF2000251604EF62351CEF20001C6
:102C1000F0230B700721906011607047704700002F
:102C2000704700007047000090F83C20012A04BF64
:102C300002207047B0B5012280F83C20D1E9023271
:102C4000D1E900CE22F47C5223F4705343EA02040B
:102C500048F2FF73CEF6F0730EEA0302224303F547
:102C6000006404EA0C0442EA040C0C6903F5C05247
:102C700022404C6942EA0C02224303F56054224090
:102C80000C6B03F5F04323401A438B6940F2000CB0
:102C9000CC69CEF6FF7C0CEA034C1443026842F682
:102CA0000043C4F201039A4244EA0C030BD045F2FC
:102CB0000004C4F20104A24205D043F20044C4F26D
:102CC0000104A24217D14FF6FF74CDF60F4403EA78
:102CD000040ED1E9084CD1E90A310025CDF6F045C2
:102CE00005EA035343EA0E0324F008552B432CF066
:102CF00000552B430B430021536480F83C10002007
:102D0000B0BD000070470000704700007047000031
:102D100090F83C20012A4FF0020266D070B50123E2
:102D200080F83C3080F83D20026842F6004C546840
:102D30009368C4F2010C45F2000E6245C4F2010E24
:102D400018BF72452AD14D6824F470042C434FF605
:102D50008F75CFF6FF550E682C4042F6FF35C4F252
:102D600001053443AA4254600DDC40F2FF76C4F200
:102D70000006B24219DCB2F1804F29D040F2004681
:102D8000C4F2000622E043F6FF74C4F20104A2423A
:102D900016DC62451CD043F2004615E043F20045C4
:102DA000C4F20105AA42CED0D1E740F60006C4F233
:102DB0000006B2420CD040F60046C4F2000605E020
:102DC000724505D044F20006C4F20106B24204D1B5
:102DD000896823F08003194391600121002280F863
:102DE0003D1080F83C20BDE8704010467047000060
:102DF00070470000002804BF0120704710B504464A
:102E000090F83D0028B9002084F83C00204600F0EE
:102E100023F8022084F83D002068211D01F068FAA3
:102E2000012084F8480084F83E0084F83F0084F8CC
:102E3000400084F8410084F8420084F8430084F89C
:102E4000440084F8450084F8460084F8470084F87C
:102E50003D00002010BD000080B582B0006840F247
:102E60000041C4F20001884214D042F60041C4F28D
:102E7000010188420CD141F25800C4F2020081687D
:102E800041F400618160806800F400600190019865
:102E900002B080BD41F25800C4F202000168002275
:102EA00041F0020101600068032100F0020000907F
:102EB00000981D20FEF764FF1D2002B0BDE8804091
:102EC000FEF74CBF90F83D1001291BD1022180F87C
:102ED0003D10016842F6FF32C868C4F20102914217
:102EE00040F00100C8600FDC40F2FF70C4F2000047
:102EF000814218DCB1F1804F2CD040F20040C4F286
:102F0000000025E00120704743F6FF70C4F2010085
:102F1000814213DC42F60040C4F20100814219D024
:102F200043F2004012E040F60000C4F2000081428B
:102F300010D040F60040C4F2000009E045F2000065
:102F4000C4F20100814205D044F20000C4F2010045
:102F500081420CD188680722C0F201020240062A91
:102F60004FF00000CFD0B2F5803F08BF704708682F
:102F700040F00100086000207047000090F83C20FD
:102F8000012A4FF0020200F0998080B5012380F8F9
:102F90003C3080F83D20D0F800C08822DCF80830B2
:102FA000CFF6CE721A40CCF808200B68B3F5005F5C
:102FB0000DDA3F2B21DD5F2B38DD602B00F0A68082
:102FC000702B00F09080B3F5805F6ED0E2E02F228E
:102FD000C0F21002934217DD4F21C0F210018B4264
:102FE0004CDD5021C0F210018B4252D06021C0F262
:102FF00010018B424DD0702146E01F2B0EDC002BC0
:1030000047D0102B45D0C5E0B3F1101F0BDAB3F554
:10301000005F55D0B3F5801F3BD0BBE0202B38D0EC
:10302000302B36D0B6E034D020212DE0402B00F0FC
:103030008F80502B40F0AE80D1F804E0C968DCF8F6
:103040002030DCF8202022F00102CCF82020DCF82F
:10305000182022F0F00242EA011123F00A0242EAAB
:103060000E02CCF81810CCF82020DCF808104FF62F
:103070008872CFF6CF721140573114E03021C0F280
:1030800010018B4205D04021C0F210018B4240F06C
:103090008180DCF808104FF68872CFF6CF721140AD
:1030A000194341F00701CCF808100022012180F8F3
:1030B0003D10002180F83C10BDE88040104670476C
:1030C000D1E901E3C968DCF8082043EA0E0322F4E1
:1030D0007F4243EA01211143CCF80810DCF80810C4
:1030E00041F48041DFE7D1E901E3C968DCF8082059
:1030F00043EA0E0322F47F4243EA01211143CCF854
:103100000810DCF8081041F07701CCE7D1F804E0B2
:10311000C968DCF82030DCF8202022F01002CCF85E
:103120002020DCF8182022F4704242EA013123F01A
:10313000A00242EA0E12CCF81810CCF82020DCF8DD
:1031400008104FF68872CFF6CF7211406731AAE7A8
:10315000D1F804E0C968DCF82030DCF8202022F047
:103160000102CCF82020DCF8182022F0F00242EA1C
:10317000011123F00A0242EA0E02CCF81810CCF832
:103180002020DCF808104FF68872CFF6CF7211407D
:10319000473188E7012289E770470000F0B581B028
:1031A00004460068C5680669B10716D515F0020126
:1031B00013D06FF00201016101212177806980073E
:1031C00003D02046FFF7E8FF05E0204600F0CAF8EC
:1031D000204600F0F5FA00202077700718D515F08A
:1031E000040015D020686FF00401016102212177ED
:1031F000806910F4407F03D02046FFF7CDFF05E043
:10320000204600F0AFF8204600F0DAFA00202077E0
:10321000300717D515F0080014D020686FF00801AA
:10322000016104212177C069800703D02046FFF7A0
:10323000B3FF05E0204600F095F8204600F0C0FA04
:1032400000202077F00618D515F0100015D0206862
:103250006FF01001016108212177C06910F4407FEF
:1032600003D02046FFF798FF05E0204600F07AF8EB
:10327000204600F0A5FA00202077F00718BF15F0CF
:10328000010006D020686FF001010161204600F0C6
:103290004DFB16F4025F05F0800718BF002F02D126
:1032A000F00509D410E020686FF402510161204656
:1032B000FFF7B6FCF00507D537B120686FF48071D1
:1032C00001612046FFF7AAFC700609D515F0400001
:1032D00006D020686FF040010161204600F036FB07
:1032E000B00609D515F0200006D020686FF0200147
:1032F00001612046FFF796FCF00209D515F4801015
:1033000006D020686FF4801101612046FFF7FCFCB5
:10331000B00209D515F4001006D020686FF4001132
:1033200001612046FFF7EEFC700209D515F480001C
:1033300006D020686FF4800101612046FFF7E6FCAB
:1033400030020CD515F4000009D021686FF400029A
:1033500020460A6101B0BDE8F040FFF749BD01B069
:10336000F0BD00007047000090F83C30012B04BF16
:10337000022070474FEAB2020123052A80F83C3050
:1033800000F2E4812DE9F041DFE812F0060044018B
:103390009000EA0053009C0103681D6A1A6AA3F1B9
:1033A000804622F001021A621A46D3F8048052F8CD
:1033B00018CF8F68A6F59636D1F800E025F0020503
:1033C0004FEAB626092E45EA07050BD80127B74074
:1033D00040F2E52427421FBFCC6825F00C0524F0FD
:1033E00004042543092E0CD80124B44040F2E526FC
:1033F00034421FBFD1E9054628F440773C4344EAF4
:1034000006084FF68C74CFF6FE740CEA040747EA00
:103410000E07C3F804809F614F6809695F631D62EE
:103420009F6947F008079F619F6927F004079F6124
:1034300086E10368D3F820C01A6AA3F1804722F41A
:1034400080321A621A46A7F596375D6852F8508F97
:10345000D1F800E08E684FEAB727092F0AD8012477
:10346000BC4040F2E5273C421EBF4C6925F4803544
:1034700045EA04252CF4003747EA06474FF68C76D8
:10348000CFF6FE76033606EA080646EA0E065D60CB
:103490001E654E6809699E641F621F6D47F008072C
:1034A0001F651F6D27F004071F6549E1036842F699
:1034B00000461D6A1A6AC4F2010622F480721A627A
:1034C0001A46D3F804C052F81CEFB3428E68D1F804
:1034D000008025F4007545EA06250BD045F200066C
:1034E000C4F20106B34205D043F20046C4F201061D
:1034F000B34207D1CE6840F2FF47360225F440655B
:10350000BE433543A3F18046A6F596364FEAB6266C
:10351000092E0DD8012707FA06F640F2E5273E42AC
:103520001FBFD1E905672CF44054374344EA071C18
:103530004FF68C74CFF6FE740EEA040747EA0807CC
:10354000C3F804C0DF614F680969DF631D62DF698A
:1035500047F00807DF61DF6927F00407DF61EFE06C
:10356000036842F600461D6A1A6AC4F2010622F494
:1035700080521A621A46D3F804C052F81C8FB34224
:103580008E68D1F800E025F4005545EA06350BD0E9
:1035900045F20006C4F20106B34205D043F20046EC
:1035A000C4F20106B34207D1CE6844F6FF77360372
:1035B00025F44045BE433543A3F18046A6F5963633
:1035C0004FEAB626092E0DD8012707FA06F640F273
:1035D000E5273E421FBFD1E905672CF4404437433D
:1035E00044EA871C48F6FF44CFF6FF6404EA080467
:1035F00044EA0E27C3F804C0DF614F6809691F64FD
:103600001D62DF6947F40067DF61DF6927F48067C7
:10361000DF6194E0036842F600461D6A1A6AC4F24C
:10362000010622F010021A621A465C6852F818CF9E
:10363000B3428E68D1F800E025F0200545EA061572
:103640000BD045F20006C4F20106B34205D043F2A6
:103650000046C4F20106B34207D1CE686FF04007BE
:1036600025F0C00507EA06163543A3F18046A6F506
:1036700096364FEAB626092E0DD8012707FA06F628
:1036800040F2E5273E421FBFD1E9056724F44064BC
:103690003E4344EA860448F6FF46CFF6FF660CEA4E
:1036A000060747EA0E275C609F614F6809699F63C0
:1036B0001D629F6947F400679F619F6927F48067D7
:1036C0009F613CE00368D3F820C01A6AA3F18047E9
:1036D00022F480121A621A46A7F596375D6852F8EE
:1036E000508FD1F800E08E684FEAB727092F0AD82B
:1036F0000124BC4040F2E5273C421EBF4C6925F442
:10370000802545EA84252CF4001747EA065748F639
:10371000FF46CFF6FF6606F5407606EA080646EA5B
:103720000E265D601E654E680969DE641F621F6DAE
:1037300047F400671F651F6D27F480671F65090246
:103740001368194300231160BDE8F041002180F89F
:103750003C10184670470000002804BF0120704745
:1037600010B5044690F83D0028B9002084F83C00CC
:10377000204600F023F8022084F83D002068211D37
:1037800000F0B6FD012084F8480084F83E0084F87B
:103790003F0084F8400084F8410084F8420084F837
:1037A000430084F8440084F8450084F8460084F817
:1037B000470084F83D00002010BD00007047000065
:1037C0007047000080B559B10B1F4FEAB30C43227C
:1037D0004FF03F0EBCF1040F38BF0EEBB30200E018
:1037E0003E22825C012A1CBF012080BD61B10A1FFC
:1037F0004FEAB202032A17D8DFE802F002120A0EDB
:10380000022280F83F2012E0022280F83E200EE0E3
:10381000022280F841200AE0022280F8422006E0DD
:10382000022280F8402002E0022280F84320026851
:1038300001F01F000121136A01FA00F083431362B3
:10384000136A18431062A2F18040A0F596304FEA47
:10385000B02342F6FF30072BC4F2010050D8994044
:1038600011F0E50F4CD0516C824241F4004151649B
:103870000DDC40F2FF70C4F20000824216DCB2F1AF
:10388000804F2AD040F20040C4F2000023E043F60B
:10389000FF70C4F20100824213DC42F60040C4F221
:1038A0000100824219D043F2004012E040F60000CD
:1038B000C4F20000824210D040F60040C4F2000082
:1038C00009E045F20000C4F20100824205D044F252
:1038D0000000C4F2010082420CD190680721C0F2BE
:1038E0000101014006294FF0000008D0B1F5803FEA
:1038F00008BF80BD106840F001001060002080BD4E
:103900008242B6DD43F6FF71C4F201018A42C4DD92
:1039100044F20001C4F201018A42DED045F2000106
:10392000C4F201018A429ED0E4E70000006840F240
:103930000041C4F20001884218BF704740F218608D
:10394000C2F2000001680131016070477047000059
:1039500090F88410012904BF022070472421C0F888
:10396000881001680A680B6822F0005223F00103F6
:103970000B60002343660A602021C0F8881080F89D
:10398000843000207047000090F88420012A04BF92
:1039900002207047B0B50123242280F88430C0F89B
:1039A00088200268D0F864E0D2F800C01468BEF144
:1039B000000F24F001041460946824F0606441EA6C
:1039C000040191601BD09168936845F2F45E5B0F2F
:1039D000C0F6000E45F2FC551EF80340C0F6000587
:1039E000EB5CE400B4FBF3F3C1F34261A0F86A308E
:1039F0001EF80130695CDB00B3FBF1F301E0A0F8D5
:103A00006A302021A0F86830C2F800C0C0F88810E1
:103A1000002180F884100020B0BD000090F88420C0
:103A2000012A04BF02207047B0B50123242280F888
:103A30008430C0F888200268D0F864E0D2F800C072
:103A40001468BEF1000F24F001041460946824F09F
:103A5000604441EA040191601BD09168936845F28B
:103A6000F45E5B0FC0F6000E45F2FC551EF80340F5
:103A7000C0F60005EB5CE400B4FBF3F3C1F3426174
:103A8000A0F86A301EF80130695CDB00B3FBF1F38B
:103A900001E0A0F86A302021A0F86830C2F800C028
:103AA000C0F88810002180F884100020B0BD00000C
:103AB00010B5D0B10446D0F8880028B9002084F8A9
:103AC0008400204600F026F82420C4F888002068EE
:103AD000A16A026822F00102026011B1204600F0E2
:103AE000AFFC204600F080FD08B1012010BD216828
:103AF000486820F490404860886820F02A00886078
:103B0000086840F0010220460A60BDE8104000F05D
:103B10000BBD0000B0B59CB00446002502A854219E
:103B20001B95CDE91955CDE91755FCF7A9FB206880
:103B300044F20041C4F20001884201D01CB0B0BD83
:103B4000022402A802940495FEF7E4F9002818BFA5
:103B5000FDF7CCF841F24C00C4F20200C16841F418
:103B60000031C160C16801F400310191019901681F
:103B700041F002010160006817A900F00200019005
:103B800001981820CDE917040020CDE9190007207D
:103B90001B9040F20040C4F60000FDF767FF1CB028
:103BA000B0BD00002DE9F04381B00446D0F8880094
:103BB000202809D1884600294FF0010018BF002AAB
:103BC00006D101B0BDE8F083022001B0BDE8F0836A
:103BD0000020C4F8900021201D46C4F88800164635
:103BE000FEF720F8A4F85460A4F85660A1680646D1
:103BF000B1F5805F02D12069002852D0C1464FF054
:103C00000008B4F8560060B36F1C0FE0B9F1000F64
:103C10001ED019F8010B21688862B4F856000138EB
:103C2000A4F85600B4F85600D8B100BF2068C069A7
:103C30000006EBD4002FF9D0FDF7F4FF01464FF05A
:103C4000030045B3891BA94225D820680068EDE729
:103C500038F8020B21686FF35F2088624FF000098B
:103C6000DBE72068C069400614D46F1C04E000BF85
:103C70002068C06940060DD4002FF9D0FDF7D2FFAF
:103C800001464FF0030035B1891BA94203D82068D3
:103C90000068EDE700202021C4F8881001B0BDE8DD
:103CA000F0834FF00009ACE7FEE7000010B58CB0E0
:103CB00040F2F030C2F200004FF0A04C4FF400226E
:103CC0000421C0E900C24FF48072816182830162E5
:103CD0004FF4A4614FF4406200240123C0E90B12A9
:103CE0000C2100F1440C0B94CDE90944CDE90744C3
:103CF000CDE90544CDE90344CDE90144C0E90244DE
:103D0000C0E9044380F8244080F83830C46380F868
:103D1000403080228CE816000365FDF71FFB002869
:103D200018BFFCF7E3FF40F2F030C2F2000009A92F
:103D30000994FDF731F8002818BFFCF7D7FF0220DF
:103D4000C0F23040019006207F21029000200491B3
:103D500004210390CDE9051040F2F030C2F20000DA
:103D600001A9FDF7BBF8002818BFFCF7BFFF04202E
:103D7000C0F6600001900C20029040F2F030C2F2D8
:103D8000000001A9FDF7AAF8002818BFFCF7AEFF54
:103D90001020C1F2C00001901220029040F2F030D9
:103DA000C2F2000001A9FDF799F8002818BFFCF73E
:103DB0009DFF4020C1F6201001901820029040F293
:103DC000F030C2F2000001A9FDF788F8002818BF02
:103DD000FCF78CFF0CB010BD80B582B041F24800FA
:103DE000C4F202000168002241F004010160016890
:103DF00001F0040101910199016841F001010160A4
:103E00000068002100F00100009000980B20FDF7F1
:103E1000B7FF0B2002B0BDE88040FDF79FBF000058
:103E20002DE9F04186B0002641F24C000596CDE91F
:103E30000366CDE90166C4F20200016840F60004A1
:103E400041F0040101600168C4F6000401F00401BE
:103E5000009100990168002241F020010160016891
:103E6000022501F0200100910099016841F0010153
:103E70000160016801F0010100910099016841F0C1
:103E8000020101600068022100F002000090009829
:103E90002046FDF7C1FE4FF09040042100224FF074
:103EA0000408FDF7B9FE019501AD0127204629461A
:103EB000CDE902760496FDF7D9FD4FF090402946F2
:103EC000CDE90187CDE90366FDF7D0FD4FF46050E1
:103ED00001A9C1C1A4F580602946FDF7C7FD06B060
:103EE000BDE8F08180B540F2BC4042F60001C2F26C
:103EF0000000C4F2000100224FF0804E7F234FF0FB
:103F0000FF0C80E80E10C0E90422C0E9062E026210
:103F1000FEF7CEFD002808BF80BDBDE88040FCF75D
:103F2000E5BE000070B5A2B042F60045002401A82D
:103F30003421C4F20105CDE91A44CDE91844CDE994
:103F40001644CDE91444CDE91244CDE91044CDE93D
:103F50000E44FCF795F940F2E440C2F20000602103
:103F6000802300F1080C42F23312C0E900548CE8BF
:103F70001600C0E90543FEF73DFF002818BFFCF717
:103F8000B5FE4FF48050189040F2E440C2F20000B9
:103F900018A9FEF7F3FF002818BFFCF7A7FE40F2B0
:103FA000E440C2F20000FFF7D7FB002818BFFCF77F
:103FB0009DFE202015908020179040F2E4400024C0
:103FC000C2F2000015A91694FEF7A2FE002818BF41
:103FD000FCF78CFE60200E9041F29A00CDE90F04B0
:103FE00040F2E440C2F200000EA90822CDE91144DB
:103FF000CDE91344FFF7B8F9002818BFFCF776FEA7
:1040000000264FF4005040F2E444CDE906064FF09C
:104010000070C2F20004CDE90A0601A92046059607
:10402000CDE90366CDE90166CDE90866CDE90C6608
:10403000FEF7FAFD002818BFFCF758FE206821960D
:10404000A842CDE91F661E961D9601D022B070BD14
:1040500041F24C00C4F20200016841F00401016029
:104060000068002100F004001C901C9804201D90A2
:1040700002201E90219040F60000CDE91F11C4F6E9
:1040800000001DA9FDF7F2FC22B070BD80B588B01C
:1040900040F2305040F200420021C2F20000C4F26F
:1040A0000002A92340F2E73C0791CDE90511CDE9D3
:1040B0000311CDE90111C0E90023C0E9021C01612F
:1040C0008161FEF797FE002818BFFCF70FFE4FF442
:1040D0008050049040F23050C2F2000004A9FEF774
:1040E0004DFF002818BFFCF701FE0020019003904F
:1040F00040F23050C2F2000001A9FEF709FE00288C
:1041000018BFFCF7F3FD08B080BD000080B540F299
:104110007C5044F20041C2F20000C4F200010023CE
:104120004FF00C0C4FF4E13280E80E00C0E903338D
:10413000C0E905C3C0E90733C0E90933FFF7B8FC9C
:10414000002818BFFCF7D2FD40F27C50C2F20000FC
:104150000021FFF763FC002818BFFCF7C7FD40F201
:104160007C50C2F200000021FFF70EFC002818BFAF
:10417000FCF7BCFD40F27C50C2F20000FFF7E8FB08
:10418000002808BF80BDBDE88040FCF7AFBD00003F
:10419000FEE70000FEE700007047000070B504462F
:1041A0000068C16821F08001C1608169890640F220
:1041B0005F01C0F2010113D4C160FDF733FD054674
:1041C0002068C068860624D4FDF72CFD401BB0F59E
:1041D0007A7FF5D9002E1CD4032084F8250070BD09
:1041E000826922F020028261C160FDF71BFD054655
:1041F0002068C06886060ED4FDF714FD401BB0F59C
:104200007A7FF5D9002E5ABF032084F825000020BC
:1042100002E0002070BD002021688A6942F020027F
:104220008A6170BD70470000FDF702BD70B594B0A3
:1042300006AC20463821FCF723F800250020059520
:10424000CDE90355CDE90155FDF7D6FDFDF758FE43
:1042500041F29000C4F202000168032621F0180127
:104260000160052006904FF48030079001200890EF
:10427000022055210D90CDE90E60CDE91010CDE959
:1042800012002046FEF7D2F948B1EFF3108072B663
:104290004FF0904004210122FDF7BEFCF8E70F200B
:1042A000CDE9010601A80421CDE903550595FDF7E7
:1042B000C5FF50B1EFF3108072B600BF4FF09040D1
:1042C00004210122FDF7A8FCF8E714B070BD00003E
:1042D0004EF68850CEF20000016841F47001016092
:1042E0007047000040F23050C2F20000FEF756BFA7
:1042F00040F6FF330268C4F2000343F2FF3C9842E9
:10430000C4F2010C0ADD60452EDC40F60043C4F225
:104310000003984234D042F600432DE0B0F1804FC4
:104320002ED040F20043C4F20003984228D040F659
:104330000003C4F20003984222D0604526DC40F21C
:10434000FF73C4F20003984235DD40F60003C4F267
:104350000003984245D040F60043C4F2000398425F
:104360003FD042F6004338E045F20003C4F20103B7
:10437000984205D043F20043C4F201039842DCD1D5
:104380004B6822F070021A436045D8DD44F2FF33D7
:10439000C4F20103984218DD44F20043C4F2010361
:1043A00098421ED045F20003C4F20103984218D08F
:1043B00044F6000311E0B0F1804F12D040F2004308
:1043C000C4F2000398420CD00FE043F20043C4F261
:1043D0000103984205D044F20003C4F2010398425D
:1043E00003D1CB6822F440721A4380B54B6922F0A6
:1043F000800E8A6843EA0E03D1F800C00360C262EF
:10440000A0F18042A2F596324FEAB222092AC0F802
:1044100028C0BDE8804008D8012303FA02F240F228
:10442000E5231A421CBF0969016301214161016949
:10443000C90708BF7047016921F001010161704798
:10444000816A0A070CD4CA0715D18A071ED44A0705
:1044500027D4CA0630D48A0639D44A0642D457E053
:104460000268D0F838C0536823F4004343EA0C03D1
:104470005360CA07E9D00268D0F82CC0536823F40F
:10448000003343EA0C0353608A07E0D50268D0F892
:1044900030C0536823F4803343EA0C0353604A0767
:1044A000D7D50268D0F834C0536823F4802343EA98
:1044B0000C035360CA06CED50268D0F83CC093689E
:1044C00023F4805343EA0C0393608A06C5D502683F
:1044D000D0F840C0936823F4005343EA0C03936080
:1044E0004A0615D5D0F800C0436CDCF80420B3F5BB
:1044F000801F22F4801242EA0302CCF8042007D184
:10450000DCF80420836C22F4C0021A43CCF80420A7
:10451000090658BF70470168C06C4A6822F400223F
:104520001043486070470000B0B582B004460020D8
:10453000C4F89000FDF776FB216805460968090775
:104540001AD56FF07E4C20464FF4001100222B4606
:10455000CDF800C000F0A8F970B100BF206850E8A5
:10456000000F216820F0800041E80002002AF5D108
:1045700003202021882230E020680068400723D5EE
:104580006FF07E4C20464FF4800100222B46CDF880
:1045900000C000F089F9B8B1206850E8000F216828
:1045A00020F4907041E80002002AF5D1206850E81C
:1045B000020F216820F0010041E80202002AF5D133
:1045C000032020218C2208E02020C4F88800C4F8B1
:1045D0008C00002170220020E166A150002184F8A7
:1045E000841002B0B0BD0000F0B581B0044604F103
:1045F00008064ECE0068194341EA0603E1690668E1
:1046000046F6F315CCF6FF752E4033430B4303609B
:1046100043684FF2FF4523F440531A43426048F287
:104620000002A369C4F2000290421CBF266A334311
:104630008668C1F2FF152E4033438360C36A666A01
:1046400023F00F033343C36244F6FF73C4F2000345
:1046500098424FF0100318DC44F20046C4F2000602
:10466000B04227D044F60006C4F20006B0422FD074
:1046700044F60046C4F20006B0423ED141F288033F
:10468000C4F202031B689B092FE045F20006C4F246
:104690000006B04215D0904221D043F60006C4F285
:1046A0000106B04229D141F28803C4F202031B681B
:1046B00079A61EE041F28803C4F202031B689B083E
:1046C00013E041F28803C4F202031B681B0A0CE0EA
:1046D00041F28803C4F202031B681B0905E041F2A2
:1046E0008803C4F202031B689B0A45F2E456C0F635
:1046F000000603F0030356F82330904242F20040D4
:10470000C0F2F40013D0B1F5004F1ED1082B00F217
:1047100064800027DFE803F00569736171616161FE
:10472000B500FDF715FF002840F06A809DE0082BDA
:104730004ED80027DFE803F0054C1E4C184C4C4CBB
:104740001C00FDF705FFB8B98FE0082B49D80027FA
:10475000DFE803F0054F7447724747479C00FDF7B9
:10476000F7FE00286BD180E0FDF71EFF20B97CE04A
:104770004FF40040002878D0616A45F2CA52C0F672
:10478000000232F811206568B0FBF2F305EB450139
:104790008B424FF001016BD32E03B34268D8002146
:1047A0000023FBF735FD090241EA1061000210EB1E
:1047B000550041F100012A460023FBF729FD4FF681
:1047C0000052A0F54071C0F20F0291424BD34EE06F
:1047D000002001270028CFD147E00020012778B929
:1047E00043E00020012750BB3FE0FDF7C7FE38B98A
:1047F0003BE0FDF7C3FE10BB37E0FDF7D5FEA0B3ED
:10480000616A45F2CA52C0F6000232F811106268BD
:10481000B0FBF1F0510801EB4000B0FBF2F04FF6B5
:10482000EF72A0F11001914221D84FF6F0710140D2
:10483000C0F34200084416E0FDF7B6FEA8B1616A75
:1048400045F2CA52C0F6000232F811106268B0FB9D
:10485000F1F000EB5200B0FBF2F04FF6EF72A0F176
:104860001001914203D82168C860394600E0012157
:104870004FF001100022A06662670846A26701B0EF
:10488000F0BD4FF400400028BAD1EEE74FF40040ED
:104890000028D4D1E9E700BF0100000004000000B7
:1048A00002000000080000002DE9F04381B004463A
:1048B0000068C0690840401AB0FA80F0400982429E
:1048C00057D1DDF8208015460E46994608F10107BC
:1048D00009E000BF2068C0693040801BB0FA80F05A
:1048E0004009854245D1002FF4D0FDF79BF90146E0
:1048F000B8F1000F4FF003003CD0A1EB0901414596
:1049000038D8206801684907E4D5402EE2D0802ECF
:10491000E0D0C169090730D4C1690905DAD54FF47F
:1049200000610162206850E8000F216820F4907057
:1049300041E80002002AF5D14FF6FE70CEF6FF7076
:10494000216851E8021F2268014042E80213002B4F
:10495000F6D1E06E012809D1206850E8000F2168E7
:1049600020F0100041E80002002AF5D103202021A8
:104970002CE0002001B0BDE8F0830821016200BFF7
:10498000206850E8000F216820F4907041E8000290
:10499000002AF5D14FF6FE70CEF6FF70216851E87F
:1049A000021F2268014042E80213002BF6D1E06E9C
:1049B000012809D1206850E8000F216820F010007C
:1049C00041E80002002AF5D1012008212022C4F884
:1049D0008C200022E2666267C4F8901084F884207C
:1049E00001B0BDE8F0830000FEE7000080B582B0B2
:1049F000019040F27C50C2F2000001A90122322352
:104A0000FFF7D0F8019802B080BD000088B0FDF734
:104A10001DF9FFF70BFCFFF703FAFFF7DDF9FFF7CE
:104A200061FAFFF743F9FFF771FBFFF72FFBFFF781
:104A300079FAFBF7D3FF40F20401C2F200014FF014
:104A40007E50086040F24400C2F20000FCF73EF9DC
:104A500040F23050C2F20000FEF734FA40F2F0307B
:104A6000C2F200007F21FCF74DF950B1EFF3108046
:104A700072B600BF4FF0904004210122FDF7CCF840
:104A8000F8E740F2F03040F22201C2F20000C2F238
:104A900000010822FCF7F0FD48B1EFF3108072B678
:104AA0004FF0904004210122FDF7B6F8F8E740F2FC
:104AB000E445C2F2000540F2004B2846C4F6000B64
:104AC000FEF700FA28460821FEF77CFEE868B6EEFD
:104AD000008A013000EE100AB8EE400A20EE080A03
:104AE0002968BDEEC00A10EE100AC8630BF580609D
:104AF00002210122FDF790F840F2186540F210649F
:104B000040F220089FED469A40F21009C2F20005DB
:104B1000C2F20004C2F20008B2EE04AAB7EE00BA74
:104B2000C2F200090FF2FC0A3DE000BF58464FF404
:104B30000051FDF76BF800284CD0002088F80000E9
:104B400040F23400C2F200000068FBF7A4FB064606
:104B500040F2B000C2F2000000680F46FBF79BFB7A
:104B600041EC1C0B40F2E030C2F200000068FBF7A1
:104B700092FB41EC1D0B40F20400C2F20000006801
:104B8000FBF789FB41EC1E0BD9F80000FBF783FB18
:104B900041EC100B504632463B468DEC06CB8DED7A
:104BA000060B00F08DF828682168401AC828BDD38C
:104BB00040F21463C2F20003286819782060B1FA49
:104BC00081F042094FF0904008211A70FDF724F857
:104BD000ACE700BF0A20FCF735FF58464FF4005100
:104BE000FDF714F80028ABD198F800000028A7D1F1
:104BF00040F20401C2F2000191ED000A30EE090A10
:104C000020EE0A1A31EE081ABDEEC11A11EE100A92
:104C10000F28C8BFB0EE4B0A81ED000A01208DE7D6
:104C2000CDCCCC3D252E33662C252E33662C252E5F
:104C300033662C252E33662C252E3366200D0A0074
:104C400040F2980CC2F2000CBCF8002040F2B80010
:104C5000C2F2000000EB820282ED000ABCF80020E4
:104C600045F629430132C0F28F23A2FB03316423AE
:104C700001FB1321ACF8001040F29001C2F20001D8
:104C80000A88632A02D80A8801320A8009886429BE
:104C900038BF70479FED080A6FF00301421892ED8C
:104CA000011A0431B1F5C67F30EE010AF6D19FED4D
:104CB000031A80EE010A7047000000000000C8429D
:104CC0000FB4054B10B503A9044A029800F0DAF8B6
:104CD00010BC5DF814FB0000ED4900080000002046
:104CE00002E008C8121F08C1002AFAD170477047B5
:104CF000002001E001C1121F002AFBD17047000013
:104D00002DE9FF5F82B00021DDE90430020DDDF8FE
:104D100040B0034318D044F61050A2F2FF32424391
:104D20001514119801281FD0A5EB0B00401C5FEA59
:104D3000000A4FF000064E4FDFF83891B04650465B
:104D400015D5CAF1000413E0119801244AA30128E3
:104D500001D16FEA0B010298119AC0E90031C0E954
:104D6000024206B0BDE8F09FCBF10000DFE7044649
:104D70000021404A491842EB0450CDE9001012E0EE
:104D8000E00707D032463B4640464946FBF772FBF8
:104D90008046894632463B4610461946FBF76AFB79
:104DA00006460F466410002CEAD1DDE90401DDE976
:104DB0000023BAF1000F06DAFBF75CFB42464B46D4
:104DC000FBF758FB05E0FBF7C7FB42464B46FBF7FA
:104DD000C3FB04460E460022284BFBF745FC03D8D4
:104DE0004FF0FF30014607E00022254B20463146B8
:104DF000FBF799FAFBF71FFC102409E0002C0ADBF3
:104E00000A220023FBF704FA039B30321A55641E72
:104E100050EA0102F2D1641C039AC4F11103144454
:104E2000119A012A03D0012208430DD10AE0084358
:104E300004D000204FF0110B119072E7A3EB0B058B
:104E40006D1E0DE05B4504DD4FF0000205F101052C
:104E500004E003DA4FF00002A5F10105002AECD0CE
:104E600002981199C0E90231C0E9004579E70000D4
:104E7000000014400000F03F300000000000F0434C
:104E80000000E03F2DE9FF4F95B09B46894606465E
:104E900000250FE2252877D100242746F84A012172
:104EA000059400E0044316F8013F203B01FA03F0AB
:104EB0001042F7D130782A2811D06FF02F033078C4
:104EC000A0F13002092A16D8059A44F0020402EB38
:104ED000820203EB42021044761C0590EFE759F87A
:104EE000042B0592002A03DA504244F40054059042
:104EF00044F00204761C30782E2816D116F8010FE3
:104F000044F004042A280DD06FF02F023078A0F16D
:104F10003003092B09D807EB870302EB4303C718BB
:104F2000761CF3E759F8047B761C30786C280FD098
:104F300006DC4C2817D068280DD06A2814D104E06C
:104F4000742810D07A280FD10DE044F400140AE040
:104F500044F4801401E044F440147278824202D197
:104F600004F58014761C761C307866280BD013DC90
:104F7000582877D009DC002875D04528F6D0462877
:104F8000F4D047281AD19DE118E0632835D0642871
:104F900079D0652812D195E1702873D008DC672894
:104FA000F1D069286FD06E280DD06F2806D1B5E0FA
:104FB00073282CD0752875D0782874D05A46179944
:104FC00090476D1C75E1C4F30250022809D00328F4
:104FD0000DD0D9F8001004280DD00D6009F1040996
:104FE00067E1D9F80010EA17C1E90052F6E7D9F8ED
:104FF00000100D80F2E70D70F0E719F8041B8DF832
:10500000001000208DF80100EA46012003E059F865
:1050100004AB4FF0FF3061074FF0000102D40DE008
:1050200008F101018846B9420FDA8045F8DB1AF829
:1050300008100029F4D108E008F1010188468142F6
:10504000FADB1AF808100029F6D105985B46A0EBA8
:10505000080721463846179A00F094FA284400EBD6
:10506000080507E04DE029E10DE01AF8010B5A466A
:1050700017999047B8F10108F7D25B4621463846A8
:10508000179A13E142E00A220092C4F302524FF051
:10509000000A022A08D059F804CB032A4FEAEC711F
:1050A0000AD00DE029E02AE009F1070121F007020A
:1050B000F2E802C1914609E00FFA8CFC4FEAEC716C
:1050C000042A03D14FFA8CFC4FEAEC71002907DA6D
:1050D0000A460021DCF1000C61EB02012D2202E006
:1050E000220504D52B228DF80420012203E0E207DB
:1050F00001D02022F7E7904659E00A2102E0102271
:105100000DE010214FF0000A00910BE010224FF04B
:10511000000A44F004040827009203E008224FF03C
:10512000000A0092C4F30252022A05D059F804CBB7
:105130000021032A08D009E009F1070121F0070244
:10514000F2E802C1914605E01FFA8CFC042A01D165
:105150000CF0FF0C4FF00008220728D5702806D06D
:10516000009B83F0100353EA0A0305D00EE04022AF
:105170008DF80420012208E05CEA010206D030220A
:105180008DF804208DF8050002229046009B83F0E4
:10519000080353EA0A030AD15CEA010201D162075B
:1051A00005D530228DF804204FF001087F1E5828C5
:1051B00004D034A003900EA802900DE036A0F9E7C9
:1051C00053466046009AFBF723F884460398825CB6
:1051D0000298401E029002705CEA0100F0D1029831
:1051E00006A9081A00F1200A600702D524F48034C9
:1051F00000E00127574502DDA7EB0A0000E0002090
:1052000000EB0A01009005984144401A0590E00324
:1052100006D45B462146179A059800F0B3F9054479
:10522000002706E001A85A46C05D179990476D1CFB
:105230007F1C4745F6DBE0030CD55B462146179AF9
:10524000059800F09FF9054404E030205A4617996C
:1052500090476D1C0099481E00900029F5DC08E07D
:10526000029802995A460078491C02911799904772
:105270006D1CBAF10001AAF1010AF1DC65E1000040
:10528000092801003031323334353637383961621C
:1052900063646566000000003031323334353637E0
:1052A00038394142434445460000000000F058F9B7
:1052B0000544761C307800287FF4ECAD19B0284600
:1052C000BDE8F08F620700D4062709F1070222F03B
:1052D000070CFCE80223E14603F000485FEA080CF3
:1052E00002D00FF2702C0DE05FEA045C02D50FF2E1
:1052F000682C07E05FEAC47C02D00FF2602C01E06A
:10530000AFF2700C4FF0FF3823F00043CDF850C0DF
:1053100065280CD006DC452809D046281DD0472832
:105320003DD13DE0662818D067287ED138E00021C5
:10533000112F01DB112000E0781CCDE9000106A946
:105340000EA8FFF7DDFCDDE90F010E9A03910021A5
:10535000009207F1010A04914DE04FF000400097E0
:10536000CDE9011006A90EA8FFF7CAFCDDE90F027E
:1053700003920E9B11990022DDF80CA00093049279
:1053800011B9791C00EB010AB7EB0A0004D4C0F193
:10539000FF3007F1010A0490AAEB0700019044E0F6
:1053A000012F00DA01270021112F01DD112000E07B
:1053B0003846CDE9000106A90EA8FFF7A1FCDDE9FA
:1053C0000F010E9A0391002104910092BA46210721
:1053D0000CD40399514500DA8A46BAF1010F05DD74
:1053E000009AAAF10101515C302908D0B84202DAD2
:1053F00010F1040F06DA0121CDE9011015E0AAF140
:105400000101E9E7002805DC049901440491AAEBB5
:10541000000102E0411C514500DD8A460499401A12
:10542000401C01904FF000400290200704D40198E6
:10543000504501DBCDF8048000208DF84F00029824
:105440000DF14F07B0F1004F25D02B200E900298A0
:105450004FF0020800280CDA404202902D200E90F6
:1054600007E00A210298FAF729FF3031029007F885
:10547000011DB8F10001A8F10108F2DC0298002832
:10548000EFD1791E0E980870307800F0200040F0BF
:10549000450007F8020D12A8C01B00F10708149878
:1054A000007800B1012000EB0A01019801EBE071E6
:1054B00005984144401A401E0590E00306D45B461F
:1054C0002146179A059800F05DF805441498007875
:1054D00018B15A46179990476D1CE00324D55B46D6
:1054E0002146179A059800F04DF805441CE00498F1
:1054F000002807DBDDE90301884203DD0098405CFA
:10550000179901E0179930205A469047049805F101
:105510000105401C04900198401E019004D12E20EA
:105520005A46179990476D1CBAF10001AAF1010A79
:10553000DDDC05E017F8010B5A46179990476D1C02
:10554000B8F10001A8F10108F4DC5B462146179A86
:105550000598ABE62D0000002B00000020000000A5
:105560002DE9F041044600251E461746880404D460
:1055700005E039462020B0476D1C641EF9D5284649
:10558000BDE8F0812DE9F041044600251E46904615
:10559000C80301D5302700E02027880404D505E0A2
:1055A00041463846B0476D1C641EF9D52846BDE813
:1055B000F081000000000000000001020304060763
:1055C00008090000000001020304010002000400B9
:1055D000060008000A000C001000200040008000B7
:1055E00000010000000000000400000002000000B4
:1055F0000800000001010103070100000804020483
:1056000008010101285600080000002020000000C9
:10561000E04C00084856000820000020200D000043
:10562000F04C000800000000000000000000803F77
:10563000000094410024F4000000003F010000003D
:08564000100000000000000052
:04000005080001D915
:00000001FF
