:020000040800F2
:1000000068360020ED010008715E0008C95500083F
:10001000995D0008B9090008118D00080000000072
:10002000000000000000000000000000E57E000865
:100030008111000800000000A1750008DD800008A3
:10004000070200080702000807020008070200086C
:10005000070200080702000807020008070200085C
:1000600007020008070200080702000869110008DB
:1000700075110008070200080702000807020008BF
:10008000070200080702000807020008070200082C
:10009000070200080702000807020008070200081C
:1000A00007020008F58000080702000807020008A0
:1000B00007020008070200080702000807020008FC
:1000C00007020008070200080702000807020008EC
:1000D00007020008070200080702000807020008DC
:1000E00007020008070200080702000807020008CC
:1000F00007020008070200080702000807020008BC
:1001000007020008070200080702000807020008AB
:10011000070200080702000807020008070200089B
:10012000070200080702000807020008070200088B
:10013000070200080702000807020008070200087B
:10014000070200080702000807020008070200086B
:10015000070200080702000807020008070200085B
:10016000070200080702000807020008070200084B
:10017000070200080702000807020008070200083B
:10018000070200080702000807020008070200082B
:10019000070200080000000007020008070200082C
:1001A000070200080702000807020008070200080B
:1001B00007020008070200080702000807020008FB
:1001C00007020008070200080702000807020008EB
:1001D0000702000807020008DFF80CD000F05CFA04
:1001E00000480047118F0008683600200648804705
:1001F00006480047FEE7FEE7FEE7FEE7FEE7FEE70C
:10020000FEE7FEE7FEE7FEE7E1800008D90100080F
:100210002DE9F05F0546002092469B46884606463B
:10022000814640241BE0284641464746224600F0CE
:100230006AF853465A46C01A914110D311461846DF
:10024000224600F051F82D1A67EB01084F4622466E
:100250000120002100F048F817EB00094E41201E54
:10026000A4F10104DFDC484631462A464346BDE896
:10027000F09FD2B201E000F8012B491EFBD270477B
:100280000022F6E710B513460A4604461946FFF762
:10029000F0FF204610BD00F0004230F000400AD0D0
:1002A000C10D01F56071C0F3160042EA0151C208A8
:1002B00040071143704700200146704730B50B4698
:1002C000014600202022012409E021FA02F59D4286
:1002D00005D303FA02F5491B04FA02F52844151E5A
:1002E000A2F10102F1DC30BD202A04DB203A00FA41
:1002F00002F1002070479140C2F1200320FA03F37D
:10030000194390407047202A04DB203A21FA02F07A
:100310000021704721FA02F3D040C2F1200291403F
:100320000843194670472DE9FE4F804681EA0300D5
:10033000C00F0C46009021F0004123F00045B8EBBF
:100340000200A94105D24046214690461C460B4674
:10035000024623F00040104347D0270DC7F30A00A0
:10036000C3F30A510290401A019040286BDAC3F39C
:10037000130040F4801B0098924620B10023D2EB7A
:10038000030A63EB0B0B01985946C0F1400250463B
:10039000FFF7AAFF06460D4650465946019A00F05F
:1003A00093F910EB08006141002487EA115284EAB6
:1003B000E7731A4340D0009A62B3019A012A4FEAC8
:1003C000075215DC001B61EB02014FF0004202EA0C
:1003D0000752CDE90042001C41F5801132462B4600
:1003E00000F093F903B0BDE8F08F40462146F9E7ED
:1003F000001B61EB0201001C41F5801300185B41FA
:100400002018A2F5001747EB030140EAD570B61992
:100410006D4111E06D084FEA360645EAC0754FEAB6
:100420000752001B61EB0201001C41F580114908D5
:100430004FEA30000019514132462B4603B0BDE867
:10044000F04F00F053B90098012240000023D0EB98
:10045000020263EBE073009821464FEAE074B8EBC8
:10046000000061EB0401E9E783F000435BE781F002
:10047000004158E72DE9FE4F81EA030404F00044EF
:1004800021F0004100944FF0000B23F0004350EAAC
:1004900001045ED052EA03045BD0C3F30A54C1F3F3
:1004A0000A552C44A4F2F3340194A0FB0254C1F386
:1004B000130141F48011C3F3130343F4801301FBD0
:1004C000024400FB034E840A970A44EA815447EA37
:1004D0008357A4FB076802958D0A05FB07854FEA41
:1004E000932C04FB0C542705029D4FEA065847EA5B
:1004F0001637B5EB08056EEB070C870E920E47EA30
:10050000811742EA8312A7FB0201B6EB0B0164EBF1
:1005100000042B0D43EA0C335E1844EB1C50DA4602
:100520005146E7FB0201C5F313044FEA0B3343EADC
:1005300014534FEA0432019C43EA0603A4F10C046D
:100540000294009CCDE900B400F0DFF803B0BDE8F0
:10055000F08F00200146F9E72DE9F04D81EA030410
:1005600004F0004B21F0004514464FF0000A23F040
:10057000004150EA050220D054EA01021DD0C5F323
:100580000A570246C5F31303C1F31300C1F30A5619
:1005900040F4801543F48013A7EB0608101BD646E1
:1005A00008F2FD3873EB050002D308F1010801E001
:1005B00092185B41B8F1000F03DA00200146BDE854
:1005C000F08D00204FF48011064684460EE0171B84
:1005D00073EB050705D3121B63EB050306434CEAD7
:1005E000010C49084FEA300092185B4150EA0107BC
:1005F000EDD152EA030012D082EA040083EA050139
:10060000084305D0101BAB4106D20122002306E0AF
:1006100000224FF0004302E06FF0010253101AEB8A
:1006200006004CEB085110EB0A0041EB0B01BDE852
:10063000F04D00F05BB8C1F30A52C1F3130140F270
:10064000FF3341F480119A4202DA002001467047DC
:1006500040F233439A42A2F2334202DC5242FFF7A5
:1006600052BEFFF741BE000030B5041E71F1000418
:1006700004DB4FF00044404264EB0101141E73F1AF
:10068000000405DB1C464FF00043524263EB0403B9
:10069000994208BF904230BD1CB5094800900948F6
:1006A00001900546009C06E0E06840F0010394E8F4
:1006B000070098471034AC42F6D3FFF791FD0000D5
:1006C000C4B20008E4B20008202A06DBCB17203AA7
:1006D00041FA02F043EAE07306E041FA02F3D04047
:1006E000C2F12002914008431946704710B5141E0C
:1006F00073F1000408DA401C41F1000192185B41DB
:100700001A4301D120F0010010BD2DE9F04D9246B1
:100710009B4611B1B1FA81F202E0B0FA80F22032C8
:100720009046FFF7E1FD04460F4640EA0A0041EA21
:100730000B0153465A46084313D0114653EA0100B1
:1007400019D0C8F140025046FFF7DDFD05460E46C0
:10075000504659464246FFF7C7FD084305D00120E1
:1007600004E020463946BDE8F08D0020054346EA06
:10077000E0762C4337430A986305E40AA0EB0800AF
:100780000022FD0A44EA47540A3002D500200146FF
:10079000E9E7010510196941DDE9084500196941DA
:1007A000BDE8F04DA2E700000146806AC36DC26D4E
:1007B00013F0500F08D0D20648BF02F0F9BA406DCE
:1007C000426B0846104700BF42F40071C1650168E2
:1007D0000B68CA681B0703D4910707D501F090B9CD
:1007E00012F4406FFAD1C9688904F7D4C16D21F4BD
:1007F0008071C165C16DC90448BF01F081B9C16D87
:1008000041F00101C16501F07BB90000806AC16D52
:1008100041F04001C165016E41F00401016602F042
:10082000C7BA0000806A02F0C1BA0000B0B5016822
:1008300004468A688868C0074FF0000031D012F083
:10084000020218BFB0BD886800F00D0001281FD15A
:1008500088684FF6C072C7F6FF7210400230886099
:100860000320086002F058FF21688968C90704BFA7
:100870000020B0BD054602E08068C00712D002F03B
:100880004BFF411B20680329F6D38168C907F3D0C9
:10089000E06D40F01000E065206E40F00100206641
:1008A0000120B0BD0020B0BD70B582B0044600206C
:1008B000019021688A68D20711D14FF6C076C7F639
:1008C000FF76886806F17F0210420BD0E06D40F0A1
:1008D0001000E065206E40F001002066012002B0AB
:1008E00070BD00BF88684FF4C162304040F0010025
:1008F000886040F20010C5F20000814208BF4FF44A
:100900000272B1F1A04F08BF4FF4027210580002FA
:1009100022D402F001FF21680A68D20718D10546E7
:1009200003E000BF0868C00712D18868C00704D17F
:100930008868304040F00100886002F0EDFE401B06
:1009400021680328EED30868C007EBD1BEE700BFDB
:10095000002002B070BD00BF40F24C00C2F20000A7
:10096000006842F663518009C0F23E51A0FB0101CC
:10097000880900EB40000C2101EB800001900198F8
:100980000028C6D001980138019001980028C0D0F5
:1009900001980138019001980028BAD001980138D7
:1009A000019001980028B4D0019801380190019875
:1009B0000028E7D1ADE70000FEE7000010B54BF6D8
:1009C00088634DF64D7141F261524BF69964C3F65E
:1009D0007F73C3F67F71CBF6FF72C3F67F74C0E9F5
:1009E0000A31C0E90C21C0E90E244DF6597145F2D7
:1009F000C6324DF6447C49F28D6EC3F67F71CBF65C
:100A0000FE724BF6B26300F14804C3F67F7CCBF66E
:100A1000FF7EC3F67F73C0E910120EC40021C0E947
:100A200008CEC0E90011C0E90211C0E90411C0E913
:100A300006CE10BD0021C0E90011C0E90211C0E9D5
:100A40000411704790ED061A90ED002A21EE001A6D
:100A500031EE021A90ED092A90ED076A90ED013A05
:100A600022EE012A26EE006A36EE422A90ED086A4E
:100A700033EE022A90ED0A3A26EE000A90ED0B6A58
:100A800090ED024A23EE013A30EE433A26EE010A97
:100A900030EE044A90ED0E0A90ED0C6A90ED035A88
:100AA00020EE040A26EE016A36EE400A35EE005AC0
:100AB00090ED0F0A90ED0D6A20EE040A26EE011A61
:100AC00031EE401A90ED100AD0ED042A90ED116A33
:100AD000D0ED130A20EE040A90ED127AD0ED141A2C
:100AE00030EE220A60EE800A26EE046AD0ED052A76
:100AF00036EE606A61EE800A27EE044A32EE866ABC
:100B000034EE604A80ED002A80ED013A80ED025A11
:100B100080ED031A80ED046A80ED054A70470000FD
:100B200070B540F23410C2F200004FF07C51002248
:100B300040F2000C40F2000E0025C4F220124BF2ED
:100B400017730024CCF2C82CC4F2702EC0E90051F7
:100B500000F10801C3F65103C4F2C82481E81C5017
:100B60004CF6CD4147F6E12C49F69A1E0026C3F615
:100B70004C51C3F6147CC3F6196EC4F2A0060446A9
:100B8000C56144F8205F41628262C362C0F830C030
:100B9000C0F834E0C0E90E6506F0CAFB204606F056
:100BA000C7FB40F2580040F214010022C2F20000DC
:100BB000C2F20001C4F25C2280F827508A6085846A
:100BC00080F8265070BD000070B540F2341440F239
:100BD0005805C2F20004C2F200050026204685F83E
:100BE000276006F0A5FB04F1200006F0A1FB08F049
:100BF00091FA40F20040C4F600004FF40071012267
:100C000002F084FDAE8485F8266070BDB0B540F278
:100C1000D40000210024C2F20000C4F2F001C4F2AA
:100C2000C00400250022C0E9105100F14801C0E9CC
:100C3000164540F25800C4F2A0224BF2177341F25D
:100C40007B4C45F6294EC2F20000C3F65103C3F6B1
:100C50006E7CC3F68F5E81E80C5080F8235040F222
:100C60001400C2F200004FF07E514160B0BD0000A0
:100C700080B540F25800C2F20000002180F8231035
:100C800040F2D400C2F20000403006F051FB08F000
:100C900041FA40F20040C4F600004FF40071012216
:100CA000BDE8804002F032BD70B542F60C44C2F29D
:100CB0000004204606F0B2FD204606F0BFFD40F2DB
:100CC000941344F200024BF2177140F2000E00251B
:100CD000C2F20003C4F21C62C3F65101C4F27A4EA0
:100CE000CCF27A45C3E90A21C3E90CE500224EF2B1
:100CF00048154EF2481EC4F22812C3F67A75CBF698
:100D00007A7E4CF6CD44C3E91221C3E9145E40F269
:100D1000F4120025C3F6CC540020C2F20002C4F243
:100D2000C82540F2000CC3E908040026C3E91004FA
:100D30000024C2E903154EF68535C4F2702CC4F2C6
:100D4000E006CCF2C824C3F61175C3E90EC0C3E9AE
:100D500016604FF07C530026C2E9054C49F69A1400
:100D600040F2000CC2E90B1540F25801C4F2201603
:100D700082E849004CF6CD43C3F61964C4F2A00CD6
:100D800002F1200EC2F20001D061C3F64C538EE88E
:100D90004900C2E90D4CD06381F82A0008648886B6
:100DA000486588828875C87170BD000010B542F62C
:100DB0000C40C2F2000006F041FD40F29414C2F271
:100DC000000404F1200006F0B3FA04F1400006F03C
:100DD000AFFA40F2F414C2F20004204606F0A8FA7A
:100DE00004F1200006F0A4FA40F25800C2F200001C
:100DF00000218186416581828175016480F82A1015
:100E0000C0F803104172C17110BD0000F0B581B08F
:100E100040F2F4100026C2F200004FF07C51002294
:100E20000027002440F2000CC4F220124BF217738A
:100E3000C4F2C827CCF2C824C4F2702CC0E91061F7
:100E400000F14801C3F651038CC1C0E9154CC665D9
:100E500040F254274CF6CD40C2F20007C3F64C5086
:100E600049F69A11C3F6197149F69A1440F2000C2A
:100E7000C7E9006007F1100040F25805C3F6196495
:100E8000C4F2C00C80E8121042F61810C2F200053D
:100E9000C2F20000C5F817606E86EE66EE76AE65AB
:100EA000C7E90223FE6106F045FE40F2C024C2F20B
:100EB0000004204606F06EFF07F1440006F080FDB6
:100EC00004F12C0006F0AEFA42F6C400C2F20000B3
:100ED000FFF774FD40F2D400C2F20000183000F0B9
:100EE000AFF907F1200000F053F940F2B070C2F200
:100EF000000000F0B7F92E7201B0F0BDB0B540F2BD
:100F0000F410C2F20000403006F012FA40F254240D
:100F1000C2F20004204606F00BFA42F61810C2F2A4
:100F2000000006F03DFE40F2C025C2F20005284652
:100F300006F050FF04F1440006F056FD05F12C00C8
:100F400006F0B4FA42F6C400C2F20000FFF772FDE8
:100F500040F2D400C2F20000183000F07BF904F136
:100F6000200000F03BF940F2B070C2F2000000F047
:100F7000BDF940F25800C2F200000021C0F81D1077
:100F8000A0F82110C0F8171080F82D104186C16616
:100F9000A0F81B1001648165C0F803100181B0BD89
:100FA000B0B540F21400C2F200000121017040F21D
:100FB00034100024C2F200004FF07C51C4F27024BF
:100FC0000025C0E9105100F14807C0E9164540F27C
:100FD0009410002240F2000C40F2000EC2F2000019
:100FE000C4F220124BF21773C4F2C82CCCF2C82EF4
:100FF000C0E9005100F10801C56142F66C30C3F64A
:10100000510387E80C5046F266644CF6CD4C40F232
:10101000000EC2F20000C3F66674C3F6CC5CC4F2E4
:10102000E00E81E81C5006F0BDFA42F6C400C2F2A0
:101030000000FFF7C3FC42F61810C2F2000006F0F1
:1010400079FD40F2C020C2F2000006F0A3FE40F29B
:10105000D400C2F200003030BDE8B04007F05ABE04
:1010600010B508F057F840F20040C4F600008021A7
:101070000022002402F04AFB40F23410C2F20000C9
:10108000403006F055F940F29410C2F2000006F02C
:101090004FF942F66C30C2F2000006F0E9FA42F66F
:1010A0001810C2F2000006F07BFD40F2C020C2F230
:1010B000000006F08FFE40F2D400C2F20000303093
:1010C00007F036FE42F6C400C2F20000FFF7B2FCA1
:1010D00040F25800C2F200000461C0F803404472BC
:1010E000C481C0E91044846480F8294040F21400AF
:1010F000C2F20000047010BD80B542F6C400C2F216
:101100000000FFF75BFC42F61810C2F2000006F088
:1011100011FD40F2C020C2F2000006F03BFE40F29A
:101120005800C2F20000002180F8281080BD0000A5
:1011300080B540F25800C2F20000002180F828106B
:1011400042F6C400C2F20000FFF774FC42F6181029
:10115000C2F2000006F024FD40F2C020C2F20000FE
:10116000BDE8804006F036BE42F6C810C2F200006C
:1011700002F05EB842F62820C2F2000002F058B831
:1011800070470000EFF3108072B600BFFEE700006A
:10119000B0B50021C4F27A4101624EF2F95145F630
:1011A0002943C3F67A314EF2F9524FF6B1644BF24D
:1011B000177C4CF2AC5EC3F68F53CBF67A32CBF68B
:1011C0003974002580E8360000F11001C3F6510C97
:1011D000C3F2277E81E82050C361B0BD0021C0E981
:1011E0000311704790ED001A90ED012A90ED034A2B
:1011F00090ED023A90ED045A22EE042A21EE001AF4
:1012000031EE021A23EE052A31EE422AB0EE001A20
:10121000B4EE412AF1EE10FA0ADCB8EE003AB4EE70
:10122000432AB0EE421AF1EE10FAB8BFB0EE431AFC
:1012300080ED030AB0EE410A80ED041A7047000009
:1012400000214FF20922C4F25C21C3F69442C0E9A6
:10125000002170477047000090ED001A20EE010A4F
:10126000704700002DE9F0474FF6F454C3F634748C
:1012700004644AF68D344AF68D35C4F6B134CCF6A2
:10128000314545F6412645F67B774DF249710023FD
:10129000C0E9004500F108054BF2177849F6A63978
:1012A0004CF2AC5A40F2000C4CF2000EC4F6F6665A
:1012B000CCF63877C4F6936140F23B32D0C500F1EA
:1012C0001404C0E908332830C3F65108C3F6C42912
:1012D000C3F2277AC4F25C2CC4F28F4EC3F205022B
:1012E0000EC480E80857BDE8F08700000021C0E97F
:1012F0000711C0E90911704790ED074AD0ED000AC7
:10130000D0ED011A90ED041A90ED052A90ED085ADF
:1013100090ED096A90ED0A7AD0ED022A61EE841A06
:1013200060EE800A70EEA10A22EE855A22EE072AAC
:1013300021EE061A90ED063A35EE205A31EE021AE9
:1013400035EE411A23EE011A80ED070AB0EE410A8C
:1013500080ED084A80ED091A80ED0A6A70470000A6
:1013600040F2AC71C2F200010878012818D040F2B6
:101370006300C2F200000078012818BF704740F2F5
:101380006100C2F200000278012008708ABB40F2BE
:101390006000C2F20000007820B1072029E000BF01
:1013A000704700BF40F25E00C2F20000007808B152
:1013B00002201EE040F25D00C2F20000007808B199
:1013C000032016E040F25F00C2F20000007808B18E
:1013D00006200EE040F25B00C2F20000007808B187
:1013E000042006E040F25C00C2F20000007828B160
:1013F000052040F26401C2F200010870B0B540F26D
:101400005800C2F200000021017040F25900C2F2FF
:101410000000017040F25A00C2F20000017040F278
:101420007B00C2F20000017040F27F00C2F20000B7
:10143000017040F28000C2F200000170FFF718FC5A
:10144000FFF7C2FBFFF774FEFFF70AFEFFF7AEFCE3
:10145000FFF754FD07F05EFE40F20044C4F60004BE
:1014600020468021002202F051F920464FF40071FD
:101470000122012502F04AF904F580608021012251
:1014800002F044F94FF090408021012202F03EF931
:1014900040F20000C2F200000570BDE8B04005F067
:1014A0002FBD000042F62043C4F2010318684FF438
:1014B000007140F005001860586A002240F4004CAA
:1014C00040F20040C4F60000C3F824C002F01EB988
:1014D00080B542F62040C4F20100016845F2500296
:1014E0001143016040F60000C4F600008021002294
:1014F00002F00CF94FF0904080210022BDE88040BE
:1015000002F004B9B0B582B004460020019094F80E
:101510005800012802D1022002B0B0BD012084F899
:10152000580020460D46FFF781F9E16D10B141F0FA
:1015300010014BE041F2021291430231E165216852
:101540004FF6C073D1F808C0C3F6FF7303EA0C036B
:1015500005F080454DF601622B44C0F2040203F110
:1015600000438B608B68B3F1FF3F2BDC019B0133A1
:101570000193019B93421DD88B68B3F1FF3F21DC9F
:10158000019B01330193019B934213D88B68B3F104
:10159000FF3F17DC019B01330193019B934209D864
:1015A0008B68B3F1FF3F0DDC019B01330193019B7D
:1015B0009342D7D9E06D40F0100020F002010120E5
:1015C00004E000BFE16D012262F30101E165002149
:1015D00084F8581002B0B0BD90F85820012A04BF1A
:1015E0000220704770B582B000220192009202681A
:1015F00040F2080CC5F2000CB2F1A04F0CF1F80556
:1016000008D040F20043C5F200039A4234D10CF5F1
:101610009F6300E02B469B68946823435B072BD4B1
:101620004FF4E063D1F800E0AA4208BF4FF44073E2
:10163000B2F1A04F08BF4FF440735CF80340BEF115
:10164000000F24F4604425D04D6890F8386042F4CF
:10165000807245EA46352C4340F20015C5F200057C
:10166000AA424CF8034027D1DCF80020DCF8004106
:101670002243D20748D129E0C16D41F02001C16564
:101680000121002280F8582002B0BDE870400846D1
:10169000704700BF42F4807140F20012C5F20002B0
:1016A00091424CF803401BD1DCF80010DCF800211B
:1016B0001143C90728D11DE0DCF80024DCF80045FF
:1016C000DCF8005622432A43D2071DD15CF80320E0
:1016D00040F61F748968A243114341EA0E010EE0EF
:1016E000DCF80014DCF80025DCF800661143314317
:1016F000C90709D15CF8031040F61F7291434CF8FA
:1017000003100021BDE700BF0021BAE7F0B581B0AA
:101710000022009290F85820012A03D102210846A5
:1017200001B0F0BD0123076880F85830BB685B0743
:1017300034D4D1E900361F22C6F3012507EB850515
:101740002C6B06F01F06B240C3F3846324EA020246
:10175000B3401A432A63BA68BB6802F0040203F07C
:101760000803D21840F0BB800A68042607F114036E
:1017700006EAD25CC2F340668C6853F82650C2F386
:1017800004560722B240B4F1004F25EA02050BD1FE
:1017900043F80C501A6842F000430DE0C16D41F06F
:1017A0002001C1650121A5E104FA06F22A4343F8AC
:1017B0000C201A6822F000437B61D1E90436FD68F1
:1017C000042B5FD13A6E3A6E0B68C2F3846293FACF
:1017D000A3F6C3F3846C6FF3DF43B6FA86F5002BF0
:1017E0002C464FF6FF7E08BF6446A242C0F2070EA9
:1017F0000CD13A6E22F000423A660A6802EA0E0301
:10180000C2F3846C92FAA2F2B2FA82F57A6E7A6E20
:10181000002BC2F384622C4608BF6446A2420CD15E
:101820007A6E22F000427A660A6802EA0E03C2F378
:10183000846C92FAA2F2B2FA82F5BA6EBA6E002BFA
:10184000C2F384622C4608BF6446A2420CD1BA6E31
:1018500022F00042BA660A6802EA0E03C2F3846C00
:1018600092FAA2F2B2FA82F5FA6EFA6E002BC2F385
:10187000846208BF6546AA4231D1FA6E22F0004266
:10188000FA662CE0062202EA950206FA02FC0E68CD
:1018900007F1600555F823404FF20002C0F2FF3215
:1018A00006F0F846224046EA0C06324342F0004277
:1018B00045F823200A698B6955F8226026F0807666
:1018C000334345F822300A690B7F55F82260012B1B
:1018D00026F0007608BF06F1007645F82260BA6867
:1018E0000E68D20750D1CA68D7F8B05033466FF3AC
:1018F000DF4325EA030C4FF6FF7502F01804C0F22F
:101900000705E54000243540C4F27F0445EA0C0594
:10191000A242C7F8B05037D193B196FAA6F2B2FA04
:1019200082F2013202F01E03092B02F01F0310D8CD
:1019300001229A4003EB430342EA035315E000BF40
:10194000012202EB966202F01E030A2B02F01F0333
:10195000EED3012200269A4003EB4303CFF6206624
:1019600006EB03531A4342F00073C3F3406607EBE0
:1019700086068A687569C3F3045307249C40A5430F
:101980009A402A4372610E680021C8F208010E4293
:1019900000F0AF8040F2003EC5F2000EAEF50074DC
:1019A0004FF48161A74208BF0821B7F1A04F08BFDB
:1019B000082151F80E500022CCF22132964205F057
:1019C000E07C04D01022C9F2C002964248D12A021B
:1019D00000F18F8040F20062C5F20002974203D00E
:1019E000B7F1A04F40F085805EF8012022F0E07250
:1019F00042EA0C0242F400024EF8012040F24C018F
:101A0000C2F20001096842F663528909C0F23E52EF
:101A1000A1FB0212910901EB41010C2202EB8101B1
:101A200000910099002964D0009901390091009932
:101A300000295ED00099013900910099002958D001
:101A40000099013900910099002952D0009901397B
:101A50000091009900294FF00001E5D14AE000BF54
:101A60000021CCF252718E4222D10021B1EB1C6FC9
:101A70001ED1B7F1A04F11D040F20011C5F2000104
:101A80008F424FF0000135D040F20052C5F2000203
:101A900097422FD0A74218BF0EF5806EDEF80810CF
:101AA00021F0E07141EA0C0141F080711FE000BFBC
:101AB0000021CCF684318E424FF0000108BF15F4AE
:101AC000800217D1B7F1A04F09D040F20011C5F242
:101AD00000018F420DD0A74218BF0EF5806EDEF8D0
:101AE000081021F0E07141EA0C0141F48001CEF8C8
:101AF00008100021002280F85820084601B0F0BDEF
:101B00000068B0F1A04F18BF70472DE9F04F81B0C9
:101B10002DED048B40F25807C2F20007387818B94F
:101B20007878002800F01481012040F20008C2F209
:101B3000000898F80010C0074CF2503218BF42F26B
:101B400010720129396F4CF2503008BF0246481C10
:101B50009142386706D34FF09040082101F0CEFD46
:101B60000020386740F2D405C2F20005298C40F20B
:101B7000F47200EE101A698CC2F2000201EE101A23
:101B8000A98CDFEDBE1A02EE101AE98CB8EE411AEC
:101B900003EE101A298DB8EE436A03EE101A698D10
:101BA000B8EE437A03EE101AA98DF8EE430A03EE5D
:101BB000101A798FB8EE422A02EB810202F56162B7
:101BC000F8EE432A21EE214A22EE213A26EE216A3E
:101BD00027EE212A20EEA11A92ED007AD5ED050A12
:101BE00082ED006ABA8F012030EEC77A787336EE44
:101BF000076A90084A2885ED056A9CBF0132BA87BA
:101C000092B207EE102AB8EE477A86EE076AB8EE6F
:101C1000400A9FED9B7A20EE215A35EE075A9FED40
:101C2000997ADFED990A25EE075A9FED987A34EEFE
:101C3000204ADFED970A24EE074A9FED967A33EEAD
:101C4000203ADFED950A23EE073A9FED947A36EEBF
:101C5000206ADFED930A481C47F20E4126EE076A20
:101C60009FED907AC0F2DA0132EE202ADFED8E0A83
:101C7000A0FB013122EE072A9FED8C7A4FF4967279
:101C800031EE201A01FB120021EE071A9FED887A2F
:101C900022EEA10A7887386D40F2140630EE070A6A
:101CA0009FED847AC2F20006306342F6D42020EE23
:101CB000070A06F11401C2F20000242287ED1D3A42
:101CC00087ED1E6A85ED002A85ED011A85ED025A21
:101CD00085ED034A85ED040A86ED055A86ED064A30
:101CE00086ED073A86ED086A86ED092A86ED0A1A1E
:101CF00086ED0B0A03F0F0FB98F80000052840F091
:101D0000A18097F82300012840F0D98597ED1E0A9D
:101D10009FED691AB4EE410AF1EE10FA1EDD97F854
:101D200024000130C1B2052987F82400C0F00281E7
:101D300001200421F8703973B3EE021AB4EE410A9F
:101D4000F1EE10FA14DB002187F825101CE000BF2B
:101D5000B878002818BF0120E7E600BF002087F808
:101D60002400B3EE021AB4EE410AF1EE10FAEADAF8
:101D700097F825100131CAB2052A87F8251003D338
:101D80000120052138713973D5ED000AB1EE001A32
:101D9000B0EEE00AB4EE410AF1EE10FA0CDD97F86D
:101DA00026100131CAB2052A87F8261007D3012070
:101DB00078710320387303E0002187F82610D8B12A
:101DC0000120F872002405F1400087F8234005F057
:101DD000AFFA07F09FF940F20040C4F600004FF45C
:101DE0000071012201F092FC7C73BDEC048B01B008
:101DF000BDE8F04F704700BF96ED010A05F14000C5
:101E000005F09AFA9FED2D1A9FED2D2AB4EE410AA6
:101E1000F1EE10FAC8BFB0EE410AB4EE420A9FEDEF
:101E2000291AF1EE10FAB8BFB0EE420A20EE010A0C
:101E300042F63440BDEEC00AC4F2010080ED000A53
:101E400098F80000062840F0A68097F8270001289F
:101E500040F03585D7ED1E0A9FED170AF4EE400AD3
:101E6000F1EE10FA30DD97F824000130C1B20529F7
:101E700087F824006CD9042036E000BFBBA2533A97
:101E8000832FD4BF65AA044195D4D1BF42E03BC2A1
:101E9000C807DDBF9F8D3BC21E16D2BF25353CC291
:101EA000ED9ED4BFD26F0C418104D5BF73D7EA40F9
:101EB000F38ED3BFD6560341000082427B146E3F9F
:101EC000295C8F3D00D00446B2EE0E0AF4EE400AC3
:101ED000F1EE10FA38DA97F825000130C1B2052981
:101EE00087F8250034D9052040F2341438730120D6
:101EF000C2F20004F8720025204687F8275005F04A
:101F000017FA04F1200005F013FA07F003F940F284
:101F10000040C4F600004FF40071012201F0F6FB0E
:101F2000BD8487F826507D73BDEC048B01B0BDE8FD
:101F3000F04F70470020B3EE021AB4EE410AF1EE02
:101F400010FAFFF615AFFEE60020B88487F82600E9
:101F500040F2341496ED020AC2F20004204605F065
:101F6000EBF995ED001A04F12000F1EE410A05F0BD
:101F7000E3F9B7EE001A1FED2D2A31EE400A20EEEC
:101F8000020A42F63440BDEEC00AC4F2010080ED00
:101F9000000A98F8000007282DD197F8280001289A
:101FA00040F08D8497ED1D0A42F6C400C2F2000095
:101FB000FEF748FD42F6181497ED1D0AC2F2000420
:101FC000204605F0FDFD94ED060AD4ED070A40F227
:101FD000C024C2F20004204605F006FF206A314604
:101FE00041F80C0F42F6D420C2F20000082203F0A0
:101FF00073FA98F80000042800F03A81032800F0F2
:102000008F80022840F05B84307801283FD1002483
:10201000347007F07FF840F20040C4F600008021E1
:10202000002201F073FB40F23410C2F20000403095
:1020300005F07EF940F29410C2F2000005F078F944
:1020400042F66C30C2F2000005F012FB42F61810A6
:10205000C2F2000005F0A4FD40F2C020C2F2000070
:1020600005F0B8FE05F1300006F062FE42F6C4004D
:10207000C2F20000FEF7DEFC3C61C7F803407C7250
:10208000FC81C7E91044BC6487F829403470387873
:10209000012840F0148497ED1D0A42F6C400C2F2F4
:1020A0000000FEF7CFFC42F61814C2F200042046EE
:1020B00005F086FD40F2C02894ED060AD4ED070A2B
:1020C000C2F20008404605F08FFEB87B022800F0FF
:1020D0000D82012800F0DC81002840F0F083786C4C
:1020E000F97B0130786449B940F20040C4F6000041
:1020F00080210122012401F009FBFC7397ED1E0AE7
:102100001FED931AB4EE410AF1EE10FA40F3CE83BC
:10211000787C0130C1B20429787400F2D281C7E31F
:102120007878012840F0CB8340F20800C2F200002A
:1021300090ED000A9FEDD41AB4EE410AF1EE10FAC8
:1021400006DCB3EE0E1AB4EE410AF1EE10FA03DA31
:10215000B0EE410A80ED001A9FEDCC1A786D43F67F
:102160007F0120EE019AC0F201018842B0EE490AD7
:102170000BD800EE100A9FEDE61AB8EE400A80EE8A
:10218000010A0130786529EE000AB88E4AF6E0218E
:10219000C0F6000101EB8001013091ED001A81B21F
:1021A000090920EE010A182988BF002095ED031ABD
:1021B000B88642F60C4030EE410AC2F2000005F04B
:1021C00047FB40F29414C2F20004DFEDD20A04F19E
:1021D000200005F0B1F8D5ED010A04F1400005F04A
:1021E000ABF8B0EE408A05F0AFFDB1EE480A80468C
:1021F00005F0AAFD40F2F416D7ED1E0AC2F2000661
:102200009FEDC50A0446304605F096F895ED001A94
:1022100006F12000F1EE410A05F08EF89FEDBF1A9D
:102220009FEDBF2AB4EE410AF1EE10FAC8BFB0EE3E
:10223000410AB4EE420AF1EE10FAB8BFB0EE420A1B
:10224000B7EE001A1FEDE12A31EE400A20EE020A35
:1022500097F82A00BDEEC00A002810EE106A6DD073
:10226000386C44F62961884240F2768001217BE097
:10227000B878012840F0238397ED1D0A42F6C40088
:10228000C2F20000FEF7DEFB42F61814C2F20004B0
:10229000204605F095FC40F2C02994ED060AD4EDE5
:1022A000070AC2F20009484605F09EFD40F2F4100C
:1022B000D7ED1E0AC2F200009FED970A403005F0EC
:1022C0003BF895ED001A40F2542AC2F2000AF1EEF2
:1022D000410A504605F030F89FED922A9FED921A80
:1022E000B4EE420AF1EE10FAC8BFB0EE420AB4EE04
:1022F000410AF87DF1EE10FAB8BFB0EE410A0428A9
:1023000000F2DD82B7EE002A9FED883A32EE400AF5
:1023100020EE030ABDEEC00A10EE108ADFE810F0CE
:102320000600A6010A01CF02D20100BFFFF7BAF8EA
:102330000120002178763964F875C0E242F6344015
:10234000C4F2010006604460C0F80C8006F0BCFED8
:10235000012087F82A000020411C396444F62862D5
:102360000021904288BF012197ED1E0A9FED701A4F
:10237000B4EE410AF1EE10FA0ADD787D0130C2B206
:10238000052A787508D301200422F8703A7304E016
:102390000020787501E000BF002059B3B3EE021AA7
:1023A000B4EE410AF1EE10FA0ADA397D0131CAB20F
:1023B000052A397506D3012005213871397301E0EA
:1023C0000021397595ED000AB1EE081AB0EEC00A89
:1023D000B4EE410AF1EE10FA0ADDB97D0131CAB25C
:1023E000052AB97506D3012003217871397301E0FC
:1023F0000021B97595ED010AB1EE041AB0EEC00ADC
:10240000B4EE410AF1EE10FA0CDD97F82B10013111
:10241000CAB2052A87F82B1007D301200221B87110
:10242000397302E0002187F82B1095ED031AB1EE05
:102430000E0A39EE000AB0EEC11AB4EE401AF1EEFF
:1024400010FA0DDD97F82C100131CAB2052A87F871
:102450002C1008D30120F8710620387304E000BF67
:10246000002187F82C1028B106F054FE0020787067
:1024700000F05EBC42F63440C4F2010006604460E5
:10248000C0F80C801BE200BF000004428104B53F8D
:10249000D8ED050A98ED080A05F1300006F04EFC6B
:1024A00097ED1E0A9FEDAF1AB4EE410AF1EE10FA55
:1024B00040F32881787C0130C1B20429787440F25D
:1024C00023810420387340F200400124C4F6000048
:1024D00080210022FC70002501F018F93D70FC728B
:1024E000BDEC048B01B0BDE8F04F7047386C44F68A
:1024F0002961884200F23881411C44F61F624FF086
:10250000000B3964904288BF4FF0010B2EE100BFF1
:1025100000409C470000000000005C426666663F89
:10252000CDCCCC3D9A99593F9A99193E00D004469A
:1025300000007042787E012808D1B878012802BFD7
:1025400042F63440C4F20100C0F8008097ED1D0A45
:1025500099ED051AD9ED080A0AF1440005F050FA80
:102560009AF85C00012840F0AA81387E002840F0EB
:10257000A68140F20400C2F2000099ED0A0A90ED33
:10258000001A95ED022A20EE010A30EE420A09F106
:102590002C0004F095FF97ED1D1AB0EE408A05F16E
:1025A0001800B0EE410AFEF757FE97ED1D1A87EDB1
:1025B000180A0AF12000B0EE410AFEF713FE97ED6B
:1025C0001D1A40F2B07087ED190AC2F20000B0EE99
:1025D000410AFEF791FE95ED041A9FEDDF2A97ED73
:1025E000193A21EE021A97ED182A31EE081A31EE47
:1025F000021A87ED1A0A30EE010A1FED381A33EE7F
:10260000000A9FEDEE2AB4EE410AF1EE10FAC8BFBF
:10261000B0EE410AB4EE420AF1EE10FAB8BFB0EEE5
:10262000420A87ED170A05F08FFB97ED170A04465B
:10263000B1EE400A05F088FB42F63441C4F20101D4
:10264000CC604860FEF744FF40F20040C4F6000052
:1026500080210122012401F059F8002038644FF450
:10266000827087F82D40A7F8170028E1386C797E32
:1026700001300129386408D1B878012802BF42F638
:102680003440C4F20100C0F8008097ED1E0A9FEDAF
:10269000CC2AB4EE420AF1EE10FA40F319819FED14
:1026A000C92AB4EE420AF1EE10FA80F21181F88ED6
:1026B000C72800F22581411CC738F98618BF0120C0
:1026C0001FE100BF386C44F62961884206D840F605
:1026D0009F72411C90423964C0F0768199ED080ADE
:1026E0009FEDEB1AB0EEC00AB4EE410AF1EE10FA1B
:1026F00040F3F28097F822004FF0010E00F1010C38
:1027000066E100BF0020787495F83A00012840F097
:10271000D68042F66C30C2F2000004F0A9FF40F20D
:102720003410C2F20000403004F002FE40F2941077
:10273000C2F2000004F0FCFD42F63440C4F2010095
:1027400041F29A01C16041604FF4FA61016006F004
:10275000BBFC012087F82900002038640220B873F0
:10276000ADE000BF000082424FF0010B98ED080A77
:102770001FED931AB0EEC00AB4EE410A00223B7C72
:102780007C7C97F812A097F813E0F1EE10FAC8BF1E
:102790005A1CD7ED1E0AB3EE020AF4EE400A1FEDF2
:1027A0000F0A5FFA82FC3A74F1EE10FA4FF0000261
:1027B000F4EE400AB3EE0E0AA8BF0122F1EE10FAC1
:1027C0004FF00000F4EE400AD8BF0120F1EE10FAFD
:1027D0004FF00006A8BF0126631CD2071A4618BF97
:1027E0000022C00708BF1A46F00718BF1346BBF106
:1027F000000F08BF134695ED001A95ED010AB1EEE2
:102800000A2AB4EE421AB0EEC01AF1EE10FA4FF0F6
:102810000004B4EE421A4FF000067B74C8BF0AF100
:102820000104BC74F1EE10FAC8BF0EF1010697ED79
:10283000141A9FED9A2A0020B4EE421AF1EE10FA13
:10284000FE74C8BF012010F001024FF00009F98D9D
:1028500018BF4A1CBBF1000F08BF5A46BCF10A0F53
:10286000FA8524BF4FF0010987F80990D8B20528EE
:1028700022BF40F20110A7F803004FF00109E0B2B7
:102880000528F0B224BF4FF0010987F8059004280D
:1028900006D991B201200529B87104D226E000BF03
:1028A00090B204281ED90120B8721FE0002078746D
:1028B000786C44F62061884224BF0120B873002060
:1028C0007873BDEC048B01B0BDE8F04F704700BFDA
:1028D0000020F886012014E04FF0010E4FF0000CAC
:1028E00076E000BFB9F1000F00F0F280787A08B10D
:1028F000012024E2B879002800F0DE8002201EE2E8
:102900000020B3EE022A397FB4EE420A0023F1EE32
:1029100010FAB8BF4B1C396C44F62A660022B1424B
:102920003B770DD395ED000AB1EE082AB0EEC00A50
:10293000B4EE420A7E7FF1EE10FAC8BF721C7A77BD
:10294000DAB2042A0AD9797F01200529387128BF13
:102950007871052010E000BF295C8FBD44F62A6223
:10296000914213D3797F042910D9397901207871E4
:102970000520002908BF032000243873FC8606F0D8
:10298000C9FB0120BC70F872FFF72EBA98B999ED17
:10299000080AB0EEC00AB4EE410AF1EE10FA0ADA03
:1029A000388F49F64142013081B291423887FFF4B5
:1029B00086AF0220F8750020388780E7666666BF1C
:1029C00000005042000068424FF0000C4FF0000E33
:1029D00097ED1E0AB3EE021AB4EE410A9FEDE51A16
:1029E000F1EE10FAB4EE410A9FEDE51A4FF0000443
:1029F00087F822C0BA7FF97F97F82060B8BF541CCF
:102A0000F1EE10FA4FF00003B4EE410ABC77C8BFF4
:102A10004B1CF1EE10FA4FF000024FF00000FB7774
:102A2000B8BF721CBEF1000F87F8202016D095EDBC
:102A3000021AB1EE082AB0EEC11AB4EE421AF1EE53
:102A400010FA0BDD97F821000130C1B287F82100A0
:102A50000020042988BF012002E000BF87F8210080
:102A60005FFA8CF10529E6B226BF012179720021B7
:102A7000052EDBB224BF01213971052BD2B224BF50
:102A80000121F970042A05D90121397118B90AE028
:102A90009A99993E20B10120387204E048E1DA3F6A
:102AA000002900F08980787A10B101203BE100BF55
:102AB000387A38B1072036E17879002800F098801C
:102AC00003203CE17879002800F0988003202AE177
:102AD000388E97ED131A013020EE000A81B230EEE5
:102AE000010AB1F5C87F87ED130A38860AD39FED36
:102AF000AC1A002080EE010AF8643886B1EEC00AF4
:102B000087ED140A97F8290001287FF4D8AE3878A9
:102B100001287FF4D4AE40F23410C2F200009FEDE1
:102B2000970A403004F008FC98ED0A1A95ED012A46
:102B300020EE010A42F66C3098ED098A30EE020A66
:102B4000C2F2000004F09AFD9FED961A97ED1D2A3F
:102B50009FED953A28EE011A40F2040031EE400A4A
:102B600022EE031AC2F2000031EE008A90ED000A54
:102B70009FED8A1AD5ED000A40F2941030EE010A5A
:102B8000C2F2000004F0D8FB9FED7B1A42F63444F9
:102B900020EE010ABDEEC00AC4F2010484ED000A71
:102BA000B1EE480A05F0D0F8B0EE480A606005F0D2
:102BB000CBF8E06083E600BF97ED171A9FED719A9E
:102BC000B0EEC11AB4EE491AF1EE10FA1CDD9FED19
:102BD0006E1AB4EE410AF1EE10FA15DA012405205E
:102BE0003C71387306F096FA0020B870FC7267E604
:102BF000F878002800F090800420A0E0F878002801
:102C000000F08E8004208EE097F82D0001287FF4DC
:102C100056AEB87801287FF452AE40F20400C2F2FA
:102C2000000090ED001A9FED592AB86D99ED0A0A3F
:102C300049F63F41884221EE021A0BD802EE100AF3
:102C40009FED533AB8EE422A82EE032A0130B8656E
:102C500021EE021A95ED022A20EE010A30EE420A18
:102C600009F12C0004F02CFC97ED1D1AB0EE408AFF
:102C700005F11800B0EE410AFEF7EEFA97ED1D1AC5
:102C800087ED180A0AF12000B0EE410AFEF7AAFA11
:102C900097ED1D1A40F2B07087ED190AC2F20000DC
:102CA000B0EE410AFEF728FB95ED041A9FED392A94
:102CB00097ED193A21EE021A97ED182A31EE081A0B
:102CC00031EE021A87ED1A0A30EE010A33EE000ADD
:102CD0009FED311AB4EE490A42F63444F1EE10FA8F
:102CE000C8BFB0EE490AB4EE410AC4F20104F1EEE5
:102CF00010FAB8BFB0EE410A87ED170AC4F8008099
:102D000005F022F8E06097ED170AB1EE400A05F0F1
:102D10001BF86060D3E500BF387968B105200EE08C
:102D2000387908B10520387306F0F4F90020B8703E
:102D30000121F972C4E500BFB87A08B108203873E0
:102D400006F0E8F940F20040C4F6000080210022BD
:102D5000002400F0DBFC01203C70F8727C73C7E9B2
:102D60001344C7F82E40BDEC048B01B0BDE8F04F12
:102D7000704700BF0000824200D0044600005C4261
:102D80000000504248E17A3F000048428104B53FCC
:102D900000401C47295C8FBD48E17ABFCDCCCC3DBB
:102DA0000000C843E926F13EC504B53C7047000069
:102DB0007047000070B582B000210028019153D007
:102DC000C16D39B9044600F021F920460021216681
:102DD00084F858100268916889004FF6C071C5F6F2
:102DE000FF7102D593680B4093609368DB002ED48B
:102DF000936801F18051194041F08051916040F297
:102E00004C01C2F20001096842F663538909C0F21D
:102E10003E53A1FB03139909022303EB41010191E6
:102E20000199A1B1019901390191019979B10199F2
:102E300001390191019951B101990139019101992A
:102E400029B101990139019101990029EAD19168CB
:102E5000C9000DD4C16D012641F01001C165016E9C
:102E600041F00101016604E00126304602B070BD68
:102E700000269368C46D03F0040304F010041B19CA
:102E8000C36D77D123F481730233C3659368DB0785
:102E90002AD140F2001442F48073C5F2000440F2DB
:102EA000080CA342C5F2000C40F0A280DCF8004000
:102EB000DCF800311C43E30716D10CF1F8034FF4A2
:102EC000E064D0F804E09A4208BF4FF44074B2F1D5
:102ED000A04F08BF4FF440745CF8043023F47C1317
:102EE00043EA0E034CF80430437FC46BD0E902156B
:102EF00044EA43332B4390F824501943012D41EA0F
:102F0000054306D1816A0025CFF6FE7505EB4141E8
:102F10000B43C46A24B1016B04F4787529430B4355
:102F2000D16844F20705CFF6F07529401943D16006
:102F30001169436B21F040611943116191680907E0
:102F400043D490F83810037F490041EA8331D368B5
:102F500044F20205AB431943D160036914698BB194
:102F600044F480311161D2F8C01043F6FF75A943D3
:102F70000B4310E043F010020126C265304602B058
:102F800070BD00BF24F480311161D2F8C01043F647
:102F9000FF7321EA0303C2F8C03090F840101369B0
:102FA00001290FD140F2FD7123EA010CD0E911355E
:102FB000D0E9134143EA0C032B432343194341F067
:102FC000010301E023F0010313614169136B01293F
:102FD00023F00F0302D1016A01390B431363C26D61
:102FE000012161F30102C265304602B070BD00BF2D
:102FF000DCF800E4DCF80045DCF8003644EA0E04B6
:103000001C43E3073FF459AF6EE70000F0B59BB0F7
:10301000044600201A90CDE91800CDE9160001A859
:1030200004305021FDF72CF92068B0F1A04F01D0F9
:103030001BB0F0BD4FF4004001904FF000501290D3
:1030400001A800F0B7FC002818BFFEF79BF841F27A
:103050004C00C4F20200016816AD41F40051016059
:103060000168032701F400510091009901680026CE
:1030700041F004010160016801F004010091009930
:10308000016841F0010101600068294600F001007B
:10309000009000980F20169040F60000C4F6000043
:1030A0001797189600F034FA0720CDE916074FF06D
:1030B00090402946189600F02BFA42F6C8150820D1
:1030C000C2F20005C4F2020005214FF4807385E8C6
:1030D000430005F114004FF480674FF0200C80E8A6
:1030E00088104FF40050802228622846C5E9036208
:1030F00000F0F4F8002818BFFEF744F86565AC62EC
:103100001BB0F0BD2DE9F04140F200160368C5F296
:1031100000064FF4C167B34208BF4FF40277B3F122
:10312000A04F08BF4FF40277BF599D686D0703D4C5
:1031300090F85850012D03D10220BDE8F08100BF66
:1031400006F5A06407F01F070125A34280F8585038
:1031500018BF002F09D0052F07D0092F1FBF00214E
:1031600080F858100120BDE8F0810D4690460446D5
:10317000FDF79AFB30B1002084F858000120BDE82B
:10318000F08100BF2168E06D40F60173984322464C
:1031900000F58070B142E06508D040F20050C5F201
:1031A0000000814208D106F5407001E04FF0A040D8
:1031B000884218BF002F03D1D06D20F48010D06555
:1031C000D06D40F2A977C0044FF0000044BF106EEC
:1031D00020F006001066506D40F62506C0F6000788
:1031E000C0F6000640F60D040023C0F60004C0E956
:1031F0000B761C2744630F6082F858304B681446E6
:1032000043F010034B60CB682A4643F00103CB60C8
:103210004031434600F0F4F821684FF6C0738A68E5
:10322000C7F6FF731A4004328A60BDE8F0810000DF
:10323000B0B5D0E910C30268DCF8001003F01F033A
:103240000424D2F800E09C400C4218BF1EF0040594
:1032500020D102249C400C4218BF1EF0020529D147
:10326000D940090714D51EF0080108BFB0BD116888
:1032700021F00E011160012101FA03F2CCF80420C3
:10328000C16380F82510416B002280F8242069B9C1
:10329000B0BD00BF1168890603D4116821F0040194
:1032A0001160CCF80440016B0029F1D0BDE8B040BA
:1032B000084700BF1168890606D4116821F00A0189
:1032C0001160012180F82510CCF80440C16A002269
:1032D000002980F82420E9D1DAE7000000284FF027
:1032E000010100F08B802DE9F04740F2000CC4F2A0
:1032F000020C02684FF6F8330CF5816ECBF6FD73C5
:10330000724538BF03F580634CF6CD441344CCF6C8
:10331000CC44A3FB043902F0FC03A3F10803A3FB94
:10332000043A0CF580636FF00305D0E90286076963
:103330003CBF0023C4F2020305EA9905C0E9103539
:10334000022380F82530136847F6F074A343334313
:1033500044693B4386692343C4693343066A234374
:10336000334343EA080313600CF50263724538BF28
:103370000CF5006372454FF0080202EB1A1238BFD9
:103380004FEA1A1202F01F0201FA02F440F6840119
:103390001D440CF50863B8F5804FC4F20201C36404
:1033A0008564046504D1002242602A600C6017E045
:1033B000426802F07F03013A032A4FF000022B60BB
:1033C0000C600DD8013B01EB830747F87C2F03F01D
:1033D0001F0201239340C1F8C030BC313A4601E0DE
:1033E00000210023C0E9152100210122C365C1632A
:1033F00080F8252080F82410BDE8F0470846704783
:1034000090F824C0BCF1010F47D04FF0010C80F8B8
:1034100024C090F825C0BCF1010F3BD12DE9F0414B
:103420004FF0020C80F825C04FF0000CC0F83CC0F3
:10343000D0F800C000F14C0E9EE83040DCF800608F
:10344000BEF1000F26F00106CCF8006065601CBFDD
:10345000D0E916456560D0E91056012706F01F0631
:10346000846807FA06F6D0F830806E60CCF8043035
:103470000B46102C04BF13460A46CCF80830CCF893
:103480000C20DCF80010B8F1000F09D041F00E015B
:103490000EE000BF002180F824100220704700BF1A
:1034A00021F00401CCF80010DCF8001041F00A0112
:1034B000CCF80010806C0168C90303D5016841F4A1
:1034C00080710160BEF1000F05D0DEF8000040F40D
:1034D0008070CEF80000DCF8000040F00100CCF86D
:1034E00000000020BDE8F081B0B5044600F014F9FA
:1034F000054640F20C00C2F200004068611C18BF93
:10350000044400BF00F008F9401BA042FAD3B0BD4C
:103510002DE9F04F85B00E680390002E00F0E48096
:10352000039841F2004500F12002009200F1384278
:10353000C4F600054FEAB2270623A84208BF0523B8
:10354000052F4FF000054FF000074FF0000838BF7F
:103550004FEAB223019302910BE000BF0E6808F11D
:10356000010836FA08F207F1020705F1040500F038
:10357000BB80012000FA08F216EA0209EED0D1F869
:1035800004A003200AF0030CACF10106012E00FA9E
:1035900007FB13D803988668D1E9024326EA0B0695
:1035A000BB4033438360436823EA0202CAF300133B
:1035B00003FA08F31A43426006E000BF8C68BCF1CE
:1035C000030F08BF012C27D0039904FA07F3CA6838
:1035D0004FEA480E22EA0B026FEA0B001A43BCF1D5
:1035E000020FCA601ED16FF00301009E01EA58026B
:1035F00005F01C040F2156F802C001FA04FA0299E2
:103600002CEA0A0C0B69A34043EA0C03B350D1F82F
:1036100004A00AF0030C05E04FF0030C0CFA07F2CB
:10362000D043BE4603990CFA0EF30A681AF4403FE1
:1036300002EA000242EA03020A6002998ED041F2D5
:103640006003C4F202031A6840F2004E42F0010225
:103650001A601A68C4F2010E02F001020492049A80
:1036600028F003024FF6084C7244CFF6FF7C05F0B9
:103670000C060F2052F80C3000FA06F40198A34310
:1036800000FA06F6334342F80C30DEF808204B68A7
:1036900042EA090640F20C4CDC0258BF22EA090655
:1036A000CEF80860C4F2010CDCF800209C0242EA6B
:1036B000090658BF22EA0906CCF80060DEF80420AB
:1036C0009C0342EA090658BF22EA0906CEF80460C4
:1036D000DEF80020DB0342EA090658BF22EA0906A9
:1036E000CEF800603AE700BF05B0BDE8F08F0000FB
:1036F0000069084018BF012070470000426902EAD3
:103700000103914341EA0341816170471823002A74
:1037100008BF2823C150704743F26020C2F2000066
:103720000068704740F20C0043F26021C2F20000D2
:10373000C2F2000140680A68104408607047000047
:1037400080B542F20000C4F20200016841F48071C9
:103750000160032000F08CF80F2000F009F8002829
:103760001CBF012080BD00F02BF8002080BD0000B0
:10377000B0B540F20C05C2F200056968F1B104462B
:1037800040F24C00C2F200004FF47A720068B2FBC3
:10379000F1F1B0FBF1F000F0D1FE01460F2C4FF03B
:1037A00001000AD8002918BFB0BD4FF0FF302146F4
:1037B000002200F031F800202C60B0BD0120B0BD27
:1037C00082B041F25800C4F20200816841F0010168
:1037D0008160816801F0010101910199016841F066
:1037E00080510160006800F080500090009802B0A5
:1037F00000F0D6B8002848BF704700F01F01012232
:1038000002FA01F11C2202EAD0004EF20012CEF2BE
:10381000000281507047000010B54EF60C5CCEF2ED
:10382000000CDCF80030C3F3022E8EF00704042CE9
:1038300028BF0424BEF103034FF0FF3E0EFA04F448
:1038400038BF0023A14399400EFA03F39A43114372
:1038500000F00F0200F160430901043A03F56443EC
:103860006244002848BF02F10C03197010BD00002B
:103870004EF60C51CEF200010A684FF6FF031A40D3
:1038800060F30A2242F0806040F0FD7008607047EB
:1038900047F21401C4F2000151F8142CB0F5007F76
:1038A0003CD0002874D1C86E02F4C06220F480704D
:1038B000B2F5806FC8662FD151F8140C012262F363
:1038C0004A2041F8140C40F24C00C2F2000000689B
:1038D000322250434DF68362C4F21B32A0FB020237
:1038E000900C00BF0A68520511D5421C0FD00A681F
:1038F00052050CD558B10A68520508D5012806D0E2
:103900000A68520503D50228A0F10400EAD108682C
:10391000400544BF0320704700207047C86E02F482
:10392000C06240F48070B2F5806FC866F4D151F87F
:10393000140C012262F34A2041F8140C40F24C00AE
:10394000C2F200000068322250434DF68362C4F296
:103950001B32A0FB0202900C0A68520511D5421CD2
:103960000FD00A6852050CD558B10A68520508D51F
:10397000012806D00A68520503D50228A0F10400E8
:10398000EAD10868400544BF03207047C4E700BF80
:10399000022060F34A2241F8142C002070470000F6
:1039A00047F20800C4F20000016841F48041016060
:1039B000704700002DE9F04182B00446807841F262
:1039C00088060007C4F2020602D400202FE000BFE0
:1039D00056F8300C5FEAC0080BD456F8300C40F0B3
:1039E000805046F8300C56F8300C00F080500190B2
:1039F000019847F20007C4F20007386840F480706D
:103A00003860FFF789FE05463868C00500F10C8173
:103A1000FFF782FE401B0228F6D90320B8F1000F01
:103A200005D456F8301C21F0805146F8301C21682E
:103A3000CA0717D18A071DD44A0723D40A0729D4F5
:103A4000CA062FD48A0635D44A063BD40A0641D486
:103A5000CA0547D48A034DD48A0553D44A0559D49C
:103A600067E000BF3268636822F003021A433260E5
:103A70008A07E1D53268A36822F00C021A4332604B
:103A80004A07DBD53268E36822F030021A4332601D
:103A90000A07D5D53268236922F0C0021A43326082
:103AA000CA06CFD53268636922F440721A43326085
:103AB0008A06C9D53268A36922F440621A4332608B
:103AC0004A06C3D53268E36922F440521A43326091
:103AD0000A06BDD53268236A22F440421A43326096
:103AE000CA05B7D53268636A22F440321A4332609D
:103AF0008A03B1D57269A36A22F003021A43726184
:103B00008A05ABD53268E36A22F440221A43326058
:103B10004A050ED53268236B22F440121A43B3F5DE
:103B2000801F326005D156F87C2C42F4801246F892
:103B30007C2C0A050ED53268636B22F440021A43CE
:103B4000B3F5800F326005D156F87C2C42F4801218
:103B500046F87C2CCA040ED53268A36B22F0407262
:103B60001A43B3F1807F326005D156F87C2C42F4C1
:103B7000801246F87C2C8A040ED53268E36B22F062
:103B800040621A43B3F1006F326005D156F87C2CC5
:103B900042F4801246F87C2C4A040ED53268236C1D
:103BA00022F040621A43B3F1006F326005D156F83B
:103BB0007C2C42F4801246F87C2C0A040ED5326824
:103BC000636C22F040521A43B3F1805F326005D13A
:103BD00056F87C2C42F4803246F87C2CCA030ED571
:103BE0003268A36C22F040421A43B3F1804F326036
:103BF00005D156F87C2C42F4803246F87C2C4903DF
:103C00000ED57169E26C21F440111143B2F5001F29
:103C1000716105D156F87C1C41F4801146F87C1C7A
:103C200002B0BDE8F08100BFB06810F4407010D061
:103C3000216D88420BD0B068B16820F4407041F427
:103C40008031B160B16821F48031B160B060C007EB
:103C50000CD1B068216D20F440700843B0600020A2
:103C6000B8F1000F3FF5E3AEDBE600BFFFF754FD10
:103C7000054641F2883700BFB0688007E9D4FFF7F6
:103C80004BFD401BB842F7D9C7E600002DE9F047CD
:103C9000002863D042F2000AC4F2020A0446DAF8AD
:103CA00000000D4600F00F0081420CD9DAF8000048
:103CB00020F00F002843CAF80000DAF8000000F0F6
:103CC0000F00A8424AD1216841F20808C807C4F28F
:103CD000020803D1880740F1D080B5E0606858F849
:103CE000082C022838D003283CD1920136D5D8F8C8
:103CF0000420D8F8043042F20046C3F3031302F064
:103D00000302D8F804700133C0F2F406032A04BF9A
:103D100041F20026C0F27A06B6FBF3F2D8F804307E
:103D2000C7F306277A43C3F34163022707EB430334
:103D3000B2FBF3F24BF20043C0F2C4439A4259D9AA
:103D4000D8F8002012F0F00F49D0890752D5A168A9
:103D500000294FD143E000BF910305D40120BDE805
:103D6000F08700BF5105F9D5D8F8001001F00C011B
:103D700004293FD0D8F8001001F00C01082939D0EF
:103D8000D8F8001001F00C010C2933D1D8F8041038
:103D9000D8F8042042F20047C2F3031201F00301F5
:103DA000D8F804300132C0F2F407032904BF41F20D
:103DB0000027C0F27A07B7FBF2F1D8F80420C3F36A
:103DC00006235943C2F34162022303EB4202B1FBD3
:103DD000F2F14BF20042C0F2C44291420AD9D8F843
:103DE0000010082262F307114FF00109C8F8001013
:103DF00002E000BF4FF00009D8F8001021F00301E5
:103E00000843C8F80000FFF787FC064641F28837F0
:103E1000D8F80000616800F00C00B0EB810F07D00B
:103E2000FFF77AFC801BB842F2D90320BDE8F08787
:103E30002168880708D4B9F1000F1ED0D8F8000017
:103E400020F0F00017E000BF480705D5D8F80000C3
:103E500040F4E060C8F80000080706D5D8F8000074
:103E6000072262F30D20C8F80000D8F80000A2680D
:103E700020F0F0001043C8F80000DAF8000000F06D
:103E80000F0085421BD2DAF8000020F00F00284313
:103E9000CAF80000FFF740FC064641F2883700BF31
:103EA000DAF8000000F00F00A84207D0FFF734FC5A
:103EB000801BB842F4D90320BDE8F0872168480789
:103EC00007D5D8F80000E26820F4E0601043C8F895
:103ED0000000080708D5D8F80000216920F46050D8
:103EE00040EAC100C8F80000D8F8000042F20041E2
:103EF000C0F2F40100F00C00042808462DD0D8F8D8
:103F0000000000F00C00082841F20020C0F27A0006
:103F100023D0D8F8002002F00C020C2A1CD1D8F8CB
:103F20000420D8F8043002F00302C3F30313D8F8D6
:103F300004700133032A08BF0146B1FBF3F0D8F83F
:103F40000410C7F30627C1F341610222784302EB54
:103F50004101B0FBF1F000E00020D8F8001049F674
:103F60007422C1F30311C0F60002515C40F24C020E
:103F700001F01F0120FA01F140F20C00C2F2000032
:103F80000068C2F200021160BDE8F047FFF7F0BB25
:103F900040F24C0041F20801C2F20000C4F20201FA
:103FA0000068096849F68422C1F30221C0F60002C4
:103FB000515C01F01F01C8407047000040F24C0006
:103FC00041F20801C2F20000C4F20201006809686F
:103FD00049F68422C1F3C221C0F60002515C01F00F
:103FE0001F01C8407047000041F20C01C4F20201F9
:103FF00051F8040C42F20042C0F2F40200F00C004E
:104000000428104608BF704751F8040C00F00C005B
:10401000082841F20020C0F27A0025D051F8043C73
:1040200003F00C030C2B1CBF0020704780B5D1F8A7
:1040300000C00B680CF0030CC3F3031E0B680EF1F9
:10404000010EBCF1030F08BF02460968B2FBFEF087
:10405000C3F30623C1F341610222584302EB41013D
:10406000B0FBF1F0BDE8804070470000002804BFBD
:10407000012070472DE9F04182B00446007841F2FA
:104080000006C007C4F202061ED1207880073DD486
:104090002078000764D42078400700F187802078DA
:1040A000800600F1D980E569002D00F04282B068F9
:1040B00000F00C000C2840F03181012D40F08E8181
:1040C000012002B0BDE8F081B06800F00C01F0689A
:1040D000082961D0032281F00C0122EA0000084483
:1040E000B0FA80F0400957D161683068B1F5803F7F
:1040F00007D0B1F5A02F40F0E38040F4802030607D
:10410000306840F480303060E4E000BFB068F168AF
:1041100000F00C00042871D001F0030180F00C00C5
:1041200081F002010844B0FA80F0400966D1E168EC
:104130003068002900F0E08040F480703060FFF7C4
:10414000EBFA05463068400500F10A81FFF7E4FA12
:10415000401B0228F6D9032002B0BDE8F08100BF61
:104160006169D6F89400002900F0948040F00100C5
:10417000C6F89400FFF7D0FA054600BFD6F89400C1
:1041800080073FF588AFFFF7C7FA401B0228F5D933
:10419000032002B0BDE8F081306880037FF575AF81
:1041A000606800287FF471AF3EE000BFB06D5FEA49
:1041B000C00808D4B06D40F08050B065B06D00F01C
:1041C00080500190019847F20007C4F20007386858
:1041D000C0052DD4386840F480703860FFF79CFA31
:1041E000054600BF3868C00522D4FFF795FA401B8A
:1041F0000228F7D9032002B0BDE8F08130684005FD
:1042000001D5E06880B17068216920F0FE4040EA85
:104210000160706040F20C00C2F200000068FFF71D
:10422000A7FA00283FF434AF012002B0BDE8F081C6
:10423000A168D6F89000012908D0052940F0AE8089
:1042400040F00400C6F89000D6F8900040F001005D
:10425000C6F89000AEE000BFA169D6F8980000292A
:1042600000F0868040F00100C6F89800FFF754FA8D
:10427000054600BFD6F8980080073FF514AFFFF75A
:104280004BFA401B02284FF00300F3D902B0BDE8FF
:10429000F08100BF20F00100C6F89400FFF73CFA5F
:1042A000054600BFD6F8940080077FF5F4AEFFF70F
:1042B00033FA401B0228F5D9032002B0BDE8F08193
:1042C00020F4803030603068002920F48020306095
:1042D00000F0BE80FFF720FA054600BF306880037B
:1042E0003FF5D3AEFFF718FA401B6428F6D9032038
:1042F00002B0BDE8F08100BF20F480703060FFF7AD
:104300000BFA0546306840057FF5C2AEFFF704FAA8
:10431000401B02284FF00300F4D9B7E7306820F0C3
:1043200080703060FFF7F8F9022D05460CD100BF10
:104330003068800140F1B880FFF7EEF9401B022899
:104340004FF00300F4D9A1E73068800140F1EA8022
:10435000FFF7E2F9401B02284FF00300F4D995E77C
:104360007068216920F0FE4040EA016070608FE6CD
:1043700020F00100C6F89800FFF7CEF9054600BF0F
:10438000D6F8980080077FF58EAEFFF7C5F9401B81
:1043900002284FF00300F3D978E700BF20F00100B6
:1043A000C6F89000D6F89000002920F00400C6F866
:1043B00090005DD0FFF7B0F9054641F2883700BFA5
:1043C000D6F89000800765D4FFF7A6F9401BB842E5
:1043D000F6D9032002B0BDE8F08100BFF068216A81
:1043E00000F003028A427FF41FAF626A6FF00F038E
:1043F00000F0F00103EB021291427FF415AFA16AC5
:1044000000F4FE42B2EB012F7FF40EAFE16A00F040
:104410007842B2EBC16F7FF407AF226B0023CFF677
:10442000E07303EA025200F4C001A2F500129142C7
:104430007FF4FAAE616B4FF07E4202EA016100F058
:10444000C06001F17E4188427FF4EEAE71E000BFB2
:10445000FFF762F9054600BF306880037FF515AEAF
:10446000FFF75AF9401B64284FF00300F4D90DE719
:10447000FFF752F9054641F2883700BFD6F89000A1
:10448000800707D5FFF748F9401BB8424FF00300FB
:10449000F4D9FBE6B8F1000F3FF501AEB06D20F0A6
:1044A0008050B065FBE500BFF06848F20C01C0F237
:1044B0009F1104F1200700EA010C8ECF6FF00F006E
:1044C000D4E90C5400EB02100022CFF6E07241EA6E
:1044D0000C0102EA05520843A2F500124FF07E4596
:1044E00040EA032005EA0465104305F17E4540EAF1
:1044F000C7602843F060306840F080703060F0683A
:1045000040F08070F060FFF707F9044630688001E2
:104510000FD4FFF701F9001B02284FF00300F5D973
:10452000B4E600BFF0684FF6FC71CFF6EE610840CC
:10453000F060002002B0BDE8F0810000411E0020C4
:10454000B0EB116F1CBF012070474EF21002CEF28B
:10455000000251604EF62351CEF20001F0230B70A1
:10456000072190601160704770470000704700009D
:104570007047000090F83C20012A04BF02207047D9
:10458000B0B5D1E90232D1E900CE22F47C5223F455
:10459000705343EA020448F2FF73CEF6F0730EEA5A
:1045A0000302224303F5006404EA0C0442EA040C0B
:1045B0000C6903F5C05222404C6942EA0C022243C6
:1045C00003F5605422400C6B03F5F04323401A437B
:1045D0008B6940F2000CCC69CEF6FF7C0CEA034CF0
:1045E0001443026842F60043C4F201039A4244EACB
:1045F0000C030BD045F20004C4F20104A24205D022
:1046000043F20044C4F20104A24217D14FF6FF74F2
:10461000CDF60F4403EA040ED1E9084CD1E90A3182
:104620000025CDF6F04505EA035343EA0E0324F0D6
:1046300008552B432CF000552B430B4300215364AA
:1046400080F83C100020B0BD7047000070470000AB
:104650007047000090F83C20012A4FF0020266D01B
:1046600070B580F83D20026842F6004C54689368AB
:10467000C4F2010C45F2000E6245C4F2010E18BFEF
:1046800072452BD14D6824F470042C434FF68F757E
:10469000CFF6FF550E682C4042F6FF35C4F20105F7
:1046A0003443AA4254600DDC40F2FF76C4F20006A7
:1046B000B2421BDCB2F1804F2CD040F20046C4F273
:1046C000000625E043F6FF74C4F20104A24219DC9F
:1046D00062451FD043F2004618E000BF43F2004598
:1046E000C4F20105AA42CDD0D0E700BF40F60006D3
:1046F000C4F20006B2420DD040F60046C4F20006F5
:1047000006E000BF724505D044F20006C4F201067F
:10471000B24204D1896823F08003194391600121DA
:10472000002280F83D1080F83C20BDE87040104623
:104730007047000070470000002804BF0120704748
:1047400010B5044690F83D0028B9002084F83C00DC
:10475000204600F023F8022084F83D002068211D47
:1047600003F0CEFC012084F8480084F83E0084F871
:104770003F0084F8400084F8410084F8420084F847
:10478000430084F8440084F8450084F8460084F827
:10479000470084F83D00002010BD0000006842F68C
:1047A0000041C4F20101884218BF704780B582B051
:1047B00041F26000C4F202000168002241F400618D
:1047C00001600068002100F4006001900198192048
:1047D000FFF722F8192002B0BDE88040FFF70AB8C1
:1047E00090F83D10012917D1022180F83D10016891
:1047F00042F6FF30C4F2010081420FDC40F2FF704C
:10480000C4F20000814219DCB1F1804F2ED040F299
:104810000040C4F2000027E00120704743F6FF701B
:10482000C4F20100814215DC42F60040C4F20100EE
:1048300081421BD043F2004014E000BF40F600006C
:10484000C4F20000814211D040F60040C4F20000E2
:104850000AE000BF45F20000C4F20100814205D029
:1048600044F20000C4F2010081420CD188680722A2
:10487000C0F201020240062A4FF00000CDD0B2F58E
:10488000803F08BF7047086840F0010008600020C2
:104890007047000090F83C20012A4FF0020200F01F
:1048A000A38010B580F83D2004688822A368CFF665
:1048B000CE721A40A2600B68B3F5005F0EDA3F2B90
:1048C00022DD5F2B3CDD602B00F0B080702B00F010
:1048D0009D80B3F5805F00F07E8009E12F22C0F259
:1048E0001002934218DD4F21C0F210018B425DDDB2
:1048F0005021C0F210018B4263D06021C0F2100140
:104900008B425ED0702157E01F2B0FDC002B58D05C
:10491000102B56D0ECE000BFB3F1101F0CDAB3F54A
:10492000005F63D0B3F5801F4BD0E1E0202B48D06F
:10493000302B46D0DCE000BF43D020213CE000BF5C
:10494000402B00F0A580502B40F0D280D1F804C05D
:10495000D1F80CE0236A216A21F00102A4F1804120
:10496000A1F596314FEAB121092922620AD8012224
:1049700002FA01F140F2E52211421EBF216A21F044
:1049800004012162A16923F00A0221F0F00141EA49
:104990000E1142EA0C02A1612262A1684FF68872F0
:1049A000CFF6CF721140573114E000BF3021C0F272
:1049B00010018B4205D04021C0F210018B4240F023
:1049C0009780A1684FF68872CFF6CF7211401943D5
:1049D00041F00701A1600022012180F83D10002173
:1049E00080F83C10BDE8104010467047D1E901C383
:1049F000C968A26843EA0C0322F47F4243EA01211A
:104A00001143A160A16841F48041E3E7D1E901C30A
:104A1000C968A26843EA0C0322F47F4243EA0121F9
:104A20001143A160A16841F07701D3E7D1F804C038
:104A3000D1F80CE0236A226A42F60041C4F2010177
:104A40008C4222F0100121620BD045F20001C4F229
:104A500001018C4205D043F20041C4F201018C42B5
:104A600003D1216A21F040012162A16923F0A00253
:104A700021F4704141EA0E3142EA0C12A161226236
:104A8000A1684FF68872CFF6CF7211406731A1E767
:104A9000D1F804C0D1F80CE0236A216A21F00102A8
:104AA000A4F18041A1F596314FEAB1210929226292
:104AB0000AD8012202FA01F140F2E52211421EBF9A
:104AC000216A21F004012162A16923F00A0221F088
:104AD000F00141EA0E1142EA0C02A1612262A168D2
:104AE0004FF68872CFF6CF721140473172E700BFA0
:104AF000012271E770470000F0B581B004460068FC
:104B0000C5680669B10717D515F0020114D06FF01A
:104B100002010161012121778069800704D02046CC
:104B2000FFF7E8FF06E000BF204600F03BF9204613
:104B300000F076FB00202077700719D515F00400EF
:104B400016D020686FF0040101610221217780698D
:104B500010F4407F04D02046FFF7CCFF06E000BFF2
:104B6000204600F01FF9204600F05AFB0020207775
:104B7000300717D515F0080014D020686FF0080131
:104B8000016104212177C069800703D02046FFF727
:104B9000B1FF05E0204600F005F9204600F040FB9B
:104BA00000202077F00619D515F0100016D02068E7
:104BB0006FF01001016108212177C06910F4407F76
:104BC00004D02046FFF796FF06E000BF204600F025
:104BD000E9F8204600F024FB00202077F00718BFFA
:104BE00015F0010006D020686FF001010161204638
:104BF00000F018FB16F4025F05F0800718BF002FC5
:104C000002D1F00509D410E020686FF4025101616F
:104C10002046FFF7ABFCF00507D537B120686FF4ED
:104C2000807101612046FFF79FFC700609D515F0E1
:104C3000400006D020686FF040010161204600F07E
:104C4000F3FAB00609D515F0200006D020686FF001
:104C5000200101612046FFF78BFCF00209D515F415
:104C6000801006D020686FF4801101612046FFF7A4
:104C7000EDFCB00209D515F4001006D020686FF4E1
:104C8000001101612046FFF7DFFC700209D515F421
:104C9000800006D020686FF4800101612046FFF794
:104CA000D7FC30020CD515F4000009D021686FF450
:104CB000000220460A6101B0BDE8F040FFF73ABDAE
:104CC00001B0F0BD2DE9F04186B0006842F6004128
:104CD000C4F2010100268842CDE90466CDE90266EE
:104CE000019603D006B0BDE8F08100BF41F24C0050
:104CF000C4F20200016840F6000841F004010160BE
:104D00000168C4F6000801F00401009100990168EF
:104D100001AC41F0010101600068022700F00100D0
:104D2000009000984FF400500190042005904046F8
:104D30002146CDE902760496FEF7EAFB2020CDE974
:104D40000107062540462146CDE903670595FEF794
:104D5000DFFB4FF48070CDE901074FF09040214612
:104D6000CDE903660595FEF7D3FB4FF49050CDE9EE
:104D700001074FF090402146CDE903670595FEF706
:104D8000C7FB4FF40060CDE901070B2005904FF001
:104D900090402146CDE90367FEF7BAFB06B0BDE8B7
:104DA000F08100007047000090F83C30012B04BFF8
:104DB000022070474FEAB202052A00F2F7812DE97E
:104DC000F041DFE812F007004D019500F1005700B7
:104DD000A90100BF03681D6A1A6AA3F1804622F088
:104DE00001021A621A46D3F8048052F818CF8F686D
:104DF000A6F59636D1F800E025F002054FEAB62672
:104E0000092E45EA07050DD80127B74040F2E524F1
:104E1000274207D01C6A25F0080524F004041C6210
:104E2000CC682543092E0CD80124B44040F2E52675
:104E300034421FBFD1E9054628F440773C4344EA99
:104E400006084FF68C74CFF6FE740CEA040747EAA6
:104E50000E07C3F804809F614F6809695F631D6294
:104E60009F6947F008079F619F6927F004079F61CA
:104E700090E100BF0368D3F820C01A6AA3F180470D
:104E800022F480321A621A46A7F596375D6852F806
:104E9000508FD1F800E08E684FEAB727092F0AD863
:104EA0000124BC4040F2E5273C421EBF4C6925F47A
:104EB000803545EA04252CF4003747EA06474FF6CB
:104EC0008C76CFF6FE76033606EA080646EA0E062C
:104ED0005D601E654E6809699E641F621F6D47F024
:104EE00008071F651F6D27F004071F6552E100BF0B
:104EF000036842F600461D6A1A6AC4F2010622F4EB
:104F000080721A621A46D3F804C052F81C8FB3425A
:104F10008E68D1F800E025F4007545EA06250BD02F
:104F200045F20006C4F20106B34205D043F2004642
:104F3000C4F20106B34208D11E6A25F4006526F4C6
:104F400080661E62CE6845EA0625A3F18046A6F576
:104F500096364FEAB626092E0DD8012707FA06F62F
:104F600040F2E5273E421FBFD1E905672CF44054CB
:104F7000374344EA071C4FF68C74CFF6FE7404EAFC
:104F8000080444EA0E07C3F804C0DF614F680969EA
:104F9000DF631D62DF6947F00807DF61DF6927F023
:104FA0000407DF61F6E000BF036842F600461D6AB1
:104FB0001A6AC4F2010622F480521A621A46D3F821
:104FC00004C052F81C8FB3428E68D1F800E025F47B
:104FD000005545EA06350BD045F20006C4F201063D
:104FE000B34205D043F20046C4F20106B34208D1F1
:104FF0001E6A25F4004526F480461E62CE6845EA06
:105000000635A3F18046A6F596364FEAB626092E58
:105010000DD8012707FA06F640F2E5273E421FBFEA
:10502000D1E905672CF44044374344EA871C48F62D
:10503000FF44CFF6FF6404EA080444EA0E27C3F8ED
:1050400004C0DF614F6809691F641D62DF6947F4AE
:105050000067DF61DF6927F48067DF6199E000BFE7
:10506000036842F600461D6A1A6AC4F2010622F07D
:1050700010021A621A46D3F804C052F818EFB3426D
:105080008E68D1F8008025F0200545EA06150BD082
:1050900045F20006C4F20106B34205D043F20046D1
:1050A000C4F20106B34208D11E6A25F0800526F03D
:1050B00040061E62CE6845EA0615A3F18046A6F5B5
:1050C00096364FEAB626092E0DD8012707FA06F6BE
:1050D00040F2E5273E421FBFD1E905672CF440644A
:1050E000374344EA870C48F6FF44CFF6FF640EEAE4
:1050F000040747EA0827C3F804C09F614F6809699D
:105100009F631D629F6947F400679F619F6927F451
:1051100080679F613DE000BF0368D3F820C01A6A32
:10512000A3F1804722F480121A621A46A7F5963737
:105130005D6852F8508FD1F800E08E684FEAB727CB
:10514000092F0AD80124BC4040F2E5273C421EBF8B
:105150004C6925F4802545EA84252CF4001747EA9C
:10516000065748F6FF46CFF6FF6606F5407606EA94
:10517000080646EA0E265D601E654E680969DE6413
:105180001F621F6D47F400671F651F6D27F480675E
:105190001F6509021368194311600021BDE8F04141
:1051A000002280F83C200846704700BF0121002201
:1051B00080F83C2008467047002804BF0120704753
:1051C00010B5044690F83D0028B9002084F83C0052
:1051D000204600F023F8022084F83D002068211DBD
:1051E00002F08EFF012084F8480084F83E0084F825
:1051F0003F0084F8400084F8410084F8420084F8BD
:10520000430084F8440084F8450084F8460084F89C
:10521000470084F83D00002010BD000070470000EA
:1052200070470000704700007047000090F884103D
:10523000012904BF022070472421C0F888100168AA
:105240000A680B6822F0005223F001030B60002370
:1052500043660A602021C0F8881080F8843000205E
:105260007047000090F88420012A04BF0220704794
:10527000B0B52422C0F888200268D0F864E0D2F8E3
:1052800000C01368BEF1000F23F0010313609368A0
:1052900023F0606341EA0301916019D0936891683B
:1052A0004AF2CC2E490FC0F6000E4AF2D4251EF861
:1052B0000140C0F60005695CC3F34263E400B4FB3F
:1052C000F1F11EF80340EB5CE500B5FBF3F301E000
:1052D00001210123A0F86A102021A0F86830C2F84B
:1052E00000C0C0F88810002180F884100020B0BDF4
:1052F00090F88420012A04BF02207047B0B5242210
:10530000C0F888200268D0F864E0D2F800C01368C2
:10531000BEF1000F23F001031360936823F0604394
:1053200041EA0301916019D0936891684AF2CC2E4A
:10533000490FC0F6000E4AF2D4251EF80140C0F60F
:105340000005695CC3F34263E400B4FBF1F11EF8AD
:105350000340EB5CE500B5FBF3F301E00121012321
:10536000A0F86A102021A0F86830C2F800C0C0F888
:105370008810002180F884100020B0BD7047000024
:1053800010B5D0B10446D0F8880028B9002084F8C0
:105390008400204600F026F82420C4F88800206805
:1053A000A16A026822F00102026011B1204602F0F7
:1053B0004BFF204603F0B6F910B1012010BD00BF2D
:1053C0002168486820F490404860886820F02A00EE
:1053D0008860086840F0010220460A60BDE810407D
:1053E00002F0A6BF2DE9F0439BB0044600201A90BE
:1053F000CDE91800CDE9160001A804305021FAF7D4
:105400003FFF206844F60001C4F20001884203D047
:105410001BB0BDE8F08300BF0420019001A8FEF797
:10542000C9FA002818BFFBF7ADFE41F24C00C4F2E8
:105430000200C16840F6000541F48021C160C168E6
:10544000C4F6000501F4802100910099016816AEB0
:1054500041F00401016000684FF0020800F0040010
:10546000009000984FF48060169000274FF00709D5
:1054700028463146CDF85C80CDE91877CDF86890A4
:10548000FEF746F84FF40060CDE91608012018A990
:1054900081E8810228463146FEF73AF842F628258F
:1054A0001C20C2F20005C4F202001D21102280233C
:1054B000202685E887002846C5E90437C5E9067631
:1054C0002F62FDF70BFF002818BFFBF75BFEE567B7
:1054D000AC621BB0BDE8F083D0F88830202B09D136
:1054E000944600294FF0010218BFBCF1000F05D10E
:1054F0001046704702221046704700BFB0B5002228
:1055000021230165A0F854C0A0F856C0C0F890202F
:10551000C0F88830C36F2BB348F29D45C0F6000534
:1055200048F26D6448F21D7E5D630568C0F60004B4
:10553000C0F6000EC3E90B4E9A6305F1280204463B
:1055400018466346FDF75CFF0146204651B1102125
:10555000C0F890102021C0F888100122BDE8B040AA
:1055600010467047016840220A6200BF016851E896
:10557000021F026841F0800142E80213DBB10168BA
:1055800051E8021F026841F0800142E8021393B122
:10559000016851E8021F026841F0800142E80213ED
:1055A0004BB1016851E8021F026841F0800142E8F6
:1055B0000213002BDAD10022BDE8B040104670473C
:1055C0007047000070470000FEE7000010B540F291
:1055D0006501C2F200010978012901D110BD00BFA7
:1055E00040F20004C2F20004217801390629F5D8FE
:1055F000DFE801F004542E4222687000042800F015
:10560000F980032800F0E0800228E7D1FBF7FEFADA
:1056100040F20040C4F600004FF400710022FEF793
:1056200075F803F051FD40F27B00C2F20000012149
:1056300001700520207010BD042877D003285DD0AC
:105640000228CBD1FBF714FB0120207010BD00BF56
:10565000042800F09F80032800F082800228BDD13A
:1056600040F25904C2F20004207830BBFBF71CFB67
:105670000120207010BD00BF042839D0032831D08C
:105680000228ABD140F25A04C2F200042078A0B93B
:10569000FBF7BCFB0120207010BD00BF042827D001
:1056A00003281FD002287FF499AF40F25804C2F2B9
:1056B00000042078002800F0A980BDE8104002F026
:1056C00013BC00BF03287FF489AFFBF77DFA0120EC
:1056D000207010BD04287FF481AFFBF729FD012065
:1056E000207010BD40F20400C2F200000AE000BFCA
:1056F00040F20400C2F200001CE000BF40F21800BB
:10570000C2F2000090ED000A9FED441A30EE010A4B
:10571000B0EE001AB4EE410AF1EE10FA80ED000A84
:105720007FF75CAF4FF08041016010BD40F2180080
:10573000C2F2000090ED000A9FED371A9FED372A64
:1057400030EE010AB4EE420AF1EE10FA80ED000AE2
:10575000A8BF10BD4CF6CD41C3F64C61016010BD31
:1057600040F20800C2F2000090ED000AB6EE001A06
:105770009FED2B2A30EE010AB4EE420AF1EE10FA48
:1057800080ED000A7FF72AAF0021C4F204210160F6
:1057900010BD00BF40F20800C2F2000090ED000A08
:1057A000BEEE001A30EE010AB3EE0E1AB4EE410A54
:1057B000F1EE10FA80ED000ABFF610AF0021C4F23E
:1057C000F011016010BD00BFFBF7AAF940F20040E4
:1057D000C4F600004FF400710022FDF797FF03F0BC
:1057E00073FC40F27F00C2F200000121017006202C
:1057F000207010BDFBF780FC40F28000C2F2000078
:10580000012101700720207010BD00BFFBF7C8FB0D
:105810000120207010BD00BFCDCC4CBECDCC4C3E85
:105820000000044240F25001C2F200010878002258
:105830000A707047B0B5FDF76FFF40F25005C2F235
:1058400000056968401A142832D340F20044C4F6B7
:105850000004FDF761FF686020464FF48041FDF7CA
:1058600047FFF8B120464FF40051FDF741FFD8B192
:1058700020464FF48051FDF73BFFB8B120464FF46E
:105880000061FDF735FFB0FA80F1490900284FEAC1
:1058900081000CD0697851B12A78002A08BF29709C
:1058A00005E000BF012002E0022000E00320687054
:1058B0002878B0BD10B58CB042F65C10C2F2000082
:1058C0004FF0A04100244FF4403280E81600072139
:1058D00001234FF0040C01624FF4A4614FF4806285
:1058E0000B94CDE90944CDE90744CDE90544CDE960
:1058F0000344CDE90144C0E90344C0E9053C848385
:1059000080F82440C0E90B1280F83830C46380F876
:105910004040FDF74FFA002818BFFBF733FC42F672
:105920005C10C2F2000009A90994FBF755FE00289B
:1059300018BFFBF727FC0220C0F230400190062080
:105940000290032003907F20049004200590002003
:10595000069042F65C10C2F2000001A9FBF7D6FEE9
:10596000002818BFFBF70EFC0420C0F66000019071
:105970000C20029042F65C10C2F2000001A9FBF775
:10598000C5FE002818BFFBF7FDFB0820C0F69040BD
:1059900001901220029042F65C10C2F2000001A9B0
:1059A000FBF7B4FE002818BFFBF7ECFB4020C1F664
:1059B000201001901820029042F65C10C2F2000004
:1059C00001A9FBF7A3FE002818BFFBF7DBFB802033
:1059D000C1F6505001904FF48070029042F65C1076
:1059E000C2F2000001A9FBF791FE002818BFFBF7E7
:1059F000C9FB40F20010C2F2801001904FF4837096
:105A0000029042F65C10C2F2000001A9FBF77EFE94
:105A1000002818BFFBF7B6FB40F20020C2F2B050DE
:105A200001904FF48670029042F65C10C2F20000C2
:105A300001A9FBF76BFE002818BFFBF7A3FB0CB016
:105A400010BD000080B582B041F24800C4F20200EF
:105A50000168002241F004010160016801F00401C5
:105A600001910199016841F0010101600068002184
:105A700000F00100009000980B20FDF7CDFE0B20F8
:105A8000FDF7B8FE0C2002210022FDF7C5FE0C2018
:105A900002B0BDE88040FDF7ADBE00002DE9F04F3B
:105AA00087B0002741F24C000697CDE90477CDE995
:105AB0000277C4F202000168002241F00401016093
:105AC000016801F0040101910199016841F0200190
:105AD0000160016801F0200101910199016841F024
